{
  "contractName": "Painting",
  "abi": [
    {
      "inputs": [
        {
          "internalType": "string",
          "name": "_name",
          "type": "string"
        },
        {
          "internalType": "string",
          "name": "_symbol",
          "type": "string"
        },
        {
          "internalType": "uint256",
          "name": "_cost",
          "type": "uint256"
        }
      ],
      "stateMutability": "nonpayable",
      "type": "constructor"
    },
    {
      "anonymous": false,
      "inputs": [
        {
          "indexed": true,
          "internalType": "address",
          "name": "owner",
          "type": "address"
        },
        {
          "indexed": true,
          "internalType": "address",
          "name": "approved",
          "type": "address"
        },
        {
          "indexed": true,
          "internalType": "uint256",
          "name": "tokenId",
          "type": "uint256"
        }
      ],
      "name": "Approval",
      "type": "event"
    },
    {
      "anonymous": false,
      "inputs": [
        {
          "indexed": true,
          "internalType": "address",
          "name": "owner",
          "type": "address"
        },
        {
          "indexed": true,
          "internalType": "address",
          "name": "operator",
          "type": "address"
        },
        {
          "indexed": false,
          "internalType": "bool",
          "name": "approved",
          "type": "bool"
        }
      ],
      "name": "ApprovalForAll",
      "type": "event"
    },
    {
      "anonymous": false,
      "inputs": [
        {
          "indexed": true,
          "internalType": "address",
          "name": "from",
          "type": "address"
        },
        {
          "indexed": true,
          "internalType": "address",
          "name": "to",
          "type": "address"
        },
        {
          "indexed": true,
          "internalType": "uint256",
          "name": "tokenId",
          "type": "uint256"
        }
      ],
      "name": "Transfer",
      "type": "event"
    },
    {
      "inputs": [
        {
          "internalType": "address",
          "name": "to",
          "type": "address"
        },
        {
          "internalType": "uint256",
          "name": "tokenId",
          "type": "uint256"
        }
      ],
      "name": "approve",
      "outputs": [],
      "stateMutability": "nonpayable",
      "type": "function"
    },
    {
      "inputs": [
        {
          "internalType": "address",
          "name": "owner",
          "type": "address"
        }
      ],
      "name": "balanceOf",
      "outputs": [
        {
          "internalType": "uint256",
          "name": "",
          "type": "uint256"
        }
      ],
      "stateMutability": "view",
      "type": "function",
      "constant": true
    },
    {
      "inputs": [
        {
          "internalType": "uint256",
          "name": "",
          "type": "uint256"
        }
      ],
      "name": "bids",
      "outputs": [
        {
          "internalType": "uint256",
          "name": "amount",
          "type": "uint256"
        },
        {
          "internalType": "address payable",
          "name": "bidder",
          "type": "address"
        }
      ],
      "stateMutability": "view",
      "type": "function",
      "constant": true
    },
    {
      "inputs": [],
      "name": "contract_owner",
      "outputs": [
        {
          "internalType": "address",
          "name": "",
          "type": "address"
        }
      ],
      "stateMutability": "view",
      "type": "function",
      "constant": true
    },
    {
      "inputs": [],
      "name": "cost",
      "outputs": [
        {
          "internalType": "uint256",
          "name": "",
          "type": "uint256"
        }
      ],
      "stateMutability": "view",
      "type": "function",
      "constant": true
    },
    {
      "inputs": [
        {
          "internalType": "uint256",
          "name": "tokenId",
          "type": "uint256"
        }
      ],
      "name": "getApproved",
      "outputs": [
        {
          "internalType": "address",
          "name": "",
          "type": "address"
        }
      ],
      "stateMutability": "view",
      "type": "function",
      "constant": true
    },
    {
      "inputs": [
        {
          "internalType": "address",
          "name": "owner",
          "type": "address"
        },
        {
          "internalType": "address",
          "name": "operator",
          "type": "address"
        }
      ],
      "name": "isApprovedForAll",
      "outputs": [
        {
          "internalType": "bool",
          "name": "",
          "type": "bool"
        }
      ],
      "stateMutability": "view",
      "type": "function",
      "constant": true
    },
    {
      "inputs": [],
      "name": "maxSupply",
      "outputs": [
        {
          "internalType": "uint256",
          "name": "",
          "type": "uint256"
        }
      ],
      "stateMutability": "view",
      "type": "function",
      "constant": true
    },
    {
      "inputs": [],
      "name": "name",
      "outputs": [
        {
          "internalType": "string",
          "name": "",
          "type": "string"
        }
      ],
      "stateMutability": "view",
      "type": "function",
      "constant": true
    },
    {
      "inputs": [
        {
          "internalType": "uint256",
          "name": "",
          "type": "uint256"
        }
      ],
      "name": "names",
      "outputs": [
        {
          "internalType": "string",
          "name": "name",
          "type": "string"
        },
        {
          "internalType": "address",
          "name": "wallet_address",
          "type": "address"
        }
      ],
      "stateMutability": "view",
      "type": "function",
      "constant": true
    },
    {
      "inputs": [
        {
          "internalType": "uint256",
          "name": "tokenId",
          "type": "uint256"
        }
      ],
      "name": "ownerOf",
      "outputs": [
        {
          "internalType": "address",
          "name": "",
          "type": "address"
        }
      ],
      "stateMutability": "view",
      "type": "function",
      "constant": true
    },
    {
      "inputs": [
        {
          "internalType": "uint256",
          "name": "",
          "type": "uint256"
        }
      ],
      "name": "paintings",
      "outputs": [
        {
          "internalType": "string",
          "name": "name",
          "type": "string"
        },
        {
          "internalType": "address",
          "name": "owner",
          "type": "address"
        },
        {
          "internalType": "address",
          "name": "creator",
          "type": "address"
        },
        {
          "internalType": "int256",
          "name": "list_price",
          "type": "int256"
        }
      ],
      "stateMutability": "view",
      "type": "function",
      "constant": true
    },
    {
      "inputs": [
        {
          "internalType": "uint256",
          "name": "_tokenId",
          "type": "uint256"
        },
        {
          "internalType": "uint256",
          "name": "_salePrice",
          "type": "uint256"
        }
      ],
      "name": "royaltyInfo",
      "outputs": [
        {
          "internalType": "address",
          "name": "",
          "type": "address"
        },
        {
          "internalType": "uint256",
          "name": "",
          "type": "uint256"
        }
      ],
      "stateMutability": "view",
      "type": "function",
      "constant": true
    },
    {
      "inputs": [
        {
          "internalType": "address",
          "name": "operator",
          "type": "address"
        },
        {
          "internalType": "bool",
          "name": "approved",
          "type": "bool"
        }
      ],
      "name": "setApprovalForAll",
      "outputs": [],
      "stateMutability": "nonpayable",
      "type": "function"
    },
    {
      "inputs": [
        {
          "internalType": "bytes4",
          "name": "interfaceId",
          "type": "bytes4"
        }
      ],
      "name": "supportsInterface",
      "outputs": [
        {
          "internalType": "bool",
          "name": "",
          "type": "bool"
        }
      ],
      "stateMutability": "view",
      "type": "function",
      "constant": true
    },
    {
      "inputs": [],
      "name": "symbol",
      "outputs": [
        {
          "internalType": "string",
          "name": "",
          "type": "string"
        }
      ],
      "stateMutability": "view",
      "type": "function",
      "constant": true
    },
    {
      "inputs": [
        {
          "internalType": "uint256",
          "name": "tokenId",
          "type": "uint256"
        }
      ],
      "name": "tokenURI",
      "outputs": [
        {
          "internalType": "string",
          "name": "",
          "type": "string"
        }
      ],
      "stateMutability": "view",
      "type": "function",
      "constant": true
    },
    {
      "inputs": [],
      "name": "totalSupply",
      "outputs": [
        {
          "internalType": "uint256",
          "name": "",
          "type": "uint256"
        }
      ],
      "stateMutability": "view",
      "type": "function",
      "constant": true
    },
    {
      "inputs": [
        {
          "internalType": "address",
          "name": "walletAddress",
          "type": "address"
        },
        {
          "internalType": "string",
          "name": "name",
          "type": "string"
        }
      ],
      "name": "addName",
      "outputs": [],
      "stateMutability": "nonpayable",
      "type": "function"
    },
    {
      "inputs": [],
      "name": "getNames",
      "outputs": [
        {
          "components": [
            {
              "internalType": "string",
              "name": "name",
              "type": "string"
            },
            {
              "internalType": "address",
              "name": "wallet_address",
              "type": "address"
            }
          ],
          "internalType": "struct Painting.Name[]",
          "name": "",
          "type": "tuple[]"
        }
      ],
      "stateMutability": "view",
      "type": "function",
      "constant": true
    },
    {
      "inputs": [
        {
          "internalType": "uint256",
          "name": "amount",
          "type": "uint256"
        }
      ],
      "name": "addBid",
      "outputs": [],
      "stateMutability": "nonpayable",
      "type": "function"
    },
    {
      "inputs": [],
      "name": "getAuctionPaintingID",
      "outputs": [
        {
          "internalType": "uint256",
          "name": "",
          "type": "uint256"
        }
      ],
      "stateMutability": "view",
      "type": "function",
      "constant": true
    },
    {
      "inputs": [],
      "name": "getAuctionExpiryDate",
      "outputs": [
        {
          "internalType": "uint256",
          "name": "",
          "type": "uint256"
        }
      ],
      "stateMutability": "view",
      "type": "function",
      "constant": true
    },
    {
      "inputs": [],
      "name": "getBids",
      "outputs": [
        {
          "components": [
            {
              "internalType": "uint256",
              "name": "amount",
              "type": "uint256"
            },
            {
              "internalType": "address payable",
              "name": "bidder",
              "type": "address"
            }
          ],
          "internalType": "struct Painting.Bid[]",
          "name": "",
          "type": "tuple[]"
        }
      ],
      "stateMutability": "view",
      "type": "function",
      "constant": true
    },
    {
      "inputs": [],
      "name": "payAuction",
      "outputs": [
        {
          "internalType": "bool",
          "name": "",
          "type": "bool"
        }
      ],
      "stateMutability": "payable",
      "type": "function",
      "payable": true
    },
    {
      "inputs": [
        {
          "internalType": "string",
          "name": "_name",
          "type": "string"
        },
        {
          "internalType": "address",
          "name": "creator",
          "type": "address"
        },
        {
          "internalType": "int256",
          "name": "list_price",
          "type": "int256"
        }
      ],
      "name": "addPainting",
      "outputs": [],
      "stateMutability": "nonpayable",
      "type": "function"
    },
    {
      "inputs": [
        {
          "internalType": "uint256",
          "name": "_id",
          "type": "uint256"
        }
      ],
      "name": "mint",
      "outputs": [],
      "stateMutability": "payable",
      "type": "function",
      "payable": true
    },
    {
      "inputs": [
        {
          "internalType": "address",
          "name": "from",
          "type": "address"
        },
        {
          "internalType": "address",
          "name": "to",
          "type": "address"
        },
        {
          "internalType": "uint256",
          "name": "tokenId",
          "type": "uint256"
        }
      ],
      "name": "transferFrom",
      "outputs": [],
      "stateMutability": "nonpayable",
      "type": "function"
    },
    {
      "inputs": [
        {
          "internalType": "uint256",
          "name": "_id",
          "type": "uint256"
        },
        {
          "internalType": "int256",
          "name": "list_price",
          "type": "int256"
        }
      ],
      "name": "listToken",
      "outputs": [],
      "stateMutability": "nonpayable",
      "type": "function"
    },
    {
      "inputs": [
        {
          "internalType": "uint256",
          "name": "_id",
          "type": "uint256"
        }
      ],
      "name": "buyToken",
      "outputs": [],
      "stateMutability": "payable",
      "type": "function",
      "payable": true
    },
    {
      "inputs": [
        {
          "internalType": "address",
          "name": "from",
          "type": "address"
        },
        {
          "internalType": "address",
          "name": "to",
          "type": "address"
        },
        {
          "internalType": "uint256",
          "name": "tokenId",
          "type": "uint256"
        }
      ],
      "name": "safeTransferFrom",
      "outputs": [],
      "stateMutability": "nonpayable",
      "type": "function"
    },
    {
      "inputs": [
        {
          "internalType": "address",
          "name": "from",
          "type": "address"
        },
        {
          "internalType": "address",
          "name": "to",
          "type": "address"
        },
        {
          "internalType": "uint256",
          "name": "tokenId",
          "type": "uint256"
        },
        {
          "internalType": "bytes",
          "name": "_data",
          "type": "bytes"
        }
      ],
      "name": "safeTransferFrom",
      "outputs": [],
      "stateMutability": "nonpayable",
      "type": "function"
    },
    {
      "inputs": [],
      "name": "getPaintings",
      "outputs": [
        {
          "components": [
            {
              "internalType": "string",
              "name": "name",
              "type": "string"
            },
            {
              "internalType": "address",
              "name": "owner",
              "type": "address"
            },
            {
              "internalType": "address",
              "name": "creator",
              "type": "address"
            },
            {
              "internalType": "int256",
              "name": "list_price",
              "type": "int256"
            }
          ],
          "internalType": "struct Painting.Paint[]",
          "name": "",
          "type": "tuple[]"
        }
      ],
      "stateMutability": "view",
      "type": "function",
      "constant": true
    },
    {
      "inputs": [
        {
          "internalType": "uint256",
          "name": "_id",
          "type": "uint256"
        }
      ],
      "name": "getPainting",
      "outputs": [
        {
          "components": [
            {
              "internalType": "string",
              "name": "name",
              "type": "string"
            },
            {
              "internalType": "address",
              "name": "owner",
              "type": "address"
            },
            {
              "internalType": "address",
              "name": "creator",
              "type": "address"
            },
            {
              "internalType": "int256",
              "name": "list_price",
              "type": "int256"
            }
          ],
          "internalType": "struct Painting.Paint",
          "name": "",
          "type": "tuple"
        }
      ],
      "stateMutability": "view",
      "type": "function",
      "constant": true
    }
  ],
  "bytecode": "0x60a060405266038d7ea4c6800060085560146009556000600a556000600c553480156200002b57600080fd5b506040516200618138038062006181833981810160405281019062000051919062000f37565b828281600290805190602001906200006b92919062000caf565b5080600390805190602001906200008492919062000caf565b50505060085490503373ffffffffffffffffffffffffffffffffffffffff1660808173ffffffffffffffffffffffffffffffffffffffff16815250506000733a3593b8e169236289cf8699876a8af393b022309050620000ed816103e86200072d60201b60201c565b620001366040518060400160405280600c81526020017f4c69666520497320476f6f640000000000000000000000000000000000000000815250826000620008d060201b60201c565b6200017f6040518060400160405280601081526020017f416476656e747572657320417761697400000000000000000000000000000000815250826000620008d060201b60201c565b620001c86040518060400160405280600a81526020017f4a6f75726e6579204f6e00000000000000000000000000000000000000000000815250826000620008d060201b60201c565b620002116040518060400160405280600881526020017f5370656564205570000000000000000000000000000000000000000000000000815250826000620008d060201b60201c565b6200026e6040518060400160405280600a81526020017f4661737420547261696e000000000000000000000000000000000000000000008152507373382d70c64b527a7652eb21c48bfc1ed2b6e0b66000620008d060201b60201c565b620002b76040518060400160405280601081526020017f4d6178696d756d205468726f74746c6500000000000000000000000000000000815250826000620008d060201b60201c565b620003006040518060400160405280600381526020017f4d42530000000000000000000000000000000000000000000000000000000000815250826000620008d060201b60201c565b620003496040518060400160405280600881526020017f5065656b61626f6f000000000000000000000000000000000000000000000000815250826000620008d060201b60201c565b620003926040518060400160405280600e81526020017f476f6c64656e204d6f6d656e7473000000000000000000000000000000000000815250826000620008d060201b60201c565b620003db6040518060400160405280600681526020017f53756e7365740000000000000000000000000000000000000000000000000000815250826000620008d060201b60201c565b620004246040518060400160405280600881526020017f426c6f73736f6d73000000000000000000000000000000000000000000000000815250826000620008d060201b60201c565b620004816040518060400160405280600881526020017f4461726b6e657373000000000000000000000000000000000000000000000000815250733a3593b8e169236289cf8699876a8af393b022306000620008d060201b60201c565b620004ca6040518060400160405280600681526020017f4272696768740000000000000000000000000000000000000000000000000000815250826000620008d060201b60201c565b620005136040518060400160405280600c81526020017f5261696e626f7720547265650000000000000000000000000000000000000000815250826000620008d060201b60201c565b6200055c6040518060400160405280600581526020017f52656c6178000000000000000000000000000000000000000000000000000000815250826000620008d060201b60201c565b620005b7733a3593b8e169236289cf8699876a8af393b022306040518060400160405280600781526020017f56616e204752410000000000000000000000000000000000000000000000000081525062000a4260201b60201c565b620006127373382d70c64b527a7652eb21c48bfc1ed2b6e0b66040518060400160405280600681526020017f6c656e6f766f000000000000000000000000000000000000000000000000000081525062000a4260201b60201c565b6200066d7321586e20921f2d6c068830c9460c728c9a3411a26040518060400160405280600281526020017f736d00000000000000000000000000000000000000000000000000000000000081525062000a4260201b60201c565b620006c873caae7ee609621f5b64d7553fdee4696b2a4eb56f6040518060400160405280600281526020017f434300000000000000000000000000000000000000000000000000000000000081525062000a4260201b60201c565b6200072373ec79fc264b134ea21161d7e1487676b8d26b6ae86040518060400160405280600681526020017f486f6d656c79000000000000000000000000000000000000000000000000000081525062000a4260201b60201c565b505050506200126f565b6200073d62000ca560201b60201c565b6bffffffffffffffffffffffff16816bffffffffffffffffffffffff1611156200079e576040517f08c379a0000000000000000000000000000000000000000000000000000000008152600401620007959062001058565b60405180910390fd5b600073ffffffffffffffffffffffffffffffffffffffff168273ffffffffffffffffffffffffffffffffffffffff16141562000811576040517f08c379a00000000000000000000000000000000000000000000000000000000081526004016200080890620010ca565b60405180910390fd5b60405180604001604052808373ffffffffffffffffffffffffffffffffffffffff168152602001826bffffffffffffffffffffffff168152506000808201518160000160006101000a81548173ffffffffffffffffffffffffffffffffffffffff021916908373ffffffffffffffffffffffffffffffffffffffff16021790555060208201518160000160146101000a8154816bffffffffffffffffffffffff02191690836bffffffffffffffffffffffff1602179055509050505050565b60805173ffffffffffffffffffffffffffffffffffffffff163373ffffffffffffffffffffffffffffffffffffffff16146200090b57600080fd5b600b6040518060800160405280858152602001600073ffffffffffffffffffffffffffffffffffffffff1681526020018473ffffffffffffffffffffffffffffffffffffffff1681526020018381525090806001815401808255809150506001900390600052602060002090600402016000909190919091506000820151816000019080519060200190620009a292919062000caf565b5060208201518160010160006101000a81548173ffffffffffffffffffffffffffffffffffffffff021916908373ffffffffffffffffffffffffffffffffffffffff16021790555060408201518160020160006101000a81548173ffffffffffffffffffffffffffffffffffffffff021916908373ffffffffffffffffffffffffffffffffffffffff160217905550606082015181600301555050505050565b8173ffffffffffffffffffffffffffffffffffffffff163373ffffffffffffffffffffffffffffffffffffffff16148062000aaa575060805173ffffffffffffffffffffffffffffffffffffffff163373ffffffffffffffffffffffffffffffffffffffff16145b62000aec576040517f08c379a000000000000000000000000000000000000000000000000000000000815260040162000ae3906200113c565b60405180910390fd5b6000805b600f8054905081101562000bda578373ffffffffffffffffffffffffffffffffffffffff16600f828154811062000b2c5762000b2b6200115e565b5b906000526020600020906002020160010160009054906101000a900473ffffffffffffffffffffffffffffffffffffffff1673ffffffffffffffffffffffffffffffffffffffff16141562000bc45782600f828154811062000b935762000b926200115e565b5b9060005260206000209060020201600001908051906020019062000bb992919062000caf565b506001915062000bda565b808062000bd190620011bc565b91505062000af0565b508062000ca057600f60405180604001604052808481526020018573ffffffffffffffffffffffffffffffffffffffff168152509080600181540180825580915050600190039060005260206000209060020201600090919091909150600082015181600001908051906020019062000c5592919062000caf565b5060208201518160010160006101000a81548173ffffffffffffffffffffffffffffffffffffffff021916908373ffffffffffffffffffffffffffffffffffffffff16021790555050505b505050565b6000612710905090565b82805462000cbd9062001239565b90600052602060002090601f01602090048101928262000ce1576000855562000d2d565b82601f1062000cfc57805160ff191683800117855562000d2d565b8280016001018555821562000d2d579182015b8281111562000d2c57825182559160200191906001019062000d0f565b5b50905062000d3c919062000d40565b5090565b5b8082111562000d5b57600081600090555060010162000d41565b5090565b6000604051905090565b600080fd5b600080fd5b600080fd5b600080fd5b6000601f19601f8301169050919050565b7f4e487b7100000000000000000000000000000000000000000000000000000000600052604160045260246000fd5b62000dc88262000d7d565b810181811067ffffffffffffffff8211171562000dea5762000de962000d8e565b5b80604052505050565b600062000dff62000d5f565b905062000e0d828262000dbd565b919050565b600067ffffffffffffffff82111562000e305762000e2f62000d8e565b5b62000e3b8262000d7d565b9050602081019050919050565b60005b8381101562000e6857808201518184015260208101905062000e4b565b8381111562000e78576000848401525b50505050565b600062000e9562000e8f8462000e12565b62000df3565b90508281526020810184848401111562000eb45762000eb362000d78565b5b62000ec184828562000e48565b509392505050565b600082601f83011262000ee15762000ee062000d73565b5b815162000ef384826020860162000e7e565b91505092915050565b6000819050919050565b62000f118162000efc565b811462000f1d57600080fd5b50565b60008151905062000f318162000f06565b92915050565b60008060006060848603121562000f535762000f5262000d69565b5b600084015167ffffffffffffffff81111562000f745762000f7362000d6e565b5b62000f828682870162000ec9565b935050602084015167ffffffffffffffff81111562000fa65762000fa562000d6e565b5b62000fb48682870162000ec9565b925050604062000fc78682870162000f20565b9150509250925092565b600082825260208201905092915050565b7f455243323938313a20726f79616c7479206665652077696c6c2065786365656460008201527f2073616c65507269636500000000000000000000000000000000000000000000602082015250565b600062001040602a8362000fd1565b91506200104d8262000fe2565b604082019050919050565b60006020820190508181036000830152620010738162001031565b9050919050565b7f455243323938313a20696e76616c696420726563656976657200000000000000600082015250565b6000620010b260198362000fd1565b9150620010bf826200107a565b602082019050919050565b60006020820190508181036000830152620010e581620010a3565b9050919050565b7f5065726d697373696f6e2064656e696564000000000000000000000000000000600082015250565b60006200112460118362000fd1565b91506200113182620010ec565b602082019050919050565b60006020820190508181036000830152620011578162001115565b9050919050565b7f4e487b7100000000000000000000000000000000000000000000000000000000600052603260045260246000fd5b7f4e487b7100000000000000000000000000000000000000000000000000000000600052601160045260246000fd5b6000620011c98262000efc565b91507fffffffffffffffffffffffffffffffffffffffffffffffffffffffffffffffff821415620011ff57620011fe6200118d565b5b600182019050919050565b7f4e487b7100000000000000000000000000000000000000000000000000000000600052602260045260246000fd5b600060028204905060018216806200125257607f821691505b602082108114156200126957620012686200120a565b5b50919050565b608051614ee8620012996000396000818161124c0152818161220601526124e10152614ee86000f3fe6080604052600436106101f95760003560e01c80636352211e1161010d578063b88d4fde116100a0578063d0aab3fd1161006f578063d0aab3fd1461075e578063d5abeb0114610787578063e985e9c5146107b2578063f41a5750146107ef578063f4299d0d1461081a576101f9565b8063b88d4fde1461068d578063c7ca6daa146106b6578063c87b56dd146106f6578063cd838f0f14610733576101f9565b806399eb5967116100dc57806399eb5967146105f2578063a0712d681461061d578063a22cb46514610639578063b81c78ec14610662576101f9565b80636352211e1461052f57806370a082311461056c57806377c655fa146105a957806395d89b41146105c7576101f9565b806323b872dd11610190578063384f58eb1161015f578063384f58eb146104365780633fb1a72c1461046157806342842e0e1461048a5780634423c5f1146104b35780634622ab03146104f1576101f9565b806323b872dd146103885780632a55205a146103b15780632d296bf1146103ef5780632dd9dd151461040b576101f9565b806313faede6116101cc57806313faede6146102cc578063145f8ba2146102f757806314b0e2661461033457806318160ddd1461035d576101f9565b806301ffc9a7146101fe57806306fdde031461023b578063081812fc14610266578063095ea7b3146102a3575b600080fd5b34801561020a57600080fd5b50610225600480360381019061022091906135dc565b610843565b6040516102329190613624565b60405180910390f35b34801561024757600080fd5b50610250610855565b60405161025d91906136d8565b60405180910390f35b34801561027257600080fd5b5061028d60048036038101906102889190613730565b6108e7565b60405161029a919061379e565b60405180910390f35b3480156102af57600080fd5b506102ca60048036038101906102c591906137e5565b61096c565b005b3480156102d857600080fd5b506102e1610a84565b6040516102ee9190613834565b60405180910390f35b34801561030357600080fd5b5061031e60048036038101906103199190613730565b610a8a565b60405161032b9190613924565b60405180910390f35b34801561034057600080fd5b5061035b60048036038101906103569190613730565b610c1a565b005b34801561036957600080fd5b50610372610d5f565b60405161037f9190613834565b60405180910390f35b34801561039457600080fd5b506103af60048036038101906103aa9190613946565b610d65565b005b3480156103bd57600080fd5b506103d860048036038101906103d39190613999565b610e35565b6040516103e69291906139d9565b60405180910390f35b61040960048036038101906104049190613730565b611020565b005b34801561041757600080fd5b50610420611240565b60405161042d9190613834565b60405180910390f35b34801561044257600080fd5b5061044b61124a565b604051610458919061379e565b60405180910390f35b34801561046d57600080fd5b5061048860048036038101906104839190613a2e565b61126e565b005b34801561049657600080fd5b506104b160048036038101906104ac9190613946565b61132b565b005b3480156104bf57600080fd5b506104da60048036038101906104d59190613730565b61134b565b6040516104e8929190613a8f565b60405180910390f35b3480156104fd57600080fd5b5061051860048036038101906105139190613730565b61139f565b604051610526929190613ab8565b60405180910390f35b34801561053b57600080fd5b5061055660048036038101906105519190613730565b61147b565b604051610563919061379e565b60405180910390f35b34801561057857600080fd5b50610593600480360381019061058e9190613ae8565b61152d565b6040516105a09190613834565b60405180910390f35b6105b16115e5565b6040516105be9190613624565b60405180910390f35b3480156105d357600080fd5b506105dc6119b7565b6040516105e991906136d8565b60405180910390f35b3480156105fe57600080fd5b50610607611a49565b6040516106149190613c3a565b60405180910390f35b61063760048036038101906106329190613730565b611bf0565b005b34801561064557600080fd5b50610660600480360381019061065b9190613c88565b611d32565b005b34801561066e57600080fd5b50610677611d48565b6040516106849190613dc4565b60405180910390f35b34801561069957600080fd5b506106b460048036038101906106af9190613f1b565b611e07565b005b3480156106c257600080fd5b506106dd60048036038101906106d89190613730565b611ed9565b6040516106ed9493929190613fad565b60405180910390f35b34801561070257600080fd5b5061071d60048036038101906107189190613730565b611fe1565b60405161072a91906136d8565b60405180910390f35b34801561073f57600080fd5b50610748612088565b60405161075591906140f8565b60405180910390f35b34801561076a57600080fd5b50610785600480360381019061078091906141bb565b6121cf565b005b34801561079357600080fd5b5061079c61243b565b6040516107a99190613834565b60405180910390f35b3480156107be57600080fd5b506107d960048036038101906107d49190614217565b612441565b6040516107e69190613624565b60405180910390f35b3480156107fb57600080fd5b506108046124d5565b6040516108119190613834565b60405180910390f35b34801561082657600080fd5b50610841600480360381019061083c9190614257565b6124df565b005b600061084e8261266c565b9050919050565b606060028054610864906142f5565b80601f0160208091040260200160405190810160405280929190818152602001828054610890906142f5565b80156108dd5780601f106108b2576101008083540402835291602001916108dd565b820191906000526020600020905b8154815290600101906020018083116108c057829003601f168201915b5050505050905090565b60006108f28261274e565b610931576040517f08c379a000000000000000000000000000000000000000000000000000000000815260040161092890614399565b60405180910390fd5b6006600083815260200190815260200160002060009054906101000a900473ffffffffffffffffffffffffffffffffffffffff169050919050565b60006109778261147b565b90508073ffffffffffffffffffffffffffffffffffffffff168373ffffffffffffffffffffffffffffffffffffffff1614156109e8576040517f08c379a00000000000000000000000000000000000000000000000000000000081526004016109df9061442b565b60405180910390fd5b8073ffffffffffffffffffffffffffffffffffffffff16610a076127ba565b73ffffffffffffffffffffffffffffffffffffffff161480610a365750610a3581610a306127ba565b612441565b5b610a75576040517f08c379a0000000000000000000000000000000000000000000000000000000008152600401610a6c906144bd565b60405180910390fd5b610a7f83836127c2565b505050565b60085481565b610a9261340f565b600b600183610aa1919061450c565b81548110610ab257610ab1614540565b5b9060005260206000209060040201604051806080016040529081600082018054610adb906142f5565b80601f0160208091040260200160405190810160405280929190818152602001828054610b07906142f5565b8015610b545780601f10610b2957610100808354040283529160200191610b54565b820191906000526020600020905b815481529060010190602001808311610b3757829003601f168201915b505050505081526020016001820160009054906101000a900473ffffffffffffffffffffffffffffffffffffffff1673ffffffffffffffffffffffffffffffffffffffff1673ffffffffffffffffffffffffffffffffffffffff1681526020016002820160009054906101000a900473ffffffffffffffffffffffffffffffffffffffff1673ffffffffffffffffffffffffffffffffffffffff1673ffffffffffffffffffffffffffffffffffffffff1681526020016003820154815250509050919050565b6000600c5411610c2957600080fd5b42600e541015610c3857600080fd5b6000600d805490501115610c8957600d6001600d80549050610c5a919061450c565b81548110610c6b57610c6a614540565b5b9060005260206000209060020201600001548111610c8857600080fd5b5b60b442600e54610c99919061450c565b1015610cb35760b442610cac919061456f565b600e819055505b600d60405180604001604052808381526020013373ffffffffffffffffffffffffffffffffffffffff1681525090806001815401808255809150506001900390600052602060002090600202016000909190919091506000820151816000015560208201518160010160006101000a81548173ffffffffffffffffffffffffffffffffffffffff021916908373ffffffffffffffffffffffffffffffffffffffff160217905550505050565b600a5481565b610d76610d706127ba565b8261287b565b610db5576040517f08c379a0000000000000000000000000000000000000000000000000000000008152600401610dac90614637565b60405180910390fd5b81600b600183610dc5919061450c565b81548110610dd657610dd5614540565b5b906000526020600020906004020160010160006101000a81548173ffffffffffffffffffffffffffffffffffffffff021916908373ffffffffffffffffffffffffffffffffffffffff160217905550610e30838383612959565b505050565b6000806000600160008681526020019081526020016000206040518060400160405290816000820160009054906101000a900473ffffffffffffffffffffffffffffffffffffffff1673ffffffffffffffffffffffffffffffffffffffff1673ffffffffffffffffffffffffffffffffffffffff1681526020016000820160149054906101000a90046bffffffffffffffffffffffff166bffffffffffffffffffffffff166bffffffffffffffffffffffff16815250509050600073ffffffffffffffffffffffffffffffffffffffff16816000015173ffffffffffffffffffffffffffffffffffffffff161415610fcb5760006040518060400160405290816000820160009054906101000a900473ffffffffffffffffffffffffffffffffffffffff1673ffffffffffffffffffffffffffffffffffffffff1673ffffffffffffffffffffffffffffffffffffffff1681526020016000820160149054906101000a90046bffffffffffffffffffffffff166bffffffffffffffffffffffff166bffffffffffffffffffffffff168152505090505b6000610fd5612bc0565b6bffffffffffffffffffffffff1682602001516bffffffffffffffffffffffff16866110019190614657565b61100b91906146e0565b90508160000151819350935050509250929050565b6000600b600183611031919061450c565b8154811061104257611041614540565b5b9060005260206000209060040201600301541361105e57600080fd5b600b60018261106d919061450c565b8154811061107e5761107d614540565b5b90600052602060002090600402016003015434101561109c57600080fd5b6110f8600b6001836110ae919061450c565b815481106110bf576110be614540565b5b906000526020600020906004020160010160009054906101000a900473ffffffffffffffffffffffffffffffffffffffff163383612959565b6000600b600183611109919061450c565b8154811061111a57611119614540565b5b906000526020600020906004020160010160009054906101000a900473ffffffffffffffffffffffffffffffffffffffff1690508073ffffffffffffffffffffffffffffffffffffffff166108fc349081150290604051600060405180830381858888f19350505050158015611194573d6000803e3d6000fd5b5033600b6001846111a5919061450c565b815481106111b6576111b5614540565b5b906000526020600020906004020160010160006101000a81548173ffffffffffffffffffffffffffffffffffffffff021916908373ffffffffffffffffffffffffffffffffffffffff1602179055506000600b600184611216919061450c565b8154811061122757611226614540565b5b9060005260206000209060040201600301819055505050565b6000600c54905090565b7f000000000000000000000000000000000000000000000000000000000000000081565b61127f6112796127ba565b8361287b565b6112be576040517f08c379a00000000000000000000000000000000000000000000000000000000081526004016112b590614637565b60405180910390fd5b80600b6001846112ce919061450c565b815481106112df576112de614540565b5b906000526020600020906004020160030181905550600081121561132757600d600061130b9190613463565b81600c8190555061012c42611320919061456f565b600e819055505b5050565b61134683838360405180602001604052806000815250611e07565b505050565b600d818154811061135b57600080fd5b90600052602060002090600202016000915090508060000154908060010160009054906101000a900473ffffffffffffffffffffffffffffffffffffffff16905082565b600f81815481106113af57600080fd5b90600052602060002090600202016000915090508060000180546113d2906142f5565b80601f01602080910402602001604051908101604052809291908181526020018280546113fe906142f5565b801561144b5780601f106114205761010080835404028352916020019161144b565b820191906000526020600020905b81548152906001019060200180831161142e57829003601f168201915b5050505050908060010160009054906101000a900473ffffffffffffffffffffffffffffffffffffffff16905082565b6000806004600084815260200190815260200160002060009054906101000a900473ffffffffffffffffffffffffffffffffffffffff169050600073ffffffffffffffffffffffffffffffffffffffff168173ffffffffffffffffffffffffffffffffffffffff161415611524576040517f08c379a000000000000000000000000000000000000000000000000000000000815260040161151b90614783565b60405180910390fd5b80915050919050565b60008073ffffffffffffffffffffffffffffffffffffffff168273ffffffffffffffffffffffffffffffffffffffff16141561159e576040517f08c379a000000000000000000000000000000000000000000000000000000000815260040161159590614815565b60405180910390fd5b600560008373ffffffffffffffffffffffffffffffffffffffff1673ffffffffffffffffffffffffffffffffffffffff168152602001908152602001600020549050919050565b600080600c54116115f557600080fd5b600e54421161160357600080fd5b6000600d805490501415611622576000600c81905550600090506119b4565b6000600d6001600d80549050611638919061450c565b8154811061164957611648614540565b5b9060005260206000209060020201604051806040016040529081600082015481526020016001820160009054906101000a900473ffffffffffffffffffffffffffffffffffffffff1673ffffffffffffffffffffffffffffffffffffffff1673ffffffffffffffffffffffffffffffffffffffff16815250509050806020015173ffffffffffffffffffffffffffffffffffffffff163373ffffffffffffffffffffffffffffffffffffffff161461170057600080fd5b806000015134101561171157600080fd5b6000600b6001600c54611724919061450c565b8154811061173557611734614540565b5b906000526020600020906004020160405180608001604052908160008201805461175e906142f5565b80601f016020809104026020016040519081016040528092919081815260200182805461178a906142f5565b80156117d75780601f106117ac576101008083540402835291602001916117d7565b820191906000526020600020905b8154815290600101906020018083116117ba57829003601f168201915b505050505081526020016001820160009054906101000a900473ffffffffffffffffffffffffffffffffffffffff1673ffffffffffffffffffffffffffffffffffffffff1673ffffffffffffffffffffffffffffffffffffffff1681526020016002820160009054906101000a900473ffffffffffffffffffffffffffffffffffffffff1673ffffffffffffffffffffffffffffffffffffffff1673ffffffffffffffffffffffffffffffffffffffff16815260200160038201548152505090506118a9816020015133600c54612959565b6000816020015190508073ffffffffffffffffffffffffffffffffffffffff166108fc349081150290604051600060405180830381858888f193505050501580156118f8573d6000803e3d6000fd5b5033600b6001600c5461190b919061450c565b8154811061191c5761191b614540565b5b906000526020600020906004020160010160006101000a81548173ffffffffffffffffffffffffffffffffffffffff021916908373ffffffffffffffffffffffffffffffffffffffff1602179055506000600b6001600c5461197e919061450c565b8154811061198f5761198e614540565b5b9060005260206000209060040201600301819055506000600c81905550600193505050505b90565b6060600380546119c6906142f5565b80601f01602080910402602001604051908101604052809291908181526020018280546119f2906142f5565b8015611a3f5780601f10611a1457610100808354040283529160200191611a3f565b820191906000526020600020905b815481529060010190602001808311611a2257829003601f168201915b5050505050905090565b6060600b805480602002602001604051908101604052809291908181526020016000905b82821015611be75783829060005260206000209060040201604051806080016040529081600082018054611aa0906142f5565b80601f0160208091040260200160405190810160405280929190818152602001828054611acc906142f5565b8015611b195780601f10611aee57610100808354040283529160200191611b19565b820191906000526020600020905b815481529060010190602001808311611afc57829003601f168201915b505050505081526020016001820160009054906101000a900473ffffffffffffffffffffffffffffffffffffffff1673ffffffffffffffffffffffffffffffffffffffff1673ffffffffffffffffffffffffffffffffffffffff1681526020016002820160009054906101000a900473ffffffffffffffffffffffffffffffffffffffff1673ffffffffffffffffffffffffffffffffffffffff1673ffffffffffffffffffffffffffffffffffffffff16815260200160038201548152505081526020019060010190611a6d565b50505050905090565b6000600a549050600954811115611c0657600080fd5b600073ffffffffffffffffffffffffffffffffffffffff16600b600184611c2d919061450c565b81548110611c3e57611c3d614540565b5b906000526020600020906004020160010160009054906101000a900473ffffffffffffffffffffffffffffffffffffffff1673ffffffffffffffffffffffffffffffffffffffff1614611c9057600080fd5b600854341015611c9f57600080fd5b33600b600184611caf919061450c565b81548110611cc057611cbf614540565b5b906000526020600020906004020160010160006101000a81548173ffffffffffffffffffffffffffffffffffffffff021916908373ffffffffffffffffffffffffffffffffffffffff1602179055506001600a54611d1e919061456f565b600a81905550611d2e3383612bca565b5050565b611d44611d3d6127ba565b8383612be8565b5050565b6060600d805480602002602001604051908101604052809291908181526020016000905b82821015611dfe5783829060005260206000209060020201604051806040016040529081600082015481526020016001820160009054906101000a900473ffffffffffffffffffffffffffffffffffffffff1673ffffffffffffffffffffffffffffffffffffffff1673ffffffffffffffffffffffffffffffffffffffff168152505081526020019060010190611d6c565b50505050905090565b611e18611e126127ba565b8361287b565b611e57576040517f08c379a0000000000000000000000000000000000000000000000000000000008152600401611e4e90614637565b60405180910390fd5b82600b600184611e67919061450c565b81548110611e7857611e77614540565b5b906000526020600020906004020160010160006101000a81548173ffffffffffffffffffffffffffffffffffffffff021916908373ffffffffffffffffffffffffffffffffffffffff160217905550611ed384848484612d55565b50505050565b600b8181548110611ee957600080fd5b9060005260206000209060040201600091509050806000018054611f0c906142f5565b80601f0160208091040260200160405190810160405280929190818152602001828054611f38906142f5565b8015611f855780601f10611f5a57610100808354040283529160200191611f85565b820191906000526020600020905b815481529060010190602001808311611f6857829003601f168201915b5050505050908060010160009054906101000a900473ffffffffffffffffffffffffffffffffffffffff16908060020160009054906101000a900473ffffffffffffffffffffffffffffffffffffffff16908060030154905084565b6060611fec8261274e565b61202b576040517f08c379a0000000000000000000000000000000000000000000000000000000008152600401612022906148a7565b60405180910390fd5b6000612035612db1565b905060008151116120555760405180602001604052806000815250612080565b8061205f84612dd1565b604051602001612070929190614903565b6040516020818303038152906040525b915050919050565b6060600f805480602002602001604051908101604052809291908181526020016000905b828210156121c657838290600052602060002090600202016040518060400160405290816000820180546120df906142f5565b80601f016020809104026020016040519081016040528092919081815260200182805461210b906142f5565b80156121585780601f1061212d57610100808354040283529160200191612158565b820191906000526020600020905b81548152906001019060200180831161213b57829003601f168201915b505050505081526020016001820160009054906101000a900473ffffffffffffffffffffffffffffffffffffffff1673ffffffffffffffffffffffffffffffffffffffff1673ffffffffffffffffffffffffffffffffffffffff1681525050815260200190600101906120ac565b50505050905090565b8173ffffffffffffffffffffffffffffffffffffffff163373ffffffffffffffffffffffffffffffffffffffff16148061225457507f000000000000000000000000000000000000000000000000000000000000000073ffffffffffffffffffffffffffffffffffffffff163373ffffffffffffffffffffffffffffffffffffffff16145b612293576040517f08c379a000000000000000000000000000000000000000000000000000000000815260040161228a90614973565b60405180910390fd5b6000805b600f80549050811015612373578373ffffffffffffffffffffffffffffffffffffffff16600f82815481106122cf576122ce614540565b5b906000526020600020906002020160010160009054906101000a900473ffffffffffffffffffffffffffffffffffffffff1673ffffffffffffffffffffffffffffffffffffffff1614156123605782600f828154811061233257612331614540565b5b90600052602060002090600202016000019080519060200190612356929190613487565b5060019150612373565b808061236b90614993565b915050612297565b508061243657600f60405180604001604052808481526020018573ffffffffffffffffffffffffffffffffffffffff16815250908060018154018082558091505060019003906000526020600020906002020160009091909190915060008201518160000190805190602001906123eb929190613487565b5060208201518160010160006101000a81548173ffffffffffffffffffffffffffffffffffffffff021916908373ffffffffffffffffffffffffffffffffffffffff16021790555050505b505050565b60095481565b6000600760008473ffffffffffffffffffffffffffffffffffffffff1673ffffffffffffffffffffffffffffffffffffffff16815260200190815260200160002060008373ffffffffffffffffffffffffffffffffffffffff1673ffffffffffffffffffffffffffffffffffffffff16815260200190815260200160002060009054906101000a900460ff16905092915050565b6000600e54905090565b7f000000000000000000000000000000000000000000000000000000000000000073ffffffffffffffffffffffffffffffffffffffff163373ffffffffffffffffffffffffffffffffffffffff161461253757600080fd5b600b6040518060800160405280858152602001600073ffffffffffffffffffffffffffffffffffffffff1681526020018473ffffffffffffffffffffffffffffffffffffffff16815260200183815250908060018154018082558091505060019003906000526020600020906004020160009091909190915060008201518160000190805190602001906125cc929190613487565b5060208201518160010160006101000a81548173ffffffffffffffffffffffffffffffffffffffff021916908373ffffffffffffffffffffffffffffffffffffffff16021790555060408201518160020160006101000a81548173ffffffffffffffffffffffffffffffffffffffff021916908373ffffffffffffffffffffffffffffffffffffffff160217905550606082015181600301555050505050565b60007f80ac58cd000000000000000000000000000000000000000000000000000000007bffffffffffffffffffffffffffffffffffffffffffffffffffffffff1916827bffffffffffffffffffffffffffffffffffffffffffffffffffffffff1916148061273757507f5b5e139f000000000000000000000000000000000000000000000000000000007bffffffffffffffffffffffffffffffffffffffffffffffffffffffff1916827bffffffffffffffffffffffffffffffffffffffffffffffffffffffff1916145b80612747575061274682612f32565b5b9050919050565b60008073ffffffffffffffffffffffffffffffffffffffff166004600084815260200190815260200160002060009054906101000a900473ffffffffffffffffffffffffffffffffffffffff1673ffffffffffffffffffffffffffffffffffffffff1614159050919050565b600033905090565b816006600083815260200190815260200160002060006101000a81548173ffffffffffffffffffffffffffffffffffffffff021916908373ffffffffffffffffffffffffffffffffffffffff160217905550808273ffffffffffffffffffffffffffffffffffffffff166128358361147b565b73ffffffffffffffffffffffffffffffffffffffff167f8c5be1e5ebec7d5bd14f71427d1e84f3dd0314c0f7b2291e5b200ac8c7c3b92560405160405180910390a45050565b60006128868261274e565b6128c5576040517f08c379a00000000000000000000000000000000000000000000000000000000081526004016128bc90614a4e565b60405180910390fd5b60006128d08361147b565b90508073ffffffffffffffffffffffffffffffffffffffff168473ffffffffffffffffffffffffffffffffffffffff16148061293f57508373ffffffffffffffffffffffffffffffffffffffff16612927846108e7565b73ffffffffffffffffffffffffffffffffffffffff16145b80612950575061294f8185612441565b5b91505092915050565b8273ffffffffffffffffffffffffffffffffffffffff166129798261147b565b73ffffffffffffffffffffffffffffffffffffffff16146129cf576040517f08c379a00000000000000000000000000000000000000000000000000000000081526004016129c690614ae0565b60405180910390fd5b600073ffffffffffffffffffffffffffffffffffffffff168273ffffffffffffffffffffffffffffffffffffffff161415612a3f576040517f08c379a0000000000000000000000000000000000000000000000000000000008152600401612a3690614b72565b60405180910390fd5b612a4a838383612fac565b612a556000826127c2565b6001600560008573ffffffffffffffffffffffffffffffffffffffff1673ffffffffffffffffffffffffffffffffffffffff1681526020019081526020016000206000828254612aa5919061450c565b925050819055506001600560008473ffffffffffffffffffffffffffffffffffffffff1673ffffffffffffffffffffffffffffffffffffffff1681526020019081526020016000206000828254612afc919061456f565b92505081905550816004600083815260200190815260200160002060006101000a81548173ffffffffffffffffffffffffffffffffffffffff021916908373ffffffffffffffffffffffffffffffffffffffff160217905550808273ffffffffffffffffffffffffffffffffffffffff168473ffffffffffffffffffffffffffffffffffffffff167fddf252ad1be2c89b69c2b068fc378daa952ba7f163c4a11628f55a4df523b3ef60405160405180910390a4612bbb838383612fb1565b505050565b6000612710905090565b612be4828260405180602001604052806000815250612fb6565b5050565b8173ffffffffffffffffffffffffffffffffffffffff168373ffffffffffffffffffffffffffffffffffffffff161415612c57576040517f08c379a0000000000000000000000000000000000000000000000000000000008152600401612c4e90614bde565b60405180910390fd5b80600760008573ffffffffffffffffffffffffffffffffffffffff1673ffffffffffffffffffffffffffffffffffffffff16815260200190815260200160002060008473ffffffffffffffffffffffffffffffffffffffff1673ffffffffffffffffffffffffffffffffffffffff16815260200190815260200160002060006101000a81548160ff0219169083151502179055508173ffffffffffffffffffffffffffffffffffffffff168373ffffffffffffffffffffffffffffffffffffffff167f17307eab39ab6107e8899845ad3d59bd9653f200f220920489ca2b5937696c3183604051612d489190613624565b60405180910390a3505050565b612d60848484612959565b612d6c84848484613011565b612dab576040517f08c379a0000000000000000000000000000000000000000000000000000000008152600401612da290614c70565b60405180910390fd5b50505050565b6060604051806060016040528060368152602001614e7d60369139905090565b60606000821415612e19576040518060400160405280600181526020017f30000000000000000000000000000000000000000000000000000000000000008152509050612f2d565b600082905060005b60008214612e4b578080612e3490614993565b915050600a82612e4491906146e0565b9150612e21565b60008167ffffffffffffffff811115612e6757612e66613df0565b5b6040519080825280601f01601f191660200182016040528015612e995781602001600182028036833780820191505090505b5090505b60008514612f2657600182612eb2919061450c565b9150600a85612ec19190614c90565b6030612ecd919061456f565b60f81b818381518110612ee357612ee2614540565b5b60200101907effffffffffffffffffffffffffffffffffffffffffffffffffffffffffffff1916908160001a905350600a85612f1f91906146e0565b9450612e9d565b8093505050505b919050565b60007f2a55205a000000000000000000000000000000000000000000000000000000007bffffffffffffffffffffffffffffffffffffffffffffffffffffffff1916827bffffffffffffffffffffffffffffffffffffffffffffffffffffffff19161480612fa55750612fa4826131a8565b5b9050919050565b505050565b505050565b612fc08383613212565b612fcd6000848484613011565b61300c576040517f08c379a000000000000000000000000000000000000000000000000000000000815260040161300390614c70565b60405180910390fd5b505050565b60006130328473ffffffffffffffffffffffffffffffffffffffff166133ec565b1561319b578373ffffffffffffffffffffffffffffffffffffffff1663150b7a0261305b6127ba565b8786866040518563ffffffff1660e01b815260040161307d9493929190614d16565b602060405180830381600087803b15801561309757600080fd5b505af19250505080156130c857506040513d601f19601f820116820180604052508101906130c59190614d77565b60015b61314b573d80600081146130f8576040519150601f19603f3d011682016040523d82523d6000602084013e6130fd565b606091505b50600081511415613143576040517f08c379a000000000000000000000000000000000000000000000000000000000815260040161313a90614c70565b60405180910390fd5b805181602001fd5b63150b7a0260e01b7bffffffffffffffffffffffffffffffffffffffffffffffffffffffff1916817bffffffffffffffffffffffffffffffffffffffffffffffffffffffff1916149150506131a0565b600190505b949350505050565b60007f01ffc9a7000000000000000000000000000000000000000000000000000000007bffffffffffffffffffffffffffffffffffffffffffffffffffffffff1916827bffffffffffffffffffffffffffffffffffffffffffffffffffffffff1916149050919050565b600073ffffffffffffffffffffffffffffffffffffffff168273ffffffffffffffffffffffffffffffffffffffff161415613282576040517f08c379a000000000000000000000000000000000000000000000000000000000815260040161327990614df0565b60405180910390fd5b61328b8161274e565b156132cb576040517f08c379a00000000000000000000000000000000000000000000000000000000081526004016132c290614e5c565b60405180910390fd5b6132d760008383612fac565b6001600560008473ffffffffffffffffffffffffffffffffffffffff1673ffffffffffffffffffffffffffffffffffffffff1681526020019081526020016000206000828254613327919061456f565b92505081905550816004600083815260200190815260200160002060006101000a81548173ffffffffffffffffffffffffffffffffffffffff021916908373ffffffffffffffffffffffffffffffffffffffff160217905550808273ffffffffffffffffffffffffffffffffffffffff16600073ffffffffffffffffffffffffffffffffffffffff167fddf252ad1be2c89b69c2b068fc378daa952ba7f163c4a11628f55a4df523b3ef60405160405180910390a46133e860008383612fb1565b5050565b6000808273ffffffffffffffffffffffffffffffffffffffff163b119050919050565b604051806080016040528060608152602001600073ffffffffffffffffffffffffffffffffffffffff168152602001600073ffffffffffffffffffffffffffffffffffffffff168152602001600081525090565b5080546000825560020290600052602060002090810190613484919061350d565b50565b828054613493906142f5565b90600052602060002090601f0160209004810192826134b557600085556134fc565b82601f106134ce57805160ff19168380011785556134fc565b828001600101855582156134fc579182015b828111156134fb5782518255916020019190600101906134e0565b5b5090506135099190613553565b5090565b5b8082111561354f576000808201600090556001820160006101000a81549073ffffffffffffffffffffffffffffffffffffffff02191690555060020161350e565b5090565b5b8082111561356c576000816000905550600101613554565b5090565b6000604051905090565b600080fd5b600080fd5b60007fffffffff0000000000000000000000000000000000000000000000000000000082169050919050565b6135b981613584565b81146135c457600080fd5b50565b6000813590506135d6816135b0565b92915050565b6000602082840312156135f2576135f161357a565b5b6000613600848285016135c7565b91505092915050565b60008115159050919050565b61361e81613609565b82525050565b60006020820190506136396000830184613615565b92915050565b600081519050919050565b600082825260208201905092915050565b60005b8381101561367957808201518184015260208101905061365e565b83811115613688576000848401525b50505050565b6000601f19601f8301169050919050565b60006136aa8261363f565b6136b4818561364a565b93506136c481856020860161365b565b6136cd8161368e565b840191505092915050565b600060208201905081810360008301526136f2818461369f565b905092915050565b6000819050919050565b61370d816136fa565b811461371857600080fd5b50565b60008135905061372a81613704565b92915050565b6000602082840312156137465761374561357a565b5b60006137548482850161371b565b91505092915050565b600073ffffffffffffffffffffffffffffffffffffffff82169050919050565b60006137888261375d565b9050919050565b6137988161377d565b82525050565b60006020820190506137b3600083018461378f565b92915050565b6137c28161377d565b81146137cd57600080fd5b50565b6000813590506137df816137b9565b92915050565b600080604083850312156137fc576137fb61357a565b5b600061380a858286016137d0565b925050602061381b8582860161371b565b9150509250929050565b61382e816136fa565b82525050565b60006020820190506138496000830184613825565b92915050565b600082825260208201905092915050565b600061386b8261363f565b613875818561384f565b935061388581856020860161365b565b61388e8161368e565b840191505092915050565b6138a28161377d565b82525050565b6000819050919050565b6138bb816138a8565b82525050565b600060808301600083015184820360008601526138de8282613860565b91505060208301516138f36020860182613899565b5060408301516139066040860182613899565b50606083015161391960608601826138b2565b508091505092915050565b6000602082019050818103600083015261393e81846138c1565b905092915050565b60008060006060848603121561395f5761395e61357a565b5b600061396d868287016137d0565b935050602061397e868287016137d0565b925050604061398f8682870161371b565b9150509250925092565b600080604083850312156139b0576139af61357a565b5b60006139be8582860161371b565b92505060206139cf8582860161371b565b9150509250929050565b60006040820190506139ee600083018561378f565b6139fb6020830184613825565b9392505050565b613a0b816138a8565b8114613a1657600080fd5b50565b600081359050613a2881613a02565b92915050565b60008060408385031215613a4557613a4461357a565b5b6000613a538582860161371b565b9250506020613a6485828601613a19565b9150509250929050565b6000613a798261375d565b9050919050565b613a8981613a6e565b82525050565b6000604082019050613aa46000830185613825565b613ab16020830184613a80565b9392505050565b60006040820190508181036000830152613ad2818561369f565b9050613ae1602083018461378f565b9392505050565b600060208284031215613afe57613afd61357a565b5b6000613b0c848285016137d0565b91505092915050565b600081519050919050565b600082825260208201905092915050565b6000819050602082019050919050565b60006080830160008301518482036000860152613b5e8282613860565b9150506020830151613b736020860182613899565b506040830151613b866040860182613899565b506060830151613b9960608601826138b2565b508091505092915050565b6000613bb08383613b41565b905092915050565b6000602082019050919050565b6000613bd082613b15565b613bda8185613b20565b935083602082028501613bec85613b31565b8060005b85811015613c285784840389528151613c098582613ba4565b9450613c1483613bb8565b925060208a01995050600181019050613bf0565b50829750879550505050505092915050565b60006020820190508181036000830152613c548184613bc5565b905092915050565b613c6581613609565b8114613c7057600080fd5b50565b600081359050613c8281613c5c565b92915050565b60008060408385031215613c9f57613c9e61357a565b5b6000613cad858286016137d0565b9250506020613cbe85828601613c73565b9150509250929050565b600081519050919050565b600082825260208201905092915050565b6000819050602082019050919050565b613cfd816136fa565b82525050565b613d0c81613a6e565b82525050565b604082016000820151613d286000850182613cf4565b506020820151613d3b6020850182613d03565b50505050565b6000613d4d8383613d12565b60408301905092915050565b6000602082019050919050565b6000613d7182613cc8565b613d7b8185613cd3565b9350613d8683613ce4565b8060005b83811015613db7578151613d9e8882613d41565b9750613da983613d59565b925050600181019050613d8a565b5085935050505092915050565b60006020820190508181036000830152613dde8184613d66565b905092915050565b600080fd5b600080fd5b7f4e487b7100000000000000000000000000000000000000000000000000000000600052604160045260246000fd5b613e288261368e565b810181811067ffffffffffffffff82111715613e4757613e46613df0565b5b80604052505050565b6000613e5a613570565b9050613e668282613e1f565b919050565b600067ffffffffffffffff821115613e8657613e85613df0565b5b613e8f8261368e565b9050602081019050919050565b82818337600083830152505050565b6000613ebe613eb984613e6b565b613e50565b905082815260208101848484011115613eda57613ed9613deb565b5b613ee5848285613e9c565b509392505050565b600082601f830112613f0257613f01613de6565b5b8135613f12848260208601613eab565b91505092915050565b60008060008060808587031215613f3557613f3461357a565b5b6000613f43878288016137d0565b9450506020613f54878288016137d0565b9350506040613f658782880161371b565b925050606085013567ffffffffffffffff811115613f8657613f8561357f565b5b613f9287828801613eed565b91505092959194509250565b613fa7816138a8565b82525050565b60006080820190508181036000830152613fc7818761369f565b9050613fd6602083018661378f565b613fe3604083018561378f565b613ff06060830184613f9e565b95945050505050565b600081519050919050565b600082825260208201905092915050565b6000819050602082019050919050565b600060408301600083015184820360008601526140428282613860565b91505060208301516140576020860182613899565b508091505092915050565b600061406e8383614025565b905092915050565b6000602082019050919050565b600061408e82613ff9565b6140988185614004565b9350836020820285016140aa85614015565b8060005b858110156140e657848403895281516140c78582614062565b94506140d283614076565b925060208a019950506001810190506140ae565b50829750879550505050505092915050565b600060208201905081810360008301526141128184614083565b905092915050565b600067ffffffffffffffff82111561413557614134613df0565b5b61413e8261368e565b9050602081019050919050565b600061415e6141598461411a565b613e50565b90508281526020810184848401111561417a57614179613deb565b5b614185848285613e9c565b509392505050565b600082601f8301126141a2576141a1613de6565b5b81356141b284826020860161414b565b91505092915050565b600080604083850312156141d2576141d161357a565b5b60006141e0858286016137d0565b925050602083013567ffffffffffffffff8111156142015761420061357f565b5b61420d8582860161418d565b9150509250929050565b6000806040838503121561422e5761422d61357a565b5b600061423c858286016137d0565b925050602061424d858286016137d0565b9150509250929050565b6000806000606084860312156142705761426f61357a565b5b600084013567ffffffffffffffff81111561428e5761428d61357f565b5b61429a8682870161418d565b93505060206142ab868287016137d0565b92505060406142bc86828701613a19565b9150509250925092565b7f4e487b7100000000000000000000000000000000000000000000000000000000600052602260045260246000fd5b6000600282049050600182168061430d57607f821691505b60208210811415614321576143206142c6565b5b50919050565b7f4552433732313a20617070726f76656420717565727920666f72206e6f6e657860008201527f697374656e7420746f6b656e0000000000000000000000000000000000000000602082015250565b6000614383602c8361364a565b915061438e82614327565b604082019050919050565b600060208201905081810360008301526143b281614376565b9050919050565b7f4552433732313a20617070726f76616c20746f2063757272656e74206f776e6560008201527f7200000000000000000000000000000000000000000000000000000000000000602082015250565b600061441560218361364a565b9150614420826143b9565b604082019050919050565b6000602082019050818103600083015261444481614408565b9050919050565b7f4552433732313a20617070726f76652063616c6c6572206973206e6f74206f7760008201527f6e6572206e6f7220617070726f76656420666f7220616c6c0000000000000000602082015250565b60006144a760388361364a565b91506144b28261444b565b604082019050919050565b600060208201905081810360008301526144d68161449a565b9050919050565b7f4e487b7100000000000000000000000000000000000000000000000000000000600052601160045260246000fd5b6000614517826136fa565b9150614522836136fa565b925082821015614535576145346144dd565b5b828203905092915050565b7f4e487b7100000000000000000000000000000000000000000000000000000000600052603260045260246000fd5b600061457a826136fa565b9150614585836136fa565b9250827fffffffffffffffffffffffffffffffffffffffffffffffffffffffffffffffff038211156145ba576145b96144dd565b5b828201905092915050565b7f4552433732313a207472616e736665722063616c6c6572206973206e6f74206f60008201527f776e6572206e6f7220617070726f766564000000000000000000000000000000602082015250565b600061462160318361364a565b915061462c826145c5565b604082019050919050565b6000602082019050818103600083015261465081614614565b9050919050565b6000614662826136fa565b915061466d836136fa565b9250817fffffffffffffffffffffffffffffffffffffffffffffffffffffffffffffffff04831182151516156146a6576146a56144dd565b5b828202905092915050565b7f4e487b7100000000000000000000000000000000000000000000000000000000600052601260045260246000fd5b60006146eb826136fa565b91506146f6836136fa565b925082614706576147056146b1565b5b828204905092915050565b7f4552433732313a206f776e657220717565727920666f72206e6f6e657869737460008201527f656e7420746f6b656e0000000000000000000000000000000000000000000000602082015250565b600061476d60298361364a565b915061477882614711565b604082019050919050565b6000602082019050818103600083015261479c81614760565b9050919050565b7f4552433732313a2062616c616e636520717565727920666f7220746865207a6560008201527f726f206164647265737300000000000000000000000000000000000000000000602082015250565b60006147ff602a8361364a565b915061480a826147a3565b604082019050919050565b6000602082019050818103600083015261482e816147f2565b9050919050565b7f4552433732314d657461646174613a2055524920717565727920666f72206e6f60008201527f6e6578697374656e7420746f6b656e0000000000000000000000000000000000602082015250565b6000614891602f8361364a565b915061489c82614835565b604082019050919050565b600060208201905081810360008301526148c081614884565b9050919050565b600081905092915050565b60006148dd8261363f565b6148e781856148c7565b93506148f781856020860161365b565b80840191505092915050565b600061490f82856148d2565b915061491b82846148d2565b91508190509392505050565b7f5065726d697373696f6e2064656e696564000000000000000000000000000000600082015250565b600061495d60118361364a565b915061496882614927565b602082019050919050565b6000602082019050818103600083015261498c81614950565b9050919050565b600061499e826136fa565b91507fffffffffffffffffffffffffffffffffffffffffffffffffffffffffffffffff8214156149d1576149d06144dd565b5b600182019050919050565b7f4552433732313a206f70657261746f7220717565727920666f72206e6f6e657860008201527f697374656e7420746f6b656e0000000000000000000000000000000000000000602082015250565b6000614a38602c8361364a565b9150614a43826149dc565b604082019050919050565b60006020820190508181036000830152614a6781614a2b565b9050919050565b7f4552433732313a207472616e736665722066726f6d20696e636f72726563742060008201527f6f776e6572000000000000000000000000000000000000000000000000000000602082015250565b6000614aca60258361364a565b9150614ad582614a6e565b604082019050919050565b60006020820190508181036000830152614af981614abd565b9050919050565b7f4552433732313a207472616e7366657220746f20746865207a65726f2061646460008201527f7265737300000000000000000000000000000000000000000000000000000000602082015250565b6000614b5c60248361364a565b9150614b6782614b00565b604082019050919050565b60006020820190508181036000830152614b8b81614b4f565b9050919050565b7f4552433732313a20617070726f766520746f2063616c6c657200000000000000600082015250565b6000614bc860198361364a565b9150614bd382614b92565b602082019050919050565b60006020820190508181036000830152614bf781614bbb565b9050919050565b7f4552433732313a207472616e7366657220746f206e6f6e20455243373231526560008201527f63656976657220696d706c656d656e7465720000000000000000000000000000602082015250565b6000614c5a60328361364a565b9150614c6582614bfe565b604082019050919050565b60006020820190508181036000830152614c8981614c4d565b9050919050565b6000614c9b826136fa565b9150614ca6836136fa565b925082614cb657614cb56146b1565b5b828206905092915050565b600081519050919050565b600082825260208201905092915050565b6000614ce882614cc1565b614cf28185614ccc565b9350614d0281856020860161365b565b614d0b8161368e565b840191505092915050565b6000608082019050614d2b600083018761378f565b614d38602083018661378f565b614d456040830185613825565b8181036060830152614d578184614cdd565b905095945050505050565b600081519050614d71816135b0565b92915050565b600060208284031215614d8d57614d8c61357a565b5b6000614d9b84828501614d62565b91505092915050565b7f4552433732313a206d696e7420746f20746865207a65726f2061646472657373600082015250565b6000614dda60208361364a565b9150614de582614da4565b602082019050919050565b60006020820190508181036000830152614e0981614dcd565b9050919050565b7f4552433732313a20746f6b656e20616c7265616479206d696e74656400000000600082015250565b6000614e46601c8361364a565b9150614e5182614e10565b602082019050919050565b60006020820190508181036000830152614e7581614e39565b905091905056fe697066733a2f2f516d5a597865564c635853334e6d4d6b4a585a4c583838476d5963313966714e71434c53425a58444d76617a57672fa2646970667358221220bd875b0de6e89fb9a1f45ad42b09c3f2f4c208fa2519356532ce5c5ce615fca064736f6c63430008090033",
  "immutableReferences": {
    "3172": [
      {
        "length": 32,
        "start": 4684
      },
      {
        "length": 32,
        "start": 8710
      },
      {
        "length": 32,
        "start": 9441
      }
    ]
  },
  "source": "// SPDX-License-Identifier: MIT\r\npragma solidity ^0.8.0;\r\n\r\nimport \"@openzeppelin/contracts/token/ERC721/ERC721.sol\"; // 1-to-1 NFT\r\nimport \"@openzeppelin/contracts/token/ERC721/extensions/ERC721Royalty.sol\";\r\n\r\ncontract Painting is ERC721Royalty {\r\n    uint256 public cost = 0.001 ether; // mint price, will reject if below\r\n    uint256 public maxSupply = 20;\r\n    uint256 public totalSupply = 0;\r\n    address public immutable contract_owner;\r\n\r\n    struct Paint {\r\n        string name;\r\n        address owner;\r\n        address creator;\r\n        int256 list_price; // -1 means auction, 0 means not listed by owner\r\n    }\r\n    Paint[] public paintings;\r\n\r\n    struct Bid {\r\n        uint256 amount;\r\n        address payable bidder;\r\n    }\r\n    // index of current auction\r\n    uint256 auction_painting_id = 0; // 1-based, 0 meant no auction\r\n    // bids are in ascending amount, i.e. last element is highest\r\n    Bid[] public bids;\r\n    uint auction_expiry_date;\r\n\r\n    struct Name {\r\n        string name;\r\n        address wallet_address;\r\n    }\r\n    Name[] public names;\r\n\r\n    constructor(\r\n        string memory _name,\r\n        string memory _symbol,\r\n        uint256 _cost\r\n    ) ERC721(_name, _symbol) {\r\n        _cost = cost;\r\n        contract_owner = msg.sender; // security to restrict addPainting to only deployer\r\n        address creator = address(0x3A3593B8e169236289Cf8699876A8Af393B02230);\r\n\r\n        _setDefaultRoyalty(creator, 1000); // 10%\r\n\r\n        addPainting(\"Life Is Good\", creator, 0);\r\n        addPainting(\"Adventures Await\", creator, 0);\r\n        addPainting(\"Journey On\", creator, 0);\r\n        addPainting(\"Speed Up\", creator, 0);\r\n        addPainting(\r\n            \"Fast Train\",\r\n            address(0x73382d70c64b527a7652Eb21C48bfc1eD2B6E0b6),\r\n            0\r\n        );\r\n\r\n        addPainting(\"Maximum Throttle\", creator, 0);\r\n        addPainting(\"MBS\", creator, 0);\r\n        addPainting(\"Peekaboo\", creator, 0);\r\n        addPainting(\"Golden Moments\", creator, 0);\r\n        addPainting(\"Sunset\", creator, 0);\r\n\r\n        addPainting(\"Blossoms\", creator, 0);\r\n        addPainting(\r\n            \"Darkness\",\r\n            address(0x3A3593B8e169236289Cf8699876A8Af393B02230),\r\n            0\r\n        );\r\n        addPainting(\"Bright\", creator, 0);\r\n        addPainting(\"Rainbow Tree\", creator, 0);\r\n        addPainting(\"Relax\", creator, 0);\r\n\r\n        addName(address(0x3A3593B8e169236289Cf8699876A8Af393B02230), \"Van GRA\");\r\n        addName(address(0x73382d70c64b527a7652Eb21C48bfc1eD2B6E0b6), \"lenovo\");\r\n        addName(address(0x21586e20921f2d6C068830C9460c728c9a3411a2), \"sm\");\r\n        addName(address(0xCAAE7Ee609621f5B64d7553fdee4696B2a4Eb56F), \"CC\");\r\n        addName(address(0xeC79fC264b134eA21161D7e1487676b8D26B6AE8), \"Homely\");\r\n        /*\r\n        paintings[0].owner=address(0xB793eca1c417B001fa2b82cc35f8488124C54F0e);\r\n        paintings[0].list_price=-1; \r\n        auction_painting_id=1;\r\n        auction_expiry_date=block.timestamp+30 minutes;\r\n        */\r\n    }\r\n\r\n    function _baseURI() internal pure override returns (string memory) {\r\n        return \"ipfs://QmZYxeVLcXS3NmMkJXZLX88GmYc19fqNqCLSBZXDMvazWg/\";\r\n        //\"https://raw.githubusercontent.com/cragtlab/gra-art/main/src/metadata/\";\r\n    }\r\n\r\n    /* name related */\r\n    function addName(address walletAddress, string memory name) public {\r\n        // self update or contract owner update\r\n        require(\r\n            msg.sender == walletAddress || msg.sender == contract_owner,\r\n            \"Permission denied\"\r\n        );\r\n        bool found = false;\r\n        for (uint256 i = 0; i < names.length; i++) {\r\n            if (names[i].wallet_address == walletAddress) {\r\n                names[i].name = name;\r\n                found = true;\r\n                break;\r\n            }\r\n        }\r\n\r\n        if (!found) {\r\n            names.push(Name(name, walletAddress));\r\n        }\r\n    }\r\n\r\n    function getNames() public view returns (Name[] memory) {\r\n        return names;\r\n    }\r\n\r\n    /* end name related */\r\n\r\n    /* auction related  */\r\n    function addBid(uint256 amount) public {\r\n        require(auction_painting_id > 0); // ongoing auction\r\n        require(auction_expiry_date >= block.timestamp); // not expired\r\n        if (bids.length > 0) {\r\n            require(amount > bids[bids.length - 1].amount);\r\n        }\r\n        if (auction_expiry_date - block.timestamp < 3 minutes) {\r\n            auction_expiry_date = block.timestamp + 3 minutes;\r\n        }\r\n\r\n        bids.push(Bid(amount, payable(msg.sender)));\r\n    }\r\n\r\n    function getAuctionPaintingID() public view returns (uint256) {\r\n        return auction_painting_id;\r\n    }\r\n\r\n    function getAuctionExpiryDate() public view returns (uint) {\r\n        return auction_expiry_date;\r\n    }\r\n\r\n    function getBids() public view returns (Bid[] memory) {\r\n        return bids;\r\n    }\r\n\r\n    // to be trigger by top bidder\r\n    function payAuction() public payable returns (bool) {\r\n        require(auction_painting_id > 0);\r\n        require(block.timestamp > auction_expiry_date); // expired\r\n\r\n        if (bids.length == 0) {\r\n            auction_painting_id = 0;\r\n            return false;\r\n        }\r\n\r\n        Bid memory highestBid = bids[bids.length - 1];\r\n        require(msg.sender == highestBid.bidder);\r\n        require(msg.value >= highestBid.amount);\r\n        // to refactor out since also in buyToken?\r\n        Paint memory auction = paintings[auction_painting_id - 1];\r\n        _transfer(auction.owner, msg.sender, auction_painting_id); // transfer token\r\n        address payable _owner = payable(auction.owner);\r\n        _owner.transfer(msg.value); // pay money to seller\r\n        // somehow painting owner and list price  didn't update when use auction variable instead\r\n        paintings[auction_painting_id - 1].owner = msg.sender; // change ownership after all done. must be after transfer\r\n        paintings[auction_painting_id - 1].list_price = 0;\r\n        auction_painting_id = 0; //reset token\r\n        return true;\r\n    }\r\n\r\n    /* end auction related */\r\n\r\n    function addPainting(\r\n        string memory _name,\r\n        address creator,\r\n        int256 list_price\r\n    ) public {\r\n        require(msg.sender == contract_owner);\r\n        paintings.push(Paint(_name, address(0x0), creator, list_price));\r\n    }\r\n\r\n    function mint(uint256 _id) public payable {\r\n        uint256 supply = totalSupply;\r\n        require(supply <= maxSupply);\r\n        require(paintings[_id - 1].owner == address(0x0));\r\n        require(msg.value >= cost);\r\n\r\n        // NOTE: tokenID always starts from 1, but our array starts from 0\r\n        paintings[_id - 1].owner = msg.sender;\r\n        totalSupply = totalSupply + 1;\r\n        _safeMint(msg.sender, _id);\r\n    }\r\n\r\n    function transferFrom(\r\n        address from,\r\n        address to,\r\n        uint256 tokenId\r\n    ) public override {\r\n        require(\r\n            _isApprovedOrOwner(_msgSender(), tokenId),\r\n            \"ERC721: transfer caller is not owner nor approved\"\r\n        );\r\n\r\n        // Update ownership\r\n        paintings[tokenId - 1].owner = to;\r\n        _transfer(from, to, tokenId);\r\n    }\r\n\r\n    function listToken(uint256 _id, int256 list_price) public {\r\n        require(\r\n            _isApprovedOrOwner(_msgSender(), _id),\r\n            \"ERC721: transfer caller is not owner nor approved\"\r\n        );\r\n        paintings[_id - 1].list_price = list_price;\r\n        if (list_price < 0) {\r\n            // should only allow by contract_owner to prevent abuse or clearing ongoing auction\r\n            delete bids;\r\n            auction_painting_id = _id;\r\n            auction_expiry_date = block.timestamp + 5 minutes;\r\n        }\r\n    }\r\n\r\n    function buyToken(uint256 _id) external payable {\r\n        //require(paintings[_id - 1].owner != address(0x0));\r\n        require(paintings[_id - 1].list_price > 0);\r\n        require(msg.value >= uint256(paintings[_id - 1].list_price)); // convert to uint256 only after confirm > 0\r\n\r\n        _transfer(paintings[_id - 1].owner, msg.sender, _id); // transfer token\r\n        address payable _owner = payable(paintings[_id - 1].owner);\r\n        _owner.transfer(msg.value); // pay money to seller\r\n        paintings[_id - 1].owner = msg.sender; // change ownership after all done. must be after transfer\r\n        paintings[_id - 1].list_price = 0;\r\n    }\r\n\r\n    function safeTransferFrom(\r\n        address from,\r\n        address to,\r\n        uint256 tokenId,\r\n        bytes memory _data\r\n    ) public override {\r\n        require(\r\n            _isApprovedOrOwner(_msgSender(), tokenId),\r\n            \"ERC721: transfer caller is not owner nor approved\"\r\n        );\r\n\r\n        // Update ownership\r\n        paintings[tokenId - 1].owner = to;\r\n        _safeTransfer(from, to, tokenId, _data);\r\n    }\r\n\r\n    // Public View Functions\r\n    function getPaintings() public view returns (Paint[] memory) {\r\n        return paintings;\r\n    }\r\n\r\n    function getPainting(uint256 _id) public view returns (Paint memory) {\r\n        return paintings[_id - 1];\r\n    }\r\n}\r\n",
  "sourcePath": "C:\\Users\\user\\Downloads\\gra-art\\gra-art\\src\\contracts\\Painting.sol",
  "compiler": {
    "name": "solc",
    "version": "0.8.9+commit.e5eed63a.Emscripten.clang"
  },
  "schemaVersion": "3.4.16",
  "updatedAt": "2023-10-18T07:32:14.529Z",
  "networkType": "ethereum",
  "devdoc": {
    "kind": "dev",
    "methods": {
      "approve(address,uint256)": {
        "details": "See {IERC721-approve}."
      },
      "balanceOf(address)": {
        "details": "See {IERC721-balanceOf}."
      },
      "getApproved(uint256)": {
        "details": "See {IERC721-getApproved}."
      },
      "isApprovedForAll(address,address)": {
        "details": "See {IERC721-isApprovedForAll}."
      },
      "name()": {
        "details": "See {IERC721Metadata-name}."
      },
      "ownerOf(uint256)": {
        "details": "See {IERC721-ownerOf}."
      },
      "royaltyInfo(uint256,uint256)": {
        "details": "Returns how much royalty is owed and to whom, based on a sale price that may be denominated in any unit of exchange. The royalty amount is denominated and should be payed in that same unit of exchange."
      },
      "safeTransferFrom(address,address,uint256)": {
        "details": "See {IERC721-safeTransferFrom}."
      },
      "safeTransferFrom(address,address,uint256,bytes)": {
        "details": "See {IERC721-safeTransferFrom}."
      },
      "setApprovalForAll(address,bool)": {
        "details": "See {IERC721-setApprovalForAll}."
      },
      "supportsInterface(bytes4)": {
        "details": "See {IERC165-supportsInterface}."
      },
      "symbol()": {
        "details": "See {IERC721Metadata-symbol}."
      },
      "tokenURI(uint256)": {
        "details": "See {IERC721Metadata-tokenURI}."
      },
      "transferFrom(address,address,uint256)": {
        "details": "See {IERC721-transferFrom}."
      }
    },
    "version": 1
  },
  "userdoc": {
    "kind": "user",
    "methods": {},
    "version": 1
  }
}