{
  "contractName": "Painting",
  "abi": [
    {
      "inputs": [
        {
          "internalType": "string",
          "name": "_name",
          "type": "string"
        },
        {
          "internalType": "string",
          "name": "_symbol",
          "type": "string"
        },
        {
          "internalType": "uint256",
          "name": "_cost",
          "type": "uint256"
        }
      ],
      "stateMutability": "nonpayable",
      "type": "constructor"
    },
    {
      "anonymous": false,
      "inputs": [
        {
          "indexed": true,
          "internalType": "address",
          "name": "owner",
          "type": "address"
        },
        {
          "indexed": true,
          "internalType": "address",
          "name": "approved",
          "type": "address"
        },
        {
          "indexed": true,
          "internalType": "uint256",
          "name": "tokenId",
          "type": "uint256"
        }
      ],
      "name": "Approval",
      "type": "event"
    },
    {
      "anonymous": false,
      "inputs": [
        {
          "indexed": true,
          "internalType": "address",
          "name": "owner",
          "type": "address"
        },
        {
          "indexed": true,
          "internalType": "address",
          "name": "operator",
          "type": "address"
        },
        {
          "indexed": false,
          "internalType": "bool",
          "name": "approved",
          "type": "bool"
        }
      ],
      "name": "ApprovalForAll",
      "type": "event"
    },
    {
      "anonymous": false,
      "inputs": [
        {
          "indexed": true,
          "internalType": "address",
          "name": "from",
          "type": "address"
        },
        {
          "indexed": true,
          "internalType": "address",
          "name": "to",
          "type": "address"
        },
        {
          "indexed": true,
          "internalType": "uint256",
          "name": "tokenId",
          "type": "uint256"
        }
      ],
      "name": "Transfer",
      "type": "event"
    },
    {
      "inputs": [
        {
          "internalType": "address",
          "name": "to",
          "type": "address"
        },
        {
          "internalType": "uint256",
          "name": "tokenId",
          "type": "uint256"
        }
      ],
      "name": "approve",
      "outputs": [],
      "stateMutability": "nonpayable",
      "type": "function"
    },
    {
      "inputs": [
        {
          "internalType": "address",
          "name": "owner",
          "type": "address"
        }
      ],
      "name": "balanceOf",
      "outputs": [
        {
          "internalType": "uint256",
          "name": "",
          "type": "uint256"
        }
      ],
      "stateMutability": "view",
      "type": "function",
      "constant": true
    },
    {
      "inputs": [
        {
          "internalType": "uint256",
          "name": "",
          "type": "uint256"
        }
      ],
      "name": "bids",
      "outputs": [
        {
          "internalType": "uint256",
          "name": "amount",
          "type": "uint256"
        },
        {
          "internalType": "address payable",
          "name": "bidder",
          "type": "address"
        }
      ],
      "stateMutability": "view",
      "type": "function",
      "constant": true
    },
    {
      "inputs": [],
      "name": "contract_owner",
      "outputs": [
        {
          "internalType": "address",
          "name": "",
          "type": "address"
        }
      ],
      "stateMutability": "view",
      "type": "function",
      "constant": true
    },
    {
      "inputs": [],
      "name": "cost",
      "outputs": [
        {
          "internalType": "uint256",
          "name": "",
          "type": "uint256"
        }
      ],
      "stateMutability": "view",
      "type": "function",
      "constant": true
    },
    {
      "inputs": [
        {
          "internalType": "uint256",
          "name": "tokenId",
          "type": "uint256"
        }
      ],
      "name": "getApproved",
      "outputs": [
        {
          "internalType": "address",
          "name": "",
          "type": "address"
        }
      ],
      "stateMutability": "view",
      "type": "function",
      "constant": true
    },
    {
      "inputs": [
        {
          "internalType": "address",
          "name": "owner",
          "type": "address"
        },
        {
          "internalType": "address",
          "name": "operator",
          "type": "address"
        }
      ],
      "name": "isApprovedForAll",
      "outputs": [
        {
          "internalType": "bool",
          "name": "",
          "type": "bool"
        }
      ],
      "stateMutability": "view",
      "type": "function",
      "constant": true
    },
    {
      "inputs": [],
      "name": "maxSupply",
      "outputs": [
        {
          "internalType": "uint256",
          "name": "",
          "type": "uint256"
        }
      ],
      "stateMutability": "view",
      "type": "function",
      "constant": true
    },
    {
      "inputs": [],
      "name": "name",
      "outputs": [
        {
          "internalType": "string",
          "name": "",
          "type": "string"
        }
      ],
      "stateMutability": "view",
      "type": "function",
      "constant": true
    },
    {
      "inputs": [
        {
          "internalType": "uint256",
          "name": "tokenId",
          "type": "uint256"
        }
      ],
      "name": "ownerOf",
      "outputs": [
        {
          "internalType": "address",
          "name": "",
          "type": "address"
        }
      ],
      "stateMutability": "view",
      "type": "function",
      "constant": true
    },
    {
      "inputs": [
        {
          "internalType": "uint256",
          "name": "",
          "type": "uint256"
        }
      ],
      "name": "paintings",
      "outputs": [
        {
          "internalType": "string",
          "name": "name",
          "type": "string"
        },
        {
          "internalType": "address",
          "name": "owner",
          "type": "address"
        },
        {
          "internalType": "address",
          "name": "creator",
          "type": "address"
        },
        {
          "internalType": "int256",
          "name": "list_price",
          "type": "int256"
        }
      ],
      "stateMutability": "view",
      "type": "function",
      "constant": true
    },
    {
      "inputs": [
        {
          "internalType": "address",
          "name": "operator",
          "type": "address"
        },
        {
          "internalType": "bool",
          "name": "approved",
          "type": "bool"
        }
      ],
      "name": "setApprovalForAll",
      "outputs": [],
      "stateMutability": "nonpayable",
      "type": "function"
    },
    {
      "inputs": [
        {
          "internalType": "bytes4",
          "name": "interfaceId",
          "type": "bytes4"
        }
      ],
      "name": "supportsInterface",
      "outputs": [
        {
          "internalType": "bool",
          "name": "",
          "type": "bool"
        }
      ],
      "stateMutability": "view",
      "type": "function",
      "constant": true
    },
    {
      "inputs": [],
      "name": "symbol",
      "outputs": [
        {
          "internalType": "string",
          "name": "",
          "type": "string"
        }
      ],
      "stateMutability": "view",
      "type": "function",
      "constant": true
    },
    {
      "inputs": [
        {
          "internalType": "uint256",
          "name": "tokenId",
          "type": "uint256"
        }
      ],
      "name": "tokenURI",
      "outputs": [
        {
          "internalType": "string",
          "name": "",
          "type": "string"
        }
      ],
      "stateMutability": "view",
      "type": "function",
      "constant": true
    },
    {
      "inputs": [],
      "name": "totalSupply",
      "outputs": [
        {
          "internalType": "uint256",
          "name": "",
          "type": "uint256"
        }
      ],
      "stateMutability": "view",
      "type": "function",
      "constant": true
    },
    {
      "inputs": [
        {
          "internalType": "string",
          "name": "_name",
          "type": "string"
        },
        {
          "internalType": "address",
          "name": "creator",
          "type": "address"
        },
        {
          "internalType": "int256",
          "name": "list_price",
          "type": "int256"
        }
      ],
      "name": "addPainting",
      "outputs": [],
      "stateMutability": "nonpayable",
      "type": "function"
    },
    {
      "inputs": [
        {
          "internalType": "uint256",
          "name": "amount",
          "type": "uint256"
        }
      ],
      "name": "addBid",
      "outputs": [],
      "stateMutability": "nonpayable",
      "type": "function"
    },
    {
      "inputs": [],
      "name": "getAuctionPaintingID",
      "outputs": [
        {
          "internalType": "uint256",
          "name": "",
          "type": "uint256"
        }
      ],
      "stateMutability": "view",
      "type": "function",
      "constant": true
    },
    {
      "inputs": [],
      "name": "getAuctionExpiryDate",
      "outputs": [
        {
          "internalType": "uint256",
          "name": "",
          "type": "uint256"
        }
      ],
      "stateMutability": "view",
      "type": "function",
      "constant": true
    },
    {
      "inputs": [],
      "name": "getBids",
      "outputs": [
        {
          "components": [
            {
              "internalType": "uint256",
              "name": "amount",
              "type": "uint256"
            },
            {
              "internalType": "address payable",
              "name": "bidder",
              "type": "address"
            }
          ],
          "internalType": "struct Painting.Bid[]",
          "name": "",
          "type": "tuple[]"
        }
      ],
      "stateMutability": "view",
      "type": "function",
      "constant": true
    },
    {
      "inputs": [],
      "name": "payAuction",
      "outputs": [
        {
          "internalType": "bool",
          "name": "",
          "type": "bool"
        }
      ],
      "stateMutability": "payable",
      "type": "function",
      "payable": true
    },
    {
      "inputs": [
        {
          "internalType": "uint256",
          "name": "_id",
          "type": "uint256"
        }
      ],
      "name": "mint",
      "outputs": [],
      "stateMutability": "payable",
      "type": "function",
      "payable": true
    },
    {
      "inputs": [
        {
          "internalType": "address",
          "name": "from",
          "type": "address"
        },
        {
          "internalType": "address",
          "name": "to",
          "type": "address"
        },
        {
          "internalType": "uint256",
          "name": "tokenId",
          "type": "uint256"
        }
      ],
      "name": "transferFrom",
      "outputs": [],
      "stateMutability": "nonpayable",
      "type": "function"
    },
    {
      "inputs": [
        {
          "internalType": "uint256",
          "name": "_id",
          "type": "uint256"
        },
        {
          "internalType": "int256",
          "name": "list_price",
          "type": "int256"
        }
      ],
      "name": "listToken",
      "outputs": [],
      "stateMutability": "nonpayable",
      "type": "function"
    },
    {
      "inputs": [
        {
          "internalType": "uint256",
          "name": "_id",
          "type": "uint256"
        }
      ],
      "name": "buyToken",
      "outputs": [],
      "stateMutability": "payable",
      "type": "function",
      "payable": true
    },
    {
      "inputs": [
        {
          "internalType": "address",
          "name": "from",
          "type": "address"
        },
        {
          "internalType": "address",
          "name": "to",
          "type": "address"
        },
        {
          "internalType": "uint256",
          "name": "tokenId",
          "type": "uint256"
        }
      ],
      "name": "safeTransferFrom",
      "outputs": [],
      "stateMutability": "nonpayable",
      "type": "function"
    },
    {
      "inputs": [
        {
          "internalType": "address",
          "name": "from",
          "type": "address"
        },
        {
          "internalType": "address",
          "name": "to",
          "type": "address"
        },
        {
          "internalType": "uint256",
          "name": "tokenId",
          "type": "uint256"
        },
        {
          "internalType": "bytes",
          "name": "_data",
          "type": "bytes"
        }
      ],
      "name": "safeTransferFrom",
      "outputs": [],
      "stateMutability": "nonpayable",
      "type": "function"
    },
    {
      "inputs": [],
      "name": "getPaintings",
      "outputs": [
        {
          "components": [
            {
              "internalType": "string",
              "name": "name",
              "type": "string"
            },
            {
              "internalType": "address",
              "name": "owner",
              "type": "address"
            },
            {
              "internalType": "address",
              "name": "creator",
              "type": "address"
            },
            {
              "internalType": "int256",
              "name": "list_price",
              "type": "int256"
            }
          ],
          "internalType": "struct Painting.Paint[]",
          "name": "",
          "type": "tuple[]"
        }
      ],
      "stateMutability": "view",
      "type": "function",
      "constant": true
    },
    {
      "inputs": [
        {
          "internalType": "uint256",
          "name": "_id",
          "type": "uint256"
        }
      ],
      "name": "getPainting",
      "outputs": [
        {
          "components": [
            {
              "internalType": "string",
              "name": "name",
              "type": "string"
            },
            {
              "internalType": "address",
              "name": "owner",
              "type": "address"
            },
            {
              "internalType": "address",
              "name": "creator",
              "type": "address"
            },
            {
              "internalType": "int256",
              "name": "list_price",
              "type": "int256"
            }
          ],
          "internalType": "struct Painting.Paint",
          "name": "",
          "type": "tuple"
        }
      ],
      "stateMutability": "view",
      "type": "function",
      "constant": true
    }
  ],
  "bytecode": "0x60a060405266038d7ea4c68000600655601460075560006008556000600a553480156200002b57600080fd5b5060405162004b7b38038062004b7b83398181016040528101906200005191906200064a565b828281600090805190602001906200006b929190620003c2565b50806001908051906020019062000084929190620003c2565b50505060065490503373ffffffffffffffffffffffffffffffffffffffff1660808173ffffffffffffffffffffffffffffffffffffffff168152505060007320711d3db1a31e59af1dd70b8b613e048b0544e19050620001226040518060400160405280600c81526020017f4c69666520497320476f6f6400000000000000000000000000000000000000008152508260006200025060201b60201c565b6200016b6040518060400160405280601081526020017f416476656e7475726573204177616974000000000000000000000000000000008152508260006200025060201b60201c565b620001b46040518060400160405280600a81526020017f4a6f75726e6579204f6e000000000000000000000000000000000000000000008152508260006200025060201b60201c565b620001fd6040518060400160405280600881526020017f53706565642055700000000000000000000000000000000000000000000000008152508260006200025060201b60201c565b620002466040518060400160405280600581526020017f4c75636b790000000000000000000000000000000000000000000000000000008152508260006200025060201b60201c565b5050505062000749565b60805173ffffffffffffffffffffffffffffffffffffffff163373ffffffffffffffffffffffffffffffffffffffff16146200028b57600080fd5b60096040518060800160405280858152602001600073ffffffffffffffffffffffffffffffffffffffff1681526020018473ffffffffffffffffffffffffffffffffffffffff168152602001838152509080600181540180825580915050600190039060005260206000209060040201600090919091909150600082015181600001908051906020019062000322929190620003c2565b5060208201518160010160006101000a81548173ffffffffffffffffffffffffffffffffffffffff021916908373ffffffffffffffffffffffffffffffffffffffff16021790555060408201518160020160006101000a81548173ffffffffffffffffffffffffffffffffffffffff021916908373ffffffffffffffffffffffffffffffffffffffff160217905550606082015181600301555050505050565b828054620003d09062000713565b90600052602060002090601f016020900481019282620003f4576000855562000440565b82601f106200040f57805160ff191683800117855562000440565b8280016001018555821562000440579182015b828111156200043f57825182559160200191906001019062000422565b5b5090506200044f919062000453565b5090565b5b808211156200046e57600081600090555060010162000454565b5090565b6000604051905090565b600080fd5b600080fd5b600080fd5b600080fd5b6000601f19601f8301169050919050565b7f4e487b7100000000000000000000000000000000000000000000000000000000600052604160045260246000fd5b620004db8262000490565b810181811067ffffffffffffffff82111715620004fd57620004fc620004a1565b5b80604052505050565b60006200051262000472565b9050620005208282620004d0565b919050565b600067ffffffffffffffff821115620005435762000542620004a1565b5b6200054e8262000490565b9050602081019050919050565b60005b838110156200057b5780820151818401526020810190506200055e565b838111156200058b576000848401525b50505050565b6000620005a8620005a28462000525565b62000506565b905082815260208101848484011115620005c757620005c66200048b565b5b620005d48482856200055b565b509392505050565b600082601f830112620005f457620005f362000486565b5b81516200060684826020860162000591565b91505092915050565b6000819050919050565b62000624816200060f565b81146200063057600080fd5b50565b600081519050620006448162000619565b92915050565b6000806000606084860312156200066657620006656200047c565b5b600084015167ffffffffffffffff81111562000687576200068662000481565b5b6200069586828701620005dc565b935050602084015167ffffffffffffffff811115620006b957620006b862000481565b5b620006c786828701620005dc565b9250506040620006da8682870162000633565b9150509250925092565b7f4e487b7100000000000000000000000000000000000000000000000000000000600052602260045260246000fd5b600060028204905060018216806200072c57607f821691505b60208210811415620007435762000742620006e4565b5b50919050565b60805161440f6200076c600039600081816110350152611e3b015261440f6000f3fe6080604052600436106101cd5760003560e01c80636352211e116100f7578063b81c78ec11610095578063d5abeb0111610064578063d5abeb011461068b578063e985e9c5146106b6578063f41a5750146106f3578063f4299d0d1461071e576101cd565b8063b81c78ec146105ba578063b88d4fde146105e5578063c7ca6daa1461060e578063c87b56dd1461064e576101cd565b806395d89b41116100d157806395d89b411461051f57806399eb59671461054a578063a0712d6814610575578063a22cb46514610591576101cd565b80636352211e1461048757806370a08231146104c457806377c655fa14610501576101cd565b806318160ddd1161016f578063384f58eb1161013e578063384f58eb146103cc5780633fb1a72c146103f757806342842e0e146104205780634423c5f114610449576101cd565b806318160ddd1461033157806323b872dd1461035c5780632d296bf1146103855780632dd9dd15146103a1576101cd565b8063095ea7b3116101ab578063095ea7b31461027757806313faede6146102a0578063145f8ba2146102cb57806314b0e26614610308576101cd565b806301ffc9a7146101d257806306fdde031461020f578063081812fc1461023a575b600080fd5b3480156101de57600080fd5b506101f960048036038101906101f49190612dd0565b610747565b6040516102069190612e18565b60405180910390f35b34801561021b57600080fd5b50610224610829565b6040516102319190612ecc565b60405180910390f35b34801561024657600080fd5b50610261600480360381019061025c9190612f24565b6108bb565b60405161026e9190612f92565b60405180910390f35b34801561028357600080fd5b5061029e60048036038101906102999190612fd9565b610940565b005b3480156102ac57600080fd5b506102b5610a58565b6040516102c29190613028565b60405180910390f35b3480156102d757600080fd5b506102f260048036038101906102ed9190612f24565b610a5e565b6040516102ff9190613118565b60405180910390f35b34801561031457600080fd5b5061032f600480360381019061032a9190612f24565b610bee565b005b34801561033d57600080fd5b50610346610d33565b6040516103539190613028565b60405180910390f35b34801561036857600080fd5b50610383600480360381019061037e919061313a565b610d39565b005b61039f600480360381019061039a9190612f24565b610e09565b005b3480156103ad57600080fd5b506103b6611029565b6040516103c39190613028565b60405180910390f35b3480156103d857600080fd5b506103e1611033565b6040516103ee9190612f92565b60405180910390f35b34801561040357600080fd5b5061041e600480360381019061041991906131b9565b611057565b005b34801561042c57600080fd5b506104476004803603810190610442919061313a565b611114565b005b34801561045557600080fd5b50610470600480360381019061046b9190612f24565b611134565b60405161047e92919061321a565b60405180910390f35b34801561049357600080fd5b506104ae60048036038101906104a99190612f24565b611188565b6040516104bb9190612f92565b60405180910390f35b3480156104d057600080fd5b506104eb60048036038101906104e69190613243565b61123a565b6040516104f89190613028565b60405180910390f35b6105096112f2565b6040516105169190612e18565b60405180910390f35b34801561052b57600080fd5b506105346116c4565b6040516105419190612ecc565b60405180910390f35b34801561055657600080fd5b5061055f611756565b60405161056c9190613395565b60405180910390f35b61058f600480360381019061058a9190612f24565b6118fd565b005b34801561059d57600080fd5b506105b860048036038101906105b391906133e3565b611a3f565b005b3480156105c657600080fd5b506105cf611a55565b6040516105dc919061351f565b60405180910390f35b3480156105f157600080fd5b5061060c60048036038101906106079190613676565b611b14565b005b34801561061a57600080fd5b5061063560048036038101906106309190612f24565b611be6565b6040516106459493929190613708565b60405180910390f35b34801561065a57600080fd5b5061067560048036038101906106709190612f24565b611cee565b6040516106829190612ecc565b60405180910390f35b34801561069757600080fd5b506106a0611d95565b6040516106ad9190613028565b60405180910390f35b3480156106c257600080fd5b506106dd60048036038101906106d89190613754565b611d9b565b6040516106ea9190612e18565b60405180910390f35b3480156106ff57600080fd5b50610708611e2f565b6040516107159190613028565b60405180910390f35b34801561072a57600080fd5b5061074560048036038101906107409190613835565b611e39565b005b60007f80ac58cd000000000000000000000000000000000000000000000000000000007bffffffffffffffffffffffffffffffffffffffffffffffffffffffff1916827bffffffffffffffffffffffffffffffffffffffffffffffffffffffff1916148061081257507f5b5e139f000000000000000000000000000000000000000000000000000000007bffffffffffffffffffffffffffffffffffffffffffffffffffffffff1916827bffffffffffffffffffffffffffffffffffffffffffffffffffffffff1916145b80610822575061082182611fc6565b5b9050919050565b606060008054610838906138d3565b80601f0160208091040260200160405190810160405280929190818152602001828054610864906138d3565b80156108b15780601f10610886576101008083540402835291602001916108b1565b820191906000526020600020905b81548152906001019060200180831161089457829003601f168201915b5050505050905090565b60006108c682612030565b610905576040517f08c379a00000000000000000000000000000000000000000000000000000000081526004016108fc90613977565b60405180910390fd5b6004600083815260200190815260200160002060009054906101000a900473ffffffffffffffffffffffffffffffffffffffff169050919050565b600061094b82611188565b90508073ffffffffffffffffffffffffffffffffffffffff168373ffffffffffffffffffffffffffffffffffffffff1614156109bc576040517f08c379a00000000000000000000000000000000000000000000000000000000081526004016109b390613a09565b60405180910390fd5b8073ffffffffffffffffffffffffffffffffffffffff166109db61209c565b73ffffffffffffffffffffffffffffffffffffffff161480610a0a5750610a0981610a0461209c565b611d9b565b5b610a49576040517f08c379a0000000000000000000000000000000000000000000000000000000008152600401610a4090613a9b565b60405180910390fd5b610a5383836120a4565b505050565b60065481565b610a66612c03565b6009600183610a759190613aea565b81548110610a8657610a85613b1e565b5b9060005260206000209060040201604051806080016040529081600082018054610aaf906138d3565b80601f0160208091040260200160405190810160405280929190818152602001828054610adb906138d3565b8015610b285780601f10610afd57610100808354040283529160200191610b28565b820191906000526020600020905b815481529060010190602001808311610b0b57829003601f168201915b505050505081526020016001820160009054906101000a900473ffffffffffffffffffffffffffffffffffffffff1673ffffffffffffffffffffffffffffffffffffffff1673ffffffffffffffffffffffffffffffffffffffff1681526020016002820160009054906101000a900473ffffffffffffffffffffffffffffffffffffffff1673ffffffffffffffffffffffffffffffffffffffff1673ffffffffffffffffffffffffffffffffffffffff1681526020016003820154815250509050919050565b6000600a5411610bfd57600080fd5b42600c541015610c0c57600080fd5b6000600b805490501115610c5d57600b6001600b80549050610c2e9190613aea565b81548110610c3f57610c3e613b1e565b5b9060005260206000209060020201600001548111610c5c57600080fd5b5b60b442600c54610c6d9190613aea565b1015610c875760b442610c809190613b4d565b600c819055505b600b60405180604001604052808381526020013373ffffffffffffffffffffffffffffffffffffffff1681525090806001815401808255809150506001900390600052602060002090600202016000909190919091506000820151816000015560208201518160010160006101000a81548173ffffffffffffffffffffffffffffffffffffffff021916908373ffffffffffffffffffffffffffffffffffffffff160217905550505050565b60085481565b610d4a610d4461209c565b8261215d565b610d89576040517f08c379a0000000000000000000000000000000000000000000000000000000008152600401610d8090613c15565b60405180910390fd5b816009600183610d999190613aea565b81548110610daa57610da9613b1e565b5b906000526020600020906004020160010160006101000a81548173ffffffffffffffffffffffffffffffffffffffff021916908373ffffffffffffffffffffffffffffffffffffffff160217905550610e0483838361223b565b505050565b60006009600183610e1a9190613aea565b81548110610e2b57610e2a613b1e565b5b90600052602060002090600402016003015413610e4757600080fd5b6009600182610e569190613aea565b81548110610e6757610e66613b1e565b5b906000526020600020906004020160030154341015610e8557600080fd5b610ee16009600183610e979190613aea565b81548110610ea857610ea7613b1e565b5b906000526020600020906004020160010160009054906101000a900473ffffffffffffffffffffffffffffffffffffffff16338361223b565b60006009600183610ef29190613aea565b81548110610f0357610f02613b1e565b5b906000526020600020906004020160010160009054906101000a900473ffffffffffffffffffffffffffffffffffffffff1690508073ffffffffffffffffffffffffffffffffffffffff166108fc349081150290604051600060405180830381858888f19350505050158015610f7d573d6000803e3d6000fd5b50336009600184610f8e9190613aea565b81548110610f9f57610f9e613b1e565b5b906000526020600020906004020160010160006101000a81548173ffffffffffffffffffffffffffffffffffffffff021916908373ffffffffffffffffffffffffffffffffffffffff16021790555060006009600184610fff9190613aea565b815481106110105761100f613b1e565b5b9060005260206000209060040201600301819055505050565b6000600a54905090565b7f000000000000000000000000000000000000000000000000000000000000000081565b61106861106261209c565b8361215d565b6110a7576040517f08c379a000000000000000000000000000000000000000000000000000000000815260040161109e90613c15565b60405180910390fd5b8060096001846110b79190613aea565b815481106110c8576110c7613b1e565b5b906000526020600020906004020160030181905550600081121561111057600b60006110f49190612c57565b81600a8190555061012c426111099190613b4d565b600c819055505b5050565b61112f83838360405180602001604052806000815250611b14565b505050565b600b818154811061114457600080fd5b90600052602060002090600202016000915090508060000154908060010160009054906101000a900473ffffffffffffffffffffffffffffffffffffffff16905082565b6000806002600084815260200190815260200160002060009054906101000a900473ffffffffffffffffffffffffffffffffffffffff169050600073ffffffffffffffffffffffffffffffffffffffff168173ffffffffffffffffffffffffffffffffffffffff161415611231576040517f08c379a000000000000000000000000000000000000000000000000000000000815260040161122890613ca7565b60405180910390fd5b80915050919050565b60008073ffffffffffffffffffffffffffffffffffffffff168273ffffffffffffffffffffffffffffffffffffffff1614156112ab576040517f08c379a00000000000000000000000000000000000000000000000000000000081526004016112a290613d39565b60405180910390fd5b600360008373ffffffffffffffffffffffffffffffffffffffff1673ffffffffffffffffffffffffffffffffffffffff168152602001908152602001600020549050919050565b600080600a541161130257600080fd5b600c54421161131057600080fd5b6000600b80549050141561132f576000600a81905550600090506116c1565b6000600b6001600b805490506113459190613aea565b8154811061135657611355613b1e565b5b9060005260206000209060020201604051806040016040529081600082015481526020016001820160009054906101000a900473ffffffffffffffffffffffffffffffffffffffff1673ffffffffffffffffffffffffffffffffffffffff1673ffffffffffffffffffffffffffffffffffffffff16815250509050806020015173ffffffffffffffffffffffffffffffffffffffff163373ffffffffffffffffffffffffffffffffffffffff161461140d57600080fd5b806000015134101561141e57600080fd5b600060096001600a546114319190613aea565b8154811061144257611441613b1e565b5b906000526020600020906004020160405180608001604052908160008201805461146b906138d3565b80601f0160208091040260200160405190810160405280929190818152602001828054611497906138d3565b80156114e45780601f106114b9576101008083540402835291602001916114e4565b820191906000526020600020905b8154815290600101906020018083116114c757829003601f168201915b505050505081526020016001820160009054906101000a900473ffffffffffffffffffffffffffffffffffffffff1673ffffffffffffffffffffffffffffffffffffffff1673ffffffffffffffffffffffffffffffffffffffff1681526020016002820160009054906101000a900473ffffffffffffffffffffffffffffffffffffffff1673ffffffffffffffffffffffffffffffffffffffff1673ffffffffffffffffffffffffffffffffffffffff16815260200160038201548152505090506115b6816020015133600a5461223b565b6000816020015190508073ffffffffffffffffffffffffffffffffffffffff166108fc349081150290604051600060405180830381858888f19350505050158015611605573d6000803e3d6000fd5b503360096001600a546116189190613aea565b8154811061162957611628613b1e565b5b906000526020600020906004020160010160006101000a81548173ffffffffffffffffffffffffffffffffffffffff021916908373ffffffffffffffffffffffffffffffffffffffff160217905550600060096001600a5461168b9190613aea565b8154811061169c5761169b613b1e565b5b9060005260206000209060040201600301819055506000600a81905550600193505050505b90565b6060600180546116d3906138d3565b80601f01602080910402602001604051908101604052809291908181526020018280546116ff906138d3565b801561174c5780601f106117215761010080835404028352916020019161174c565b820191906000526020600020905b81548152906001019060200180831161172f57829003601f168201915b5050505050905090565b60606009805480602002602001604051908101604052809291908181526020016000905b828210156118f457838290600052602060002090600402016040518060800160405290816000820180546117ad906138d3565b80601f01602080910402602001604051908101604052809291908181526020018280546117d9906138d3565b80156118265780601f106117fb57610100808354040283529160200191611826565b820191906000526020600020905b81548152906001019060200180831161180957829003601f168201915b505050505081526020016001820160009054906101000a900473ffffffffffffffffffffffffffffffffffffffff1673ffffffffffffffffffffffffffffffffffffffff1673ffffffffffffffffffffffffffffffffffffffff1681526020016002820160009054906101000a900473ffffffffffffffffffffffffffffffffffffffff1673ffffffffffffffffffffffffffffffffffffffff1673ffffffffffffffffffffffffffffffffffffffff1681526020016003820154815250508152602001906001019061177a565b50505050905090565b6000600854905060075481111561191357600080fd5b600073ffffffffffffffffffffffffffffffffffffffff16600960018461193a9190613aea565b8154811061194b5761194a613b1e565b5b906000526020600020906004020160010160009054906101000a900473ffffffffffffffffffffffffffffffffffffffff1673ffffffffffffffffffffffffffffffffffffffff161461199d57600080fd5b6006543410156119ac57600080fd5b3360096001846119bc9190613aea565b815481106119cd576119cc613b1e565b5b906000526020600020906004020160010160006101000a81548173ffffffffffffffffffffffffffffffffffffffff021916908373ffffffffffffffffffffffffffffffffffffffff1602179055506001600854611a2b9190613b4d565b600881905550611a3b33836124a2565b5050565b611a51611a4a61209c565b83836124c0565b5050565b6060600b805480602002602001604051908101604052809291908181526020016000905b82821015611b0b5783829060005260206000209060020201604051806040016040529081600082015481526020016001820160009054906101000a900473ffffffffffffffffffffffffffffffffffffffff1673ffffffffffffffffffffffffffffffffffffffff1673ffffffffffffffffffffffffffffffffffffffff168152505081526020019060010190611a79565b50505050905090565b611b25611b1f61209c565b8361215d565b611b64576040517f08c379a0000000000000000000000000000000000000000000000000000000008152600401611b5b90613c15565b60405180910390fd5b826009600184611b749190613aea565b81548110611b8557611b84613b1e565b5b906000526020600020906004020160010160006101000a81548173ffffffffffffffffffffffffffffffffffffffff021916908373ffffffffffffffffffffffffffffffffffffffff160217905550611be08484848461262d565b50505050565b60098181548110611bf657600080fd5b9060005260206000209060040201600091509050806000018054611c19906138d3565b80601f0160208091040260200160405190810160405280929190818152602001828054611c45906138d3565b8015611c925780601f10611c6757610100808354040283529160200191611c92565b820191906000526020600020905b815481529060010190602001808311611c7557829003601f168201915b5050505050908060010160009054906101000a900473ffffffffffffffffffffffffffffffffffffffff16908060020160009054906101000a900473ffffffffffffffffffffffffffffffffffffffff16908060030154905084565b6060611cf982612030565b611d38576040517f08c379a0000000000000000000000000000000000000000000000000000000008152600401611d2f90613dcb565b60405180910390fd5b6000611d42612689565b90506000815111611d625760405180602001604052806000815250611d8d565b80611d6c846126a9565b604051602001611d7d929190613e27565b6040516020818303038152906040525b915050919050565b60075481565b6000600560008473ffffffffffffffffffffffffffffffffffffffff1673ffffffffffffffffffffffffffffffffffffffff16815260200190815260200160002060008373ffffffffffffffffffffffffffffffffffffffff1673ffffffffffffffffffffffffffffffffffffffff16815260200190815260200160002060009054906101000a900460ff16905092915050565b6000600c54905090565b7f000000000000000000000000000000000000000000000000000000000000000073ffffffffffffffffffffffffffffffffffffffff163373ffffffffffffffffffffffffffffffffffffffff1614611e9157600080fd5b60096040518060800160405280858152602001600073ffffffffffffffffffffffffffffffffffffffff1681526020018473ffffffffffffffffffffffffffffffffffffffff1681526020018381525090806001815401808255809150506001900390600052602060002090600402016000909190919091506000820151816000019080519060200190611f26929190612c7b565b5060208201518160010160006101000a81548173ffffffffffffffffffffffffffffffffffffffff021916908373ffffffffffffffffffffffffffffffffffffffff16021790555060408201518160020160006101000a81548173ffffffffffffffffffffffffffffffffffffffff021916908373ffffffffffffffffffffffffffffffffffffffff160217905550606082015181600301555050505050565b60007f01ffc9a7000000000000000000000000000000000000000000000000000000007bffffffffffffffffffffffffffffffffffffffffffffffffffffffff1916827bffffffffffffffffffffffffffffffffffffffffffffffffffffffff1916149050919050565b60008073ffffffffffffffffffffffffffffffffffffffff166002600084815260200190815260200160002060009054906101000a900473ffffffffffffffffffffffffffffffffffffffff1673ffffffffffffffffffffffffffffffffffffffff1614159050919050565b600033905090565b816004600083815260200190815260200160002060006101000a81548173ffffffffffffffffffffffffffffffffffffffff021916908373ffffffffffffffffffffffffffffffffffffffff160217905550808273ffffffffffffffffffffffffffffffffffffffff1661211783611188565b73ffffffffffffffffffffffffffffffffffffffff167f8c5be1e5ebec7d5bd14f71427d1e84f3dd0314c0f7b2291e5b200ac8c7c3b92560405160405180910390a45050565b600061216882612030565b6121a7576040517f08c379a000000000000000000000000000000000000000000000000000000000815260040161219e90613ebd565b60405180910390fd5b60006121b283611188565b90508073ffffffffffffffffffffffffffffffffffffffff168473ffffffffffffffffffffffffffffffffffffffff16148061222157508373ffffffffffffffffffffffffffffffffffffffff16612209846108bb565b73ffffffffffffffffffffffffffffffffffffffff16145b8061223257506122318185611d9b565b5b91505092915050565b8273ffffffffffffffffffffffffffffffffffffffff1661225b82611188565b73ffffffffffffffffffffffffffffffffffffffff16146122b1576040517f08c379a00000000000000000000000000000000000000000000000000000000081526004016122a890613f4f565b60405180910390fd5b600073ffffffffffffffffffffffffffffffffffffffff168273ffffffffffffffffffffffffffffffffffffffff161415612321576040517f08c379a000000000000000000000000000000000000000000000000000000000815260040161231890613fe1565b60405180910390fd5b61232c83838361280a565b6123376000826120a4565b6001600360008573ffffffffffffffffffffffffffffffffffffffff1673ffffffffffffffffffffffffffffffffffffffff16815260200190815260200160002060008282546123879190613aea565b925050819055506001600360008473ffffffffffffffffffffffffffffffffffffffff1673ffffffffffffffffffffffffffffffffffffffff16815260200190815260200160002060008282546123de9190613b4d565b92505081905550816002600083815260200190815260200160002060006101000a81548173ffffffffffffffffffffffffffffffffffffffff021916908373ffffffffffffffffffffffffffffffffffffffff160217905550808273ffffffffffffffffffffffffffffffffffffffff168473ffffffffffffffffffffffffffffffffffffffff167fddf252ad1be2c89b69c2b068fc378daa952ba7f163c4a11628f55a4df523b3ef60405160405180910390a461249d83838361280f565b505050565b6124bc828260405180602001604052806000815250612814565b5050565b8173ffffffffffffffffffffffffffffffffffffffff168373ffffffffffffffffffffffffffffffffffffffff16141561252f576040517f08c379a00000000000000000000000000000000000000000000000000000000081526004016125269061404d565b60405180910390fd5b80600560008573ffffffffffffffffffffffffffffffffffffffff1673ffffffffffffffffffffffffffffffffffffffff16815260200190815260200160002060008473ffffffffffffffffffffffffffffffffffffffff1673ffffffffffffffffffffffffffffffffffffffff16815260200190815260200160002060006101000a81548160ff0219169083151502179055508173ffffffffffffffffffffffffffffffffffffffff168373ffffffffffffffffffffffffffffffffffffffff167f17307eab39ab6107e8899845ad3d59bd9653f200f220920489ca2b5937696c31836040516126209190612e18565b60405180910390a3505050565b61263884848461223b565b6126448484848461286f565b612683576040517f08c379a000000000000000000000000000000000000000000000000000000000815260040161267a906140df565b60405180910390fd5b50505050565b606060405180608001604052806045815260200161439560459139905090565b606060008214156126f1576040518060400160405280600181526020017f30000000000000000000000000000000000000000000000000000000000000008152509050612805565b600082905060005b6000821461272357808061270c906140ff565b915050600a8261271c9190614177565b91506126f9565b60008167ffffffffffffffff81111561273f5761273e61354b565b5b6040519080825280601f01601f1916602001820160405280156127715781602001600182028036833780820191505090505b5090505b600085146127fe5760018261278a9190613aea565b9150600a8561279991906141a8565b60306127a59190613b4d565b60f81b8183815181106127bb576127ba613b1e565b5b60200101907effffffffffffffffffffffffffffffffffffffffffffffffffffffffffffff1916908160001a905350600a856127f79190614177565b9450612775565b8093505050505b919050565b505050565b505050565b61281e8383612a06565b61282b600084848461286f565b61286a576040517f08c379a0000000000000000000000000000000000000000000000000000000008152600401612861906140df565b60405180910390fd5b505050565b60006128908473ffffffffffffffffffffffffffffffffffffffff16612be0565b156129f9578373ffffffffffffffffffffffffffffffffffffffff1663150b7a026128b961209c565b8786866040518563ffffffff1660e01b81526004016128db949392919061422e565b602060405180830381600087803b1580156128f557600080fd5b505af192505050801561292657506040513d601f19601f82011682018060405250810190612923919061428f565b60015b6129a9573d8060008114612956576040519150601f19603f3d011682016040523d82523d6000602084013e61295b565b606091505b506000815114156129a1576040517f08c379a0000000000000000000000000000000000000000000000000000000008152600401612998906140df565b60405180910390fd5b805181602001fd5b63150b7a0260e01b7bffffffffffffffffffffffffffffffffffffffffffffffffffffffff1916817bffffffffffffffffffffffffffffffffffffffffffffffffffffffff1916149150506129fe565b600190505b949350505050565b600073ffffffffffffffffffffffffffffffffffffffff168273ffffffffffffffffffffffffffffffffffffffff161415612a76576040517f08c379a0000000000000000000000000000000000000000000000000000000008152600401612a6d90614308565b60405180910390fd5b612a7f81612030565b15612abf576040517f08c379a0000000000000000000000000000000000000000000000000000000008152600401612ab690614374565b60405180910390fd5b612acb6000838361280a565b6001600360008473ffffffffffffffffffffffffffffffffffffffff1673ffffffffffffffffffffffffffffffffffffffff1681526020019081526020016000206000828254612b1b9190613b4d565b92505081905550816002600083815260200190815260200160002060006101000a81548173ffffffffffffffffffffffffffffffffffffffff021916908373ffffffffffffffffffffffffffffffffffffffff160217905550808273ffffffffffffffffffffffffffffffffffffffff16600073ffffffffffffffffffffffffffffffffffffffff167fddf252ad1be2c89b69c2b068fc378daa952ba7f163c4a11628f55a4df523b3ef60405160405180910390a4612bdc6000838361280f565b5050565b6000808273ffffffffffffffffffffffffffffffffffffffff163b119050919050565b604051806080016040528060608152602001600073ffffffffffffffffffffffffffffffffffffffff168152602001600073ffffffffffffffffffffffffffffffffffffffff168152602001600081525090565b5080546000825560020290600052602060002090810190612c789190612d01565b50565b828054612c87906138d3565b90600052602060002090601f016020900481019282612ca95760008555612cf0565b82601f10612cc257805160ff1916838001178555612cf0565b82800160010185558215612cf0579182015b82811115612cef578251825591602001919060010190612cd4565b5b509050612cfd9190612d47565b5090565b5b80821115612d43576000808201600090556001820160006101000a81549073ffffffffffffffffffffffffffffffffffffffff021916905550600201612d02565b5090565b5b80821115612d60576000816000905550600101612d48565b5090565b6000604051905090565b600080fd5b600080fd5b60007fffffffff0000000000000000000000000000000000000000000000000000000082169050919050565b612dad81612d78565b8114612db857600080fd5b50565b600081359050612dca81612da4565b92915050565b600060208284031215612de657612de5612d6e565b5b6000612df484828501612dbb565b91505092915050565b60008115159050919050565b612e1281612dfd565b82525050565b6000602082019050612e2d6000830184612e09565b92915050565b600081519050919050565b600082825260208201905092915050565b60005b83811015612e6d578082015181840152602081019050612e52565b83811115612e7c576000848401525b50505050565b6000601f19601f8301169050919050565b6000612e9e82612e33565b612ea88185612e3e565b9350612eb8818560208601612e4f565b612ec181612e82565b840191505092915050565b60006020820190508181036000830152612ee68184612e93565b905092915050565b6000819050919050565b612f0181612eee565b8114612f0c57600080fd5b50565b600081359050612f1e81612ef8565b92915050565b600060208284031215612f3a57612f39612d6e565b5b6000612f4884828501612f0f565b91505092915050565b600073ffffffffffffffffffffffffffffffffffffffff82169050919050565b6000612f7c82612f51565b9050919050565b612f8c81612f71565b82525050565b6000602082019050612fa76000830184612f83565b92915050565b612fb681612f71565b8114612fc157600080fd5b50565b600081359050612fd381612fad565b92915050565b60008060408385031215612ff057612fef612d6e565b5b6000612ffe85828601612fc4565b925050602061300f85828601612f0f565b9150509250929050565b61302281612eee565b82525050565b600060208201905061303d6000830184613019565b92915050565b600082825260208201905092915050565b600061305f82612e33565b6130698185613043565b9350613079818560208601612e4f565b61308281612e82565b840191505092915050565b61309681612f71565b82525050565b6000819050919050565b6130af8161309c565b82525050565b600060808301600083015184820360008601526130d28282613054565b91505060208301516130e7602086018261308d565b5060408301516130fa604086018261308d565b50606083015161310d60608601826130a6565b508091505092915050565b6000602082019050818103600083015261313281846130b5565b905092915050565b60008060006060848603121561315357613152612d6e565b5b600061316186828701612fc4565b935050602061317286828701612fc4565b925050604061318386828701612f0f565b9150509250925092565b6131968161309c565b81146131a157600080fd5b50565b6000813590506131b38161318d565b92915050565b600080604083850312156131d0576131cf612d6e565b5b60006131de85828601612f0f565b92505060206131ef858286016131a4565b9150509250929050565b600061320482612f51565b9050919050565b613214816131f9565b82525050565b600060408201905061322f6000830185613019565b61323c602083018461320b565b9392505050565b60006020828403121561325957613258612d6e565b5b600061326784828501612fc4565b91505092915050565b600081519050919050565b600082825260208201905092915050565b6000819050602082019050919050565b600060808301600083015184820360008601526132b98282613054565b91505060208301516132ce602086018261308d565b5060408301516132e1604086018261308d565b5060608301516132f460608601826130a6565b508091505092915050565b600061330b838361329c565b905092915050565b6000602082019050919050565b600061332b82613270565b613335818561327b565b9350836020820285016133478561328c565b8060005b85811015613383578484038952815161336485826132ff565b945061336f83613313565b925060208a0199505060018101905061334b565b50829750879550505050505092915050565b600060208201905081810360008301526133af8184613320565b905092915050565b6133c081612dfd565b81146133cb57600080fd5b50565b6000813590506133dd816133b7565b92915050565b600080604083850312156133fa576133f9612d6e565b5b600061340885828601612fc4565b9250506020613419858286016133ce565b9150509250929050565b600081519050919050565b600082825260208201905092915050565b6000819050602082019050919050565b61345881612eee565b82525050565b613467816131f9565b82525050565b604082016000820151613483600085018261344f565b506020820151613496602085018261345e565b50505050565b60006134a8838361346d565b60408301905092915050565b6000602082019050919050565b60006134cc82613423565b6134d6818561342e565b93506134e18361343f565b8060005b838110156135125781516134f9888261349c565b9750613504836134b4565b9250506001810190506134e5565b5085935050505092915050565b6000602082019050818103600083015261353981846134c1565b905092915050565b600080fd5b600080fd5b7f4e487b7100000000000000000000000000000000000000000000000000000000600052604160045260246000fd5b61358382612e82565b810181811067ffffffffffffffff821117156135a2576135a161354b565b5b80604052505050565b60006135b5612d64565b90506135c1828261357a565b919050565b600067ffffffffffffffff8211156135e1576135e061354b565b5b6135ea82612e82565b9050602081019050919050565b82818337600083830152505050565b6000613619613614846135c6565b6135ab565b90508281526020810184848401111561363557613634613546565b5b6136408482856135f7565b509392505050565b600082601f83011261365d5761365c613541565b5b813561366d848260208601613606565b91505092915050565b600080600080608085870312156136905761368f612d6e565b5b600061369e87828801612fc4565b94505060206136af87828801612fc4565b93505060406136c087828801612f0f565b925050606085013567ffffffffffffffff8111156136e1576136e0612d73565b5b6136ed87828801613648565b91505092959194509250565b6137028161309c565b82525050565b600060808201905081810360008301526137228187612e93565b90506137316020830186612f83565b61373e6040830185612f83565b61374b60608301846136f9565b95945050505050565b6000806040838503121561376b5761376a612d6e565b5b600061377985828601612fc4565b925050602061378a85828601612fc4565b9150509250929050565b600067ffffffffffffffff8211156137af576137ae61354b565b5b6137b882612e82565b9050602081019050919050565b60006137d86137d384613794565b6135ab565b9050828152602081018484840111156137f4576137f3613546565b5b6137ff8482856135f7565b509392505050565b600082601f83011261381c5761381b613541565b5b813561382c8482602086016137c5565b91505092915050565b60008060006060848603121561384e5761384d612d6e565b5b600084013567ffffffffffffffff81111561386c5761386b612d73565b5b61387886828701613807565b935050602061388986828701612fc4565b925050604061389a868287016131a4565b9150509250925092565b7f4e487b7100000000000000000000000000000000000000000000000000000000600052602260045260246000fd5b600060028204905060018216806138eb57607f821691505b602082108114156138ff576138fe6138a4565b5b50919050565b7f4552433732313a20617070726f76656420717565727920666f72206e6f6e657860008201527f697374656e7420746f6b656e0000000000000000000000000000000000000000602082015250565b6000613961602c83612e3e565b915061396c82613905565b604082019050919050565b6000602082019050818103600083015261399081613954565b9050919050565b7f4552433732313a20617070726f76616c20746f2063757272656e74206f776e6560008201527f7200000000000000000000000000000000000000000000000000000000000000602082015250565b60006139f3602183612e3e565b91506139fe82613997565b604082019050919050565b60006020820190508181036000830152613a22816139e6565b9050919050565b7f4552433732313a20617070726f76652063616c6c6572206973206e6f74206f7760008201527f6e6572206e6f7220617070726f76656420666f7220616c6c0000000000000000602082015250565b6000613a85603883612e3e565b9150613a9082613a29565b604082019050919050565b60006020820190508181036000830152613ab481613a78565b9050919050565b7f4e487b7100000000000000000000000000000000000000000000000000000000600052601160045260246000fd5b6000613af582612eee565b9150613b0083612eee565b925082821015613b1357613b12613abb565b5b828203905092915050565b7f4e487b7100000000000000000000000000000000000000000000000000000000600052603260045260246000fd5b6000613b5882612eee565b9150613b6383612eee565b9250827fffffffffffffffffffffffffffffffffffffffffffffffffffffffffffffffff03821115613b9857613b97613abb565b5b828201905092915050565b7f4552433732313a207472616e736665722063616c6c6572206973206e6f74206f60008201527f776e6572206e6f7220617070726f766564000000000000000000000000000000602082015250565b6000613bff603183612e3e565b9150613c0a82613ba3565b604082019050919050565b60006020820190508181036000830152613c2e81613bf2565b9050919050565b7f4552433732313a206f776e657220717565727920666f72206e6f6e657869737460008201527f656e7420746f6b656e0000000000000000000000000000000000000000000000602082015250565b6000613c91602983612e3e565b9150613c9c82613c35565b604082019050919050565b60006020820190508181036000830152613cc081613c84565b9050919050565b7f4552433732313a2062616c616e636520717565727920666f7220746865207a6560008201527f726f206164647265737300000000000000000000000000000000000000000000602082015250565b6000613d23602a83612e3e565b9150613d2e82613cc7565b604082019050919050565b60006020820190508181036000830152613d5281613d16565b9050919050565b7f4552433732314d657461646174613a2055524920717565727920666f72206e6f60008201527f6e6578697374656e7420746f6b656e0000000000000000000000000000000000602082015250565b6000613db5602f83612e3e565b9150613dc082613d59565b604082019050919050565b60006020820190508181036000830152613de481613da8565b9050919050565b600081905092915050565b6000613e0182612e33565b613e0b8185613deb565b9350613e1b818560208601612e4f565b80840191505092915050565b6000613e338285613df6565b9150613e3f8284613df6565b91508190509392505050565b7f4552433732313a206f70657261746f7220717565727920666f72206e6f6e657860008201527f697374656e7420746f6b656e0000000000000000000000000000000000000000602082015250565b6000613ea7602c83612e3e565b9150613eb282613e4b565b604082019050919050565b60006020820190508181036000830152613ed681613e9a565b9050919050565b7f4552433732313a207472616e736665722066726f6d20696e636f72726563742060008201527f6f776e6572000000000000000000000000000000000000000000000000000000602082015250565b6000613f39602583612e3e565b9150613f4482613edd565b604082019050919050565b60006020820190508181036000830152613f6881613f2c565b9050919050565b7f4552433732313a207472616e7366657220746f20746865207a65726f2061646460008201527f7265737300000000000000000000000000000000000000000000000000000000602082015250565b6000613fcb602483612e3e565b9150613fd682613f6f565b604082019050919050565b60006020820190508181036000830152613ffa81613fbe565b9050919050565b7f4552433732313a20617070726f766520746f2063616c6c657200000000000000600082015250565b6000614037601983612e3e565b915061404282614001565b602082019050919050565b600060208201905081810360008301526140668161402a565b9050919050565b7f4552433732313a207472616e7366657220746f206e6f6e20455243373231526560008201527f63656976657220696d706c656d656e7465720000000000000000000000000000602082015250565b60006140c9603283612e3e565b91506140d48261406d565b604082019050919050565b600060208201905081810360008301526140f8816140bc565b9050919050565b600061410a82612eee565b91507fffffffffffffffffffffffffffffffffffffffffffffffffffffffffffffffff82141561413d5761413c613abb565b5b600182019050919050565b7f4e487b7100000000000000000000000000000000000000000000000000000000600052601260045260246000fd5b600061418282612eee565b915061418d83612eee565b92508261419d5761419c614148565b5b828204905092915050565b60006141b382612eee565b91506141be83612eee565b9250826141ce576141cd614148565b5b828206905092915050565b600081519050919050565b600082825260208201905092915050565b6000614200826141d9565b61420a81856141e4565b935061421a818560208601612e4f565b61422381612e82565b840191505092915050565b60006080820190506142436000830187612f83565b6142506020830186612f83565b61425d6040830185613019565b818103606083015261426f81846141f5565b905095945050505050565b60008151905061428981612da4565b92915050565b6000602082840312156142a5576142a4612d6e565b5b60006142b38482850161427a565b91505092915050565b7f4552433732313a206d696e7420746f20746865207a65726f2061646472657373600082015250565b60006142f2602083612e3e565b91506142fd826142bc565b602082019050919050565b60006020820190508181036000830152614321816142e5565b9050919050565b7f4552433732313a20746f6b656e20616c7265616479206d696e74656400000000600082015250565b600061435e601c83612e3e565b915061436982614328565b602082019050919050565b6000602082019050818103600083015261438d81614351565b905091905056fe68747470733a2f2f7261772e67697468756275736572636f6e74656e742e636f6d2f63726167746c61622f6772612d6172742f6d61696e2f7372632f6d657461646174612fa2646970667358221220a7b439d81d2e67ffce27d1333817c678c855d7da68b44c7d30e32c685682261064736f6c63430008090033",
  "immutableReferences": {
    "1631": [
      {
        "length": 32,
        "start": 4149
      },
      {
        "length": 32,
        "start": 7739
      }
    ]
  },
  "source": "// SPDX-License-Identifier: MIT\r\npragma solidity ^0.8.0;\r\n\r\nimport \"@openzeppelin/contracts/token/ERC721/ERC721.sol\";\r\n\r\ncontract Painting is ERC721 {\r\n    uint256 public cost = 0.001 ether; // mint price, will reject if below\r\n    uint256 public maxSupply = 20;\r\n    uint256 public totalSupply = 0;\r\n    address public immutable contract_owner;\r\n\r\n    struct Paint {\r\n        string name;\r\n        address owner;\r\n        address creator;\r\n        int256 list_price; // -1 means auction, 0 means not listed by owner\r\n    }\r\n    Paint[] public paintings;\r\n\r\n    struct Bid {\r\n        uint256 amount;\r\n        address payable bidder;\r\n    }\r\n    // index of current auction\r\n    uint256 auction_painting_id = 0; // 1-based, 0 meant no auction\r\n    // bids are in ascending amount, i.e. last element is highest\r\n    Bid[] public bids;\r\n    uint auction_expiry_date;\r\n\r\n    constructor(\r\n        string memory _name,\r\n        string memory _symbol,\r\n        uint256 _cost\r\n    ) ERC721(_name, _symbol) {\r\n        _cost = cost;\r\n        contract_owner = msg.sender; // security to restrict addPainting to only deployer\r\n        address creator = address(0x20711d3dB1A31e59AF1DD70b8b613E048B0544E1);\r\n\r\n        addPainting(\"Life Is Good\", creator, 0);\r\n        addPainting(\"Adventures Await\", creator, 0);\r\n        addPainting(\"Journey On\", creator, 0);\r\n        addPainting(\"Speed Up\", creator, 0);\r\n        addPainting(\"Lucky\", creator, 0);\r\n\r\n        /*\r\n        paintings[0].owner=address(0xB793eca1c417B001fa2b82cc35f8488124C54F0e);\r\n        paintings[0].list_price=-1; \r\n        auction_painting_id=1;\r\n        auction_expiry_date=block.timestamp+30 minutes;\r\n        */\r\n    }\r\n\r\n    function _baseURI() internal pure override returns (string memory) {\r\n        return\r\n            \"https://raw.githubusercontent.com/cragtlab/gra-art/main/src/metadata/\";\r\n    }\r\n\r\n    function addPainting(\r\n        string memory _name,\r\n        address creator,\r\n        int256 list_price\r\n    ) public {\r\n        require(msg.sender == contract_owner);\r\n        paintings.push(Paint(_name, address(0x0), creator, list_price));\r\n    }\r\n\r\n    function addBid(uint256 amount) public {\r\n        require(auction_painting_id > 0); // ongoing auction\r\n        require(auction_expiry_date >= block.timestamp); // not expired\r\n        if(bids.length > 0){\r\n            require(amount > bids[bids.length - 1].amount);\r\n        }\r\n        if (auction_expiry_date - block.timestamp < 3 minutes) {\r\n            auction_expiry_date = block.timestamp + 3 minutes;\r\n        }\r\n\r\n        bids.push(Bid(amount, payable(msg.sender)));\r\n    }\r\n\r\n    function getAuctionPaintingID () public view returns (uint256){\r\n        return auction_painting_id;\r\n    }\r\n\r\n    function getAuctionExpiryDate() public view returns (uint) {\r\n        return auction_expiry_date;\r\n    }\r\n    function getBids() public view returns (Bid[] memory) {\r\n        return bids;\r\n    }\r\n\r\n    // to be trigger by top bidder\r\n    function payAuction() public payable returns (bool) {\r\n        require(auction_painting_id > 0);\r\n        require(block.timestamp > auction_expiry_date); // expired\r\n\r\n        if (bids.length == 0) {\r\n            auction_painting_id = 0;\r\n            return false;\r\n        }\r\n\r\n        Bid memory highestBid = bids[bids.length - 1];\r\n        require(msg.sender == highestBid.bidder);\r\n        require(msg.value >= highestBid.amount);\r\n        // to refactor out since also in buyToken?\r\n        Paint memory auction = paintings[auction_painting_id-1];\r\n        _transfer(auction.owner, msg.sender, auction_painting_id); // transfer token\r\n        address payable _owner = payable(auction.owner);\r\n        _owner.transfer(msg.value); // pay money to seller\r\n        // somehow painting owner and list price  didn't update when use auction variable instead \r\n        paintings[auction_painting_id-1].owner = msg.sender; // change ownership after all done. must be after transfer\r\n        paintings[auction_painting_id-1].list_price = 0;\r\n        auction_painting_id = 0; //reset token\r\n        return true;\r\n    }\r\n\r\n    function mint(uint256 _id) public payable {\r\n        uint256 supply = totalSupply;\r\n        require(supply <= maxSupply);\r\n        require(paintings[_id - 1].owner == address(0x0));\r\n        require(msg.value >= cost);\r\n\r\n        // NOTE: tokenID always starts from 1, but our array starts from 0\r\n        paintings[_id - 1].owner = msg.sender;\r\n        totalSupply = totalSupply + 1;\r\n        _safeMint(msg.sender, _id);\r\n    }\r\n\r\n    function transferFrom(\r\n        address from,\r\n        address to,\r\n        uint256 tokenId\r\n    ) public override {\r\n        require(\r\n            _isApprovedOrOwner(_msgSender(), tokenId),\r\n            \"ERC721: transfer caller is not owner nor approved\"\r\n        );\r\n\r\n        // Update ownership\r\n        paintings[tokenId - 1].owner = to;\r\n        _transfer(from, to, tokenId);\r\n    }\r\n\r\n    function listToken(uint256 _id, int256 list_price) public {\r\n        require(\r\n            _isApprovedOrOwner(_msgSender(), _id),\r\n            \"ERC721: transfer caller is not owner nor approved\"\r\n        );\r\n        paintings[_id - 1].list_price = list_price;\r\n        if (list_price < 0) {\r\n            // should only allow by contract_owner to prevent abuse or clearing ongoing auction\r\n            delete bids;\r\n            auction_painting_id = _id;\r\n            auction_expiry_date = block.timestamp + 5 minutes;\r\n        }\r\n    }\r\n\r\n    function buyToken(uint256 _id) external payable {\r\n        //require(paintings[_id - 1].owner != address(0x0));\r\n        require(paintings[_id - 1].list_price > 0);\r\n        require(msg.value >= uint256(paintings[_id - 1].list_price)); // convert to uint256 only after confirm > 0\r\n\r\n        _transfer(paintings[_id - 1].owner, msg.sender, _id); // transfer token\r\n        address payable _owner = payable(paintings[_id - 1].owner);\r\n        _owner.transfer(msg.value); // pay money to seller\r\n        paintings[_id - 1].owner = msg.sender; // change ownership after all done. must be after transfer\r\n        paintings[_id - 1].list_price = 0;\r\n    }\r\n\r\n    function safeTransferFrom(\r\n        address from,\r\n        address to,\r\n        uint256 tokenId,\r\n        bytes memory _data\r\n    ) public override {\r\n        require(\r\n            _isApprovedOrOwner(_msgSender(), tokenId),\r\n            \"ERC721: transfer caller is not owner nor approved\"\r\n        );\r\n\r\n        // Update ownership\r\n        paintings[tokenId - 1].owner = to;\r\n        _safeTransfer(from, to, tokenId, _data);\r\n    }\r\n\r\n    // Public View Functions\r\n    function getPaintings() public view returns (Paint[] memory) {\r\n        return paintings;\r\n    }\r\n\r\n    function getPainting(uint256 _id) public view returns (Paint memory) {\r\n        return paintings[_id - 1];\r\n    }\r\n}\r\n",
  "sourcePath": "C:\\Users\\user\\Downloads\\gra-art\\src\\contracts\\Painting.sol",
  "compiler": {
    "name": "solc",
    "version": "0.8.9+commit.e5eed63a.Emscripten.clang"
  },
  "schemaVersion": "3.4.15",
  "updatedAt": "2023-10-07T10:05:12.291Z",
  "networkType": "ethereum",
  "devdoc": {
    "kind": "dev",
    "methods": {
      "approve(address,uint256)": {
        "details": "See {IERC721-approve}."
      },
      "balanceOf(address)": {
        "details": "See {IERC721-balanceOf}."
      },
      "getApproved(uint256)": {
        "details": "See {IERC721-getApproved}."
      },
      "isApprovedForAll(address,address)": {
        "details": "See {IERC721-isApprovedForAll}."
      },
      "name()": {
        "details": "See {IERC721Metadata-name}."
      },
      "ownerOf(uint256)": {
        "details": "See {IERC721-ownerOf}."
      },
      "safeTransferFrom(address,address,uint256)": {
        "details": "See {IERC721-safeTransferFrom}."
      },
      "safeTransferFrom(address,address,uint256,bytes)": {
        "details": "See {IERC721-safeTransferFrom}."
      },
      "setApprovalForAll(address,bool)": {
        "details": "See {IERC721-setApprovalForAll}."
      },
      "supportsInterface(bytes4)": {
        "details": "See {IERC165-supportsInterface}."
      },
      "symbol()": {
        "details": "See {IERC721Metadata-symbol}."
      },
      "tokenURI(uint256)": {
        "details": "See {IERC721Metadata-tokenURI}."
      },
      "transferFrom(address,address,uint256)": {
        "details": "See {IERC721-transferFrom}."
      }
    },
    "version": 1
  },
  "userdoc": {
    "kind": "user",
    "methods": {},
    "version": 1
  }
}