{
  "contractName": "Painting",
  "abi": [
    {
      "inputs": [
        {
          "internalType": "string",
          "name": "_name",
          "type": "string"
        },
        {
          "internalType": "string",
          "name": "_symbol",
          "type": "string"
        },
        {
          "internalType": "uint256",
          "name": "_cost",
          "type": "uint256"
        }
      ],
      "stateMutability": "nonpayable",
      "type": "constructor"
    },
    {
      "anonymous": false,
      "inputs": [
        {
          "indexed": true,
          "internalType": "address",
          "name": "owner",
          "type": "address"
        },
        {
          "indexed": true,
          "internalType": "address",
          "name": "approved",
          "type": "address"
        },
        {
          "indexed": true,
          "internalType": "uint256",
          "name": "tokenId",
          "type": "uint256"
        }
      ],
      "name": "Approval",
      "type": "event"
    },
    {
      "anonymous": false,
      "inputs": [
        {
          "indexed": true,
          "internalType": "address",
          "name": "owner",
          "type": "address"
        },
        {
          "indexed": true,
          "internalType": "address",
          "name": "operator",
          "type": "address"
        },
        {
          "indexed": false,
          "internalType": "bool",
          "name": "approved",
          "type": "bool"
        }
      ],
      "name": "ApprovalForAll",
      "type": "event"
    },
    {
      "anonymous": false,
      "inputs": [
        {
          "indexed": true,
          "internalType": "address",
          "name": "from",
          "type": "address"
        },
        {
          "indexed": true,
          "internalType": "address",
          "name": "to",
          "type": "address"
        },
        {
          "indexed": true,
          "internalType": "uint256",
          "name": "tokenId",
          "type": "uint256"
        }
      ],
      "name": "Transfer",
      "type": "event"
    },
    {
      "inputs": [
        {
          "internalType": "address",
          "name": "to",
          "type": "address"
        },
        {
          "internalType": "uint256",
          "name": "tokenId",
          "type": "uint256"
        }
      ],
      "name": "approve",
      "outputs": [],
      "stateMutability": "nonpayable",
      "type": "function"
    },
    {
      "inputs": [
        {
          "internalType": "address",
          "name": "owner",
          "type": "address"
        }
      ],
      "name": "balanceOf",
      "outputs": [
        {
          "internalType": "uint256",
          "name": "",
          "type": "uint256"
        }
      ],
      "stateMutability": "view",
      "type": "function",
      "constant": true
    },
    {
      "inputs": [
        {
          "internalType": "uint256",
          "name": "",
          "type": "uint256"
        }
      ],
      "name": "bids",
      "outputs": [
        {
          "internalType": "uint256",
          "name": "amount",
          "type": "uint256"
        },
        {
          "internalType": "address payable",
          "name": "bidder",
          "type": "address"
        }
      ],
      "stateMutability": "view",
      "type": "function",
      "constant": true
    },
    {
      "inputs": [],
      "name": "contract_owner",
      "outputs": [
        {
          "internalType": "address",
          "name": "",
          "type": "address"
        }
      ],
      "stateMutability": "view",
      "type": "function",
      "constant": true
    },
    {
      "inputs": [],
      "name": "cost",
      "outputs": [
        {
          "internalType": "uint256",
          "name": "",
          "type": "uint256"
        }
      ],
      "stateMutability": "view",
      "type": "function",
      "constant": true
    },
    {
      "inputs": [
        {
          "internalType": "uint256",
          "name": "tokenId",
          "type": "uint256"
        }
      ],
      "name": "getApproved",
      "outputs": [
        {
          "internalType": "address",
          "name": "",
          "type": "address"
        }
      ],
      "stateMutability": "view",
      "type": "function",
      "constant": true
    },
    {
      "inputs": [
        {
          "internalType": "address",
          "name": "owner",
          "type": "address"
        },
        {
          "internalType": "address",
          "name": "operator",
          "type": "address"
        }
      ],
      "name": "isApprovedForAll",
      "outputs": [
        {
          "internalType": "bool",
          "name": "",
          "type": "bool"
        }
      ],
      "stateMutability": "view",
      "type": "function",
      "constant": true
    },
    {
      "inputs": [],
      "name": "maxSupply",
      "outputs": [
        {
          "internalType": "uint256",
          "name": "",
          "type": "uint256"
        }
      ],
      "stateMutability": "view",
      "type": "function",
      "constant": true
    },
    {
      "inputs": [],
      "name": "name",
      "outputs": [
        {
          "internalType": "string",
          "name": "",
          "type": "string"
        }
      ],
      "stateMutability": "view",
      "type": "function",
      "constant": true
    },
    {
      "inputs": [
        {
          "internalType": "uint256",
          "name": "",
          "type": "uint256"
        }
      ],
      "name": "names",
      "outputs": [
        {
          "internalType": "string",
          "name": "name",
          "type": "string"
        },
        {
          "internalType": "address",
          "name": "wallet_address",
          "type": "address"
        }
      ],
      "stateMutability": "view",
      "type": "function",
      "constant": true
    },
    {
      "inputs": [
        {
          "internalType": "uint256",
          "name": "tokenId",
          "type": "uint256"
        }
      ],
      "name": "ownerOf",
      "outputs": [
        {
          "internalType": "address",
          "name": "",
          "type": "address"
        }
      ],
      "stateMutability": "view",
      "type": "function",
      "constant": true
    },
    {
      "inputs": [
        {
          "internalType": "uint256",
          "name": "",
          "type": "uint256"
        }
      ],
      "name": "paintings",
      "outputs": [
        {
          "internalType": "string",
          "name": "name",
          "type": "string"
        },
        {
          "internalType": "address",
          "name": "owner",
          "type": "address"
        },
        {
          "internalType": "address",
          "name": "creator",
          "type": "address"
        },
        {
          "internalType": "int256",
          "name": "list_price",
          "type": "int256"
        }
      ],
      "stateMutability": "view",
      "type": "function",
      "constant": true
    },
    {
      "inputs": [
        {
          "internalType": "address",
          "name": "operator",
          "type": "address"
        },
        {
          "internalType": "bool",
          "name": "approved",
          "type": "bool"
        }
      ],
      "name": "setApprovalForAll",
      "outputs": [],
      "stateMutability": "nonpayable",
      "type": "function"
    },
    {
      "inputs": [
        {
          "internalType": "bytes4",
          "name": "interfaceId",
          "type": "bytes4"
        }
      ],
      "name": "supportsInterface",
      "outputs": [
        {
          "internalType": "bool",
          "name": "",
          "type": "bool"
        }
      ],
      "stateMutability": "view",
      "type": "function",
      "constant": true
    },
    {
      "inputs": [],
      "name": "symbol",
      "outputs": [
        {
          "internalType": "string",
          "name": "",
          "type": "string"
        }
      ],
      "stateMutability": "view",
      "type": "function",
      "constant": true
    },
    {
      "inputs": [
        {
          "internalType": "uint256",
          "name": "tokenId",
          "type": "uint256"
        }
      ],
      "name": "tokenURI",
      "outputs": [
        {
          "internalType": "string",
          "name": "",
          "type": "string"
        }
      ],
      "stateMutability": "view",
      "type": "function",
      "constant": true
    },
    {
      "inputs": [],
      "name": "totalSupply",
      "outputs": [
        {
          "internalType": "uint256",
          "name": "",
          "type": "uint256"
        }
      ],
      "stateMutability": "view",
      "type": "function",
      "constant": true
    },
    {
      "inputs": [
        {
          "internalType": "address",
          "name": "walletAddress",
          "type": "address"
        },
        {
          "internalType": "string",
          "name": "name",
          "type": "string"
        }
      ],
      "name": "addName",
      "outputs": [],
      "stateMutability": "nonpayable",
      "type": "function"
    },
    {
      "inputs": [],
      "name": "getNames",
      "outputs": [
        {
          "components": [
            {
              "internalType": "string",
              "name": "name",
              "type": "string"
            },
            {
              "internalType": "address",
              "name": "wallet_address",
              "type": "address"
            }
          ],
          "internalType": "struct Painting.Name[]",
          "name": "",
          "type": "tuple[]"
        }
      ],
      "stateMutability": "view",
      "type": "function",
      "constant": true
    },
    {
      "inputs": [
        {
          "internalType": "uint256",
          "name": "amount",
          "type": "uint256"
        }
      ],
      "name": "addBid",
      "outputs": [],
      "stateMutability": "nonpayable",
      "type": "function"
    },
    {
      "inputs": [],
      "name": "getAuctionPaintingID",
      "outputs": [
        {
          "internalType": "uint256",
          "name": "",
          "type": "uint256"
        }
      ],
      "stateMutability": "view",
      "type": "function",
      "constant": true
    },
    {
      "inputs": [],
      "name": "getAuctionExpiryDate",
      "outputs": [
        {
          "internalType": "uint256",
          "name": "",
          "type": "uint256"
        }
      ],
      "stateMutability": "view",
      "type": "function",
      "constant": true
    },
    {
      "inputs": [],
      "name": "getBids",
      "outputs": [
        {
          "components": [
            {
              "internalType": "uint256",
              "name": "amount",
              "type": "uint256"
            },
            {
              "internalType": "address payable",
              "name": "bidder",
              "type": "address"
            }
          ],
          "internalType": "struct Painting.Bid[]",
          "name": "",
          "type": "tuple[]"
        }
      ],
      "stateMutability": "view",
      "type": "function",
      "constant": true
    },
    {
      "inputs": [],
      "name": "payAuction",
      "outputs": [
        {
          "internalType": "bool",
          "name": "",
          "type": "bool"
        }
      ],
      "stateMutability": "payable",
      "type": "function",
      "payable": true
    },
    {
      "inputs": [
        {
          "internalType": "string",
          "name": "_name",
          "type": "string"
        },
        {
          "internalType": "address",
          "name": "creator",
          "type": "address"
        },
        {
          "internalType": "int256",
          "name": "list_price",
          "type": "int256"
        }
      ],
      "name": "addPainting",
      "outputs": [],
      "stateMutability": "nonpayable",
      "type": "function"
    },
    {
      "inputs": [
        {
          "internalType": "uint256",
          "name": "_id",
          "type": "uint256"
        }
      ],
      "name": "mint",
      "outputs": [],
      "stateMutability": "payable",
      "type": "function",
      "payable": true
    },
    {
      "inputs": [
        {
          "internalType": "address",
          "name": "from",
          "type": "address"
        },
        {
          "internalType": "address",
          "name": "to",
          "type": "address"
        },
        {
          "internalType": "uint256",
          "name": "tokenId",
          "type": "uint256"
        }
      ],
      "name": "transferFrom",
      "outputs": [],
      "stateMutability": "nonpayable",
      "type": "function"
    },
    {
      "inputs": [
        {
          "internalType": "uint256",
          "name": "_id",
          "type": "uint256"
        },
        {
          "internalType": "int256",
          "name": "list_price",
          "type": "int256"
        }
      ],
      "name": "listToken",
      "outputs": [],
      "stateMutability": "nonpayable",
      "type": "function"
    },
    {
      "inputs": [
        {
          "internalType": "uint256",
          "name": "_id",
          "type": "uint256"
        }
      ],
      "name": "buyToken",
      "outputs": [],
      "stateMutability": "payable",
      "type": "function",
      "payable": true
    },
    {
      "inputs": [
        {
          "internalType": "address",
          "name": "from",
          "type": "address"
        },
        {
          "internalType": "address",
          "name": "to",
          "type": "address"
        },
        {
          "internalType": "uint256",
          "name": "tokenId",
          "type": "uint256"
        }
      ],
      "name": "safeTransferFrom",
      "outputs": [],
      "stateMutability": "nonpayable",
      "type": "function"
    },
    {
      "inputs": [
        {
          "internalType": "address",
          "name": "from",
          "type": "address"
        },
        {
          "internalType": "address",
          "name": "to",
          "type": "address"
        },
        {
          "internalType": "uint256",
          "name": "tokenId",
          "type": "uint256"
        },
        {
          "internalType": "bytes",
          "name": "_data",
          "type": "bytes"
        }
      ],
      "name": "safeTransferFrom",
      "outputs": [],
      "stateMutability": "nonpayable",
      "type": "function"
    },
    {
      "inputs": [],
      "name": "getPaintings",
      "outputs": [
        {
          "components": [
            {
              "internalType": "string",
              "name": "name",
              "type": "string"
            },
            {
              "internalType": "address",
              "name": "owner",
              "type": "address"
            },
            {
              "internalType": "address",
              "name": "creator",
              "type": "address"
            },
            {
              "internalType": "int256",
              "name": "list_price",
              "type": "int256"
            }
          ],
          "internalType": "struct Painting.Paint[]",
          "name": "",
          "type": "tuple[]"
        }
      ],
      "stateMutability": "view",
      "type": "function",
      "constant": true
    },
    {
      "inputs": [
        {
          "internalType": "uint256",
          "name": "_id",
          "type": "uint256"
        }
      ],
      "name": "getPainting",
      "outputs": [
        {
          "components": [
            {
              "internalType": "string",
              "name": "name",
              "type": "string"
            },
            {
              "internalType": "address",
              "name": "owner",
              "type": "address"
            },
            {
              "internalType": "address",
              "name": "creator",
              "type": "address"
            },
            {
              "internalType": "int256",
              "name": "list_price",
              "type": "int256"
            }
          ],
          "internalType": "struct Painting.Paint",
          "name": "",
          "type": "tuple"
        }
      ],
      "stateMutability": "view",
      "type": "function",
      "constant": true
    }
  ],
  "bytecode": "0x60a060405266038d7ea4c68000600655601460075560006008556000600a553480156200002b57600080fd5b50604051620056ca380380620056ca833981810160405281019062000051919062000908565b828281600090805190602001906200006b92919062000680565b5080600190805190602001906200008492919062000680565b50505060065490503373ffffffffffffffffffffffffffffffffffffffff1660808173ffffffffffffffffffffffffffffffffffffffff168152505060007320711d3db1a31e59af1dd70b8b613e048b0544e19050620001226040518060400160405280600c81526020017f4c69666520497320476f6f640000000000000000000000000000000000000000815250826000620002ab60201b60201c565b6200016b6040518060400160405280601081526020017f416476656e747572657320417761697400000000000000000000000000000000815250826000620002ab60201b60201c565b620001b46040518060400160405280600a81526020017f4a6f75726e6579204f6e00000000000000000000000000000000000000000000815250826000620002ab60201b60201c565b620001fd6040518060400160405280600881526020017f5370656564205570000000000000000000000000000000000000000000000000815250826000620002ab60201b60201c565b620002466040518060400160405280600581526020017f4c75636b79000000000000000000000000000000000000000000000000000000815250826000620002ab60201b60201c565b620002a17320711d3db1a31e59af1dd70b8b613e048b0544e16040518060400160405280600781526020017f56616e20475241000000000000000000000000000000000000000000000000008152506200041d60201b60201c565b5050505062000b36565b60805173ffffffffffffffffffffffffffffffffffffffff163373ffffffffffffffffffffffffffffffffffffffff1614620002e657600080fd5b60096040518060800160405280858152602001600073ffffffffffffffffffffffffffffffffffffffff1681526020018473ffffffffffffffffffffffffffffffffffffffff16815260200183815250908060018154018082558091505060019003906000526020600020906004020160009091909190915060008201518160000190805190602001906200037d92919062000680565b5060208201518160010160006101000a81548173ffffffffffffffffffffffffffffffffffffffff021916908373ffffffffffffffffffffffffffffffffffffffff16021790555060408201518160020160006101000a81548173ffffffffffffffffffffffffffffffffffffffff021916908373ffffffffffffffffffffffffffffffffffffffff160217905550606082015181600301555050505050565b8173ffffffffffffffffffffffffffffffffffffffff163373ffffffffffffffffffffffffffffffffffffffff16148062000485575060805173ffffffffffffffffffffffffffffffffffffffff163373ffffffffffffffffffffffffffffffffffffffff16145b620004c7576040517f08c379a0000000000000000000000000000000000000000000000000000000008152600401620004be9062000a03565b60405180910390fd5b6000805b600d80549050811015620005b5578373ffffffffffffffffffffffffffffffffffffffff16600d828154811062000507576200050662000a25565b5b906000526020600020906002020160010160009054906101000a900473ffffffffffffffffffffffffffffffffffffffff1673ffffffffffffffffffffffffffffffffffffffff1614156200059f5782600d82815481106200056e576200056d62000a25565b5b906000526020600020906002020160000190805190602001906200059492919062000680565b5060019150620005b5565b8080620005ac9062000a83565b915050620004cb565b50806200067b57600d60405180604001604052808481526020018573ffffffffffffffffffffffffffffffffffffffff16815250908060018154018082558091505060019003906000526020600020906002020160009091909190915060008201518160000190805190602001906200063092919062000680565b5060208201518160010160006101000a81548173ffffffffffffffffffffffffffffffffffffffff021916908373ffffffffffffffffffffffffffffffffffffffff16021790555050505b505050565b8280546200068e9062000b00565b90600052602060002090601f016020900481019282620006b25760008555620006fe565b82601f10620006cd57805160ff1916838001178555620006fe565b82800160010185558215620006fe579182015b82811115620006fd578251825591602001919060010190620006e0565b5b5090506200070d919062000711565b5090565b5b808211156200072c57600081600090555060010162000712565b5090565b6000604051905090565b600080fd5b600080fd5b600080fd5b600080fd5b6000601f19601f8301169050919050565b7f4e487b7100000000000000000000000000000000000000000000000000000000600052604160045260246000fd5b62000799826200074e565b810181811067ffffffffffffffff82111715620007bb57620007ba6200075f565b5b80604052505050565b6000620007d062000730565b9050620007de82826200078e565b919050565b600067ffffffffffffffff8211156200080157620008006200075f565b5b6200080c826200074e565b9050602081019050919050565b60005b83811015620008395780820151818401526020810190506200081c565b8381111562000849576000848401525b50505050565b6000620008666200086084620007e3565b620007c4565b90508281526020810184848401111562000885576200088462000749565b5b6200089284828562000819565b509392505050565b600082601f830112620008b257620008b162000744565b5b8151620008c48482602086016200084f565b91505092915050565b6000819050919050565b620008e281620008cd565b8114620008ee57600080fd5b50565b6000815190506200090281620008d7565b92915050565b6000806000606084860312156200092457620009236200073a565b5b600084015167ffffffffffffffff8111156200094557620009446200073f565b5b62000953868287016200089a565b935050602084015167ffffffffffffffff8111156200097757620009766200073f565b5b62000985868287016200089a565b92505060406200099886828701620008f1565b9150509250925092565b600082825260208201905092915050565b7f5065726d697373696f6e2064656e696564000000000000000000000000000000600082015250565b6000620009eb601183620009a2565b9150620009f882620009b3565b602082019050919050565b6000602082019050818103600083015262000a1e81620009dc565b9050919050565b7f4e487b7100000000000000000000000000000000000000000000000000000000600052603260045260246000fd5b7f4e487b7100000000000000000000000000000000000000000000000000000000600052601160045260246000fd5b600062000a9082620008cd565b91507fffffffffffffffffffffffffffffffffffffffffffffffffffffffffffffffff82141562000ac65762000ac562000a54565b5b600182019050919050565b7f4e487b7100000000000000000000000000000000000000000000000000000000600052602260045260246000fd5b6000600282049050600182168062000b1957607f821691505b6020821081141562000b305762000b2f62000ad1565b5b50919050565b608051614b6a62000b60600039600081816110e8015281816120a2015261237d0152614b6a6000f3fe6080604052600436106101ee5760003560e01c80636352211e1161010d578063b88d4fde116100a0578063d0aab3fd1161006f578063d0aab3fd14610715578063d5abeb011461073e578063e985e9c514610769578063f41a5750146107a6578063f4299d0d146107d1576101ee565b8063b88d4fde14610644578063c7ca6daa1461066d578063c87b56dd146106ad578063cd838f0f146106ea576101ee565b806399eb5967116100dc57806399eb5967146105a9578063a0712d68146105d4578063a22cb465146105f0578063b81c78ec14610619576101ee565b80636352211e146104e657806370a082311461052357806377c655fa1461056057806395d89b411461057e576101ee565b806323b872dd116101855780633fb1a72c116101545780633fb1a72c1461041857806342842e0e146104415780634423c5f11461046a5780634622ab03146104a8576101ee565b806323b872dd1461037d5780632d296bf1146103a65780632dd9dd15146103c2578063384f58eb146103ed576101ee565b806313faede6116101c157806313faede6146102c1578063145f8ba2146102ec57806314b0e2661461032957806318160ddd14610352576101ee565b806301ffc9a7146101f357806306fdde0314610230578063081812fc1461025b578063095ea7b314610298575b600080fd5b3480156101ff57600080fd5b5061021a60048036038101906102159190613312565b6107fa565b604051610227919061335a565b60405180910390f35b34801561023c57600080fd5b506102456108dc565b604051610252919061340e565b60405180910390f35b34801561026757600080fd5b50610282600480360381019061027d9190613466565b61096e565b60405161028f91906134d4565b60405180910390f35b3480156102a457600080fd5b506102bf60048036038101906102ba919061351b565b6109f3565b005b3480156102cd57600080fd5b506102d6610b0b565b6040516102e3919061356a565b60405180910390f35b3480156102f857600080fd5b50610313600480360381019061030e9190613466565b610b11565b604051610320919061365a565b60405180910390f35b34801561033557600080fd5b50610350600480360381019061034b9190613466565b610ca1565b005b34801561035e57600080fd5b50610367610de6565b604051610374919061356a565b60405180910390f35b34801561038957600080fd5b506103a4600480360381019061039f919061367c565b610dec565b005b6103c060048036038101906103bb9190613466565b610ebc565b005b3480156103ce57600080fd5b506103d76110dc565b6040516103e4919061356a565b60405180910390f35b3480156103f957600080fd5b506104026110e6565b60405161040f91906134d4565b60405180910390f35b34801561042457600080fd5b5061043f600480360381019061043a91906136fb565b61110a565b005b34801561044d57600080fd5b506104686004803603810190610463919061367c565b6111c7565b005b34801561047657600080fd5b50610491600480360381019061048c9190613466565b6111e7565b60405161049f92919061375c565b60405180910390f35b3480156104b457600080fd5b506104cf60048036038101906104ca9190613466565b61123b565b6040516104dd929190613785565b60405180910390f35b3480156104f257600080fd5b5061050d60048036038101906105089190613466565b611317565b60405161051a91906134d4565b60405180910390f35b34801561052f57600080fd5b5061054a600480360381019061054591906137b5565b6113c9565b604051610557919061356a565b60405180910390f35b610568611481565b604051610575919061335a565b60405180910390f35b34801561058a57600080fd5b50610593611853565b6040516105a0919061340e565b60405180910390f35b3480156105b557600080fd5b506105be6118e5565b6040516105cb9190613907565b60405180910390f35b6105ee60048036038101906105e99190613466565b611a8c565b005b3480156105fc57600080fd5b5061061760048036038101906106129190613955565b611bce565b005b34801561062557600080fd5b5061062e611be4565b60405161063b9190613a91565b60405180910390f35b34801561065057600080fd5b5061066b60048036038101906106669190613be8565b611ca3565b005b34801561067957600080fd5b50610694600480360381019061068f9190613466565b611d75565b6040516106a49493929190613c7a565b60405180910390f35b3480156106b957600080fd5b506106d460048036038101906106cf9190613466565b611e7d565b6040516106e1919061340e565b60405180910390f35b3480156106f657600080fd5b506106ff611f24565b60405161070c9190613dc5565b60405180910390f35b34801561072157600080fd5b5061073c60048036038101906107379190613e88565b61206b565b005b34801561074a57600080fd5b506107536122d7565b604051610760919061356a565b60405180910390f35b34801561077557600080fd5b50610790600480360381019061078b9190613ee4565b6122dd565b60405161079d919061335a565b60405180910390f35b3480156107b257600080fd5b506107bb612371565b6040516107c8919061356a565b60405180910390f35b3480156107dd57600080fd5b506107f860048036038101906107f39190613f24565b61237b565b005b60007f80ac58cd000000000000000000000000000000000000000000000000000000007bffffffffffffffffffffffffffffffffffffffffffffffffffffffff1916827bffffffffffffffffffffffffffffffffffffffffffffffffffffffff191614806108c557507f5b5e139f000000000000000000000000000000000000000000000000000000007bffffffffffffffffffffffffffffffffffffffffffffffffffffffff1916827bffffffffffffffffffffffffffffffffffffffffffffffffffffffff1916145b806108d557506108d482612508565b5b9050919050565b6060600080546108eb90613fc2565b80601f016020809104026020016040519081016040528092919081815260200182805461091790613fc2565b80156109645780601f1061093957610100808354040283529160200191610964565b820191906000526020600020905b81548152906001019060200180831161094757829003601f168201915b5050505050905090565b600061097982612572565b6109b8576040517f08c379a00000000000000000000000000000000000000000000000000000000081526004016109af90614066565b60405180910390fd5b6004600083815260200190815260200160002060009054906101000a900473ffffffffffffffffffffffffffffffffffffffff169050919050565b60006109fe82611317565b90508073ffffffffffffffffffffffffffffffffffffffff168373ffffffffffffffffffffffffffffffffffffffff161415610a6f576040517f08c379a0000000000000000000000000000000000000000000000000000000008152600401610a66906140f8565b60405180910390fd5b8073ffffffffffffffffffffffffffffffffffffffff16610a8e6125de565b73ffffffffffffffffffffffffffffffffffffffff161480610abd5750610abc81610ab76125de565b6122dd565b5b610afc576040517f08c379a0000000000000000000000000000000000000000000000000000000008152600401610af39061418a565b60405180910390fd5b610b0683836125e6565b505050565b60065481565b610b19613145565b6009600183610b2891906141d9565b81548110610b3957610b3861420d565b5b9060005260206000209060040201604051806080016040529081600082018054610b6290613fc2565b80601f0160208091040260200160405190810160405280929190818152602001828054610b8e90613fc2565b8015610bdb5780601f10610bb057610100808354040283529160200191610bdb565b820191906000526020600020905b815481529060010190602001808311610bbe57829003601f168201915b505050505081526020016001820160009054906101000a900473ffffffffffffffffffffffffffffffffffffffff1673ffffffffffffffffffffffffffffffffffffffff1673ffffffffffffffffffffffffffffffffffffffff1681526020016002820160009054906101000a900473ffffffffffffffffffffffffffffffffffffffff1673ffffffffffffffffffffffffffffffffffffffff1673ffffffffffffffffffffffffffffffffffffffff1681526020016003820154815250509050919050565b6000600a5411610cb057600080fd5b42600c541015610cbf57600080fd5b6000600b805490501115610d1057600b6001600b80549050610ce191906141d9565b81548110610cf257610cf161420d565b5b9060005260206000209060020201600001548111610d0f57600080fd5b5b60b442600c54610d2091906141d9565b1015610d3a5760b442610d33919061423c565b600c819055505b600b60405180604001604052808381526020013373ffffffffffffffffffffffffffffffffffffffff1681525090806001815401808255809150506001900390600052602060002090600202016000909190919091506000820151816000015560208201518160010160006101000a81548173ffffffffffffffffffffffffffffffffffffffff021916908373ffffffffffffffffffffffffffffffffffffffff160217905550505050565b60085481565b610dfd610df76125de565b8261269f565b610e3c576040517f08c379a0000000000000000000000000000000000000000000000000000000008152600401610e3390614304565b60405180910390fd5b816009600183610e4c91906141d9565b81548110610e5d57610e5c61420d565b5b906000526020600020906004020160010160006101000a81548173ffffffffffffffffffffffffffffffffffffffff021916908373ffffffffffffffffffffffffffffffffffffffff160217905550610eb783838361277d565b505050565b60006009600183610ecd91906141d9565b81548110610ede57610edd61420d565b5b90600052602060002090600402016003015413610efa57600080fd5b6009600182610f0991906141d9565b81548110610f1a57610f1961420d565b5b906000526020600020906004020160030154341015610f3857600080fd5b610f946009600183610f4a91906141d9565b81548110610f5b57610f5a61420d565b5b906000526020600020906004020160010160009054906101000a900473ffffffffffffffffffffffffffffffffffffffff16338361277d565b60006009600183610fa591906141d9565b81548110610fb657610fb561420d565b5b906000526020600020906004020160010160009054906101000a900473ffffffffffffffffffffffffffffffffffffffff1690508073ffffffffffffffffffffffffffffffffffffffff166108fc349081150290604051600060405180830381858888f19350505050158015611030573d6000803e3d6000fd5b5033600960018461104191906141d9565b815481106110525761105161420d565b5b906000526020600020906004020160010160006101000a81548173ffffffffffffffffffffffffffffffffffffffff021916908373ffffffffffffffffffffffffffffffffffffffff160217905550600060096001846110b291906141d9565b815481106110c3576110c261420d565b5b9060005260206000209060040201600301819055505050565b6000600a54905090565b7f000000000000000000000000000000000000000000000000000000000000000081565b61111b6111156125de565b8361269f565b61115a576040517f08c379a000000000000000000000000000000000000000000000000000000000815260040161115190614304565b60405180910390fd5b80600960018461116a91906141d9565b8154811061117b5761117a61420d565b5b90600052602060002090600402016003018190555060008112156111c357600b60006111a79190613199565b81600a8190555061012c426111bc919061423c565b600c819055505b5050565b6111e283838360405180602001604052806000815250611ca3565b505050565b600b81815481106111f757600080fd5b90600052602060002090600202016000915090508060000154908060010160009054906101000a900473ffffffffffffffffffffffffffffffffffffffff16905082565b600d818154811061124b57600080fd5b906000526020600020906002020160009150905080600001805461126e90613fc2565b80601f016020809104026020016040519081016040528092919081815260200182805461129a90613fc2565b80156112e75780601f106112bc576101008083540402835291602001916112e7565b820191906000526020600020905b8154815290600101906020018083116112ca57829003601f168201915b5050505050908060010160009054906101000a900473ffffffffffffffffffffffffffffffffffffffff16905082565b6000806002600084815260200190815260200160002060009054906101000a900473ffffffffffffffffffffffffffffffffffffffff169050600073ffffffffffffffffffffffffffffffffffffffff168173ffffffffffffffffffffffffffffffffffffffff1614156113c0576040517f08c379a00000000000000000000000000000000000000000000000000000000081526004016113b790614396565b60405180910390fd5b80915050919050565b60008073ffffffffffffffffffffffffffffffffffffffff168273ffffffffffffffffffffffffffffffffffffffff16141561143a576040517f08c379a000000000000000000000000000000000000000000000000000000000815260040161143190614428565b60405180910390fd5b600360008373ffffffffffffffffffffffffffffffffffffffff1673ffffffffffffffffffffffffffffffffffffffff168152602001908152602001600020549050919050565b600080600a541161149157600080fd5b600c54421161149f57600080fd5b6000600b8054905014156114be576000600a8190555060009050611850565b6000600b6001600b805490506114d491906141d9565b815481106114e5576114e461420d565b5b9060005260206000209060020201604051806040016040529081600082015481526020016001820160009054906101000a900473ffffffffffffffffffffffffffffffffffffffff1673ffffffffffffffffffffffffffffffffffffffff1673ffffffffffffffffffffffffffffffffffffffff16815250509050806020015173ffffffffffffffffffffffffffffffffffffffff163373ffffffffffffffffffffffffffffffffffffffff161461159c57600080fd5b80600001513410156115ad57600080fd5b600060096001600a546115c091906141d9565b815481106115d1576115d061420d565b5b90600052602060002090600402016040518060800160405290816000820180546115fa90613fc2565b80601f016020809104026020016040519081016040528092919081815260200182805461162690613fc2565b80156116735780601f1061164857610100808354040283529160200191611673565b820191906000526020600020905b81548152906001019060200180831161165657829003601f168201915b505050505081526020016001820160009054906101000a900473ffffffffffffffffffffffffffffffffffffffff1673ffffffffffffffffffffffffffffffffffffffff1673ffffffffffffffffffffffffffffffffffffffff1681526020016002820160009054906101000a900473ffffffffffffffffffffffffffffffffffffffff1673ffffffffffffffffffffffffffffffffffffffff1673ffffffffffffffffffffffffffffffffffffffff1681526020016003820154815250509050611745816020015133600a5461277d565b6000816020015190508073ffffffffffffffffffffffffffffffffffffffff166108fc349081150290604051600060405180830381858888f19350505050158015611794573d6000803e3d6000fd5b503360096001600a546117a791906141d9565b815481106117b8576117b761420d565b5b906000526020600020906004020160010160006101000a81548173ffffffffffffffffffffffffffffffffffffffff021916908373ffffffffffffffffffffffffffffffffffffffff160217905550600060096001600a5461181a91906141d9565b8154811061182b5761182a61420d565b5b9060005260206000209060040201600301819055506000600a81905550600193505050505b90565b60606001805461186290613fc2565b80601f016020809104026020016040519081016040528092919081815260200182805461188e90613fc2565b80156118db5780601f106118b0576101008083540402835291602001916118db565b820191906000526020600020905b8154815290600101906020018083116118be57829003601f168201915b5050505050905090565b60606009805480602002602001604051908101604052809291908181526020016000905b82821015611a83578382906000526020600020906004020160405180608001604052908160008201805461193c90613fc2565b80601f016020809104026020016040519081016040528092919081815260200182805461196890613fc2565b80156119b55780601f1061198a576101008083540402835291602001916119b5565b820191906000526020600020905b81548152906001019060200180831161199857829003601f168201915b505050505081526020016001820160009054906101000a900473ffffffffffffffffffffffffffffffffffffffff1673ffffffffffffffffffffffffffffffffffffffff1673ffffffffffffffffffffffffffffffffffffffff1681526020016002820160009054906101000a900473ffffffffffffffffffffffffffffffffffffffff1673ffffffffffffffffffffffffffffffffffffffff1673ffffffffffffffffffffffffffffffffffffffff16815260200160038201548152505081526020019060010190611909565b50505050905090565b60006008549050600754811115611aa257600080fd5b600073ffffffffffffffffffffffffffffffffffffffff166009600184611ac991906141d9565b81548110611ada57611ad961420d565b5b906000526020600020906004020160010160009054906101000a900473ffffffffffffffffffffffffffffffffffffffff1673ffffffffffffffffffffffffffffffffffffffff1614611b2c57600080fd5b600654341015611b3b57600080fd5b336009600184611b4b91906141d9565b81548110611b5c57611b5b61420d565b5b906000526020600020906004020160010160006101000a81548173ffffffffffffffffffffffffffffffffffffffff021916908373ffffffffffffffffffffffffffffffffffffffff1602179055506001600854611bba919061423c565b600881905550611bca33836129e4565b5050565b611be0611bd96125de565b8383612a02565b5050565b6060600b805480602002602001604051908101604052809291908181526020016000905b82821015611c9a5783829060005260206000209060020201604051806040016040529081600082015481526020016001820160009054906101000a900473ffffffffffffffffffffffffffffffffffffffff1673ffffffffffffffffffffffffffffffffffffffff1673ffffffffffffffffffffffffffffffffffffffff168152505081526020019060010190611c08565b50505050905090565b611cb4611cae6125de565b8361269f565b611cf3576040517f08c379a0000000000000000000000000000000000000000000000000000000008152600401611cea90614304565b60405180910390fd5b826009600184611d0391906141d9565b81548110611d1457611d1361420d565b5b906000526020600020906004020160010160006101000a81548173ffffffffffffffffffffffffffffffffffffffff021916908373ffffffffffffffffffffffffffffffffffffffff160217905550611d6f84848484612b6f565b50505050565b60098181548110611d8557600080fd5b9060005260206000209060040201600091509050806000018054611da890613fc2565b80601f0160208091040260200160405190810160405280929190818152602001828054611dd490613fc2565b8015611e215780601f10611df657610100808354040283529160200191611e21565b820191906000526020600020905b815481529060010190602001808311611e0457829003601f168201915b5050505050908060010160009054906101000a900473ffffffffffffffffffffffffffffffffffffffff16908060020160009054906101000a900473ffffffffffffffffffffffffffffffffffffffff16908060030154905084565b6060611e8882612572565b611ec7576040517f08c379a0000000000000000000000000000000000000000000000000000000008152600401611ebe906144ba565b60405180910390fd5b6000611ed1612bcb565b90506000815111611ef15760405180602001604052806000815250611f1c565b80611efb84612beb565b604051602001611f0c929190614516565b6040516020818303038152906040525b915050919050565b6060600d805480602002602001604051908101604052809291908181526020016000905b828210156120625783829060005260206000209060020201604051806040016040529081600082018054611f7b90613fc2565b80601f0160208091040260200160405190810160405280929190818152602001828054611fa790613fc2565b8015611ff45780601f10611fc957610100808354040283529160200191611ff4565b820191906000526020600020905b815481529060010190602001808311611fd757829003601f168201915b505050505081526020016001820160009054906101000a900473ffffffffffffffffffffffffffffffffffffffff1673ffffffffffffffffffffffffffffffffffffffff1673ffffffffffffffffffffffffffffffffffffffff168152505081526020019060010190611f48565b50505050905090565b8173ffffffffffffffffffffffffffffffffffffffff163373ffffffffffffffffffffffffffffffffffffffff1614806120f057507f000000000000000000000000000000000000000000000000000000000000000073ffffffffffffffffffffffffffffffffffffffff163373ffffffffffffffffffffffffffffffffffffffff16145b61212f576040517f08c379a000000000000000000000000000000000000000000000000000000000815260040161212690614586565b60405180910390fd5b6000805b600d8054905081101561220f578373ffffffffffffffffffffffffffffffffffffffff16600d828154811061216b5761216a61420d565b5b906000526020600020906002020160010160009054906101000a900473ffffffffffffffffffffffffffffffffffffffff1673ffffffffffffffffffffffffffffffffffffffff1614156121fc5782600d82815481106121ce576121cd61420d565b5b906000526020600020906002020160000190805190602001906121f29291906131bd565b506001915061220f565b8080612207906145a6565b915050612133565b50806122d257600d60405180604001604052808481526020018573ffffffffffffffffffffffffffffffffffffffff16815250908060018154018082558091505060019003906000526020600020906002020160009091909190915060008201518160000190805190602001906122879291906131bd565b5060208201518160010160006101000a81548173ffffffffffffffffffffffffffffffffffffffff021916908373ffffffffffffffffffffffffffffffffffffffff16021790555050505b505050565b60075481565b6000600560008473ffffffffffffffffffffffffffffffffffffffff1673ffffffffffffffffffffffffffffffffffffffff16815260200190815260200160002060008373ffffffffffffffffffffffffffffffffffffffff1673ffffffffffffffffffffffffffffffffffffffff16815260200190815260200160002060009054906101000a900460ff16905092915050565b6000600c54905090565b7f000000000000000000000000000000000000000000000000000000000000000073ffffffffffffffffffffffffffffffffffffffff163373ffffffffffffffffffffffffffffffffffffffff16146123d357600080fd5b60096040518060800160405280858152602001600073ffffffffffffffffffffffffffffffffffffffff1681526020018473ffffffffffffffffffffffffffffffffffffffff16815260200183815250908060018154018082558091505060019003906000526020600020906004020160009091909190915060008201518160000190805190602001906124689291906131bd565b5060208201518160010160006101000a81548173ffffffffffffffffffffffffffffffffffffffff021916908373ffffffffffffffffffffffffffffffffffffffff16021790555060408201518160020160006101000a81548173ffffffffffffffffffffffffffffffffffffffff021916908373ffffffffffffffffffffffffffffffffffffffff160217905550606082015181600301555050505050565b60007f01ffc9a7000000000000000000000000000000000000000000000000000000007bffffffffffffffffffffffffffffffffffffffffffffffffffffffff1916827bffffffffffffffffffffffffffffffffffffffffffffffffffffffff1916149050919050565b60008073ffffffffffffffffffffffffffffffffffffffff166002600084815260200190815260200160002060009054906101000a900473ffffffffffffffffffffffffffffffffffffffff1673ffffffffffffffffffffffffffffffffffffffff1614159050919050565b600033905090565b816004600083815260200190815260200160002060006101000a81548173ffffffffffffffffffffffffffffffffffffffff021916908373ffffffffffffffffffffffffffffffffffffffff160217905550808273ffffffffffffffffffffffffffffffffffffffff1661265983611317565b73ffffffffffffffffffffffffffffffffffffffff167f8c5be1e5ebec7d5bd14f71427d1e84f3dd0314c0f7b2291e5b200ac8c7c3b92560405160405180910390a45050565b60006126aa82612572565b6126e9576040517f08c379a00000000000000000000000000000000000000000000000000000000081526004016126e090614661565b60405180910390fd5b60006126f483611317565b90508073ffffffffffffffffffffffffffffffffffffffff168473ffffffffffffffffffffffffffffffffffffffff16148061276357508373ffffffffffffffffffffffffffffffffffffffff1661274b8461096e565b73ffffffffffffffffffffffffffffffffffffffff16145b80612774575061277381856122dd565b5b91505092915050565b8273ffffffffffffffffffffffffffffffffffffffff1661279d82611317565b73ffffffffffffffffffffffffffffffffffffffff16146127f3576040517f08c379a00000000000000000000000000000000000000000000000000000000081526004016127ea906146f3565b60405180910390fd5b600073ffffffffffffffffffffffffffffffffffffffff168273ffffffffffffffffffffffffffffffffffffffff161415612863576040517f08c379a000000000000000000000000000000000000000000000000000000000815260040161285a90614785565b60405180910390fd5b61286e838383612d4c565b6128796000826125e6565b6001600360008573ffffffffffffffffffffffffffffffffffffffff1673ffffffffffffffffffffffffffffffffffffffff16815260200190815260200160002060008282546128c991906141d9565b925050819055506001600360008473ffffffffffffffffffffffffffffffffffffffff1673ffffffffffffffffffffffffffffffffffffffff1681526020019081526020016000206000828254612920919061423c565b92505081905550816002600083815260200190815260200160002060006101000a81548173ffffffffffffffffffffffffffffffffffffffff021916908373ffffffffffffffffffffffffffffffffffffffff160217905550808273ffffffffffffffffffffffffffffffffffffffff168473ffffffffffffffffffffffffffffffffffffffff167fddf252ad1be2c89b69c2b068fc378daa952ba7f163c4a11628f55a4df523b3ef60405160405180910390a46129df838383612d51565b505050565b6129fe828260405180602001604052806000815250612d56565b5050565b8173ffffffffffffffffffffffffffffffffffffffff168373ffffffffffffffffffffffffffffffffffffffff161415612a71576040517f08c379a0000000000000000000000000000000000000000000000000000000008152600401612a68906147f1565b60405180910390fd5b80600560008573ffffffffffffffffffffffffffffffffffffffff1673ffffffffffffffffffffffffffffffffffffffff16815260200190815260200160002060008473ffffffffffffffffffffffffffffffffffffffff1673ffffffffffffffffffffffffffffffffffffffff16815260200190815260200160002060006101000a81548160ff0219169083151502179055508173ffffffffffffffffffffffffffffffffffffffff168373ffffffffffffffffffffffffffffffffffffffff167f17307eab39ab6107e8899845ad3d59bd9653f200f220920489ca2b5937696c3183604051612b62919061335a565b60405180910390a3505050565b612b7a84848461277d565b612b8684848484612db1565b612bc5576040517f08c379a0000000000000000000000000000000000000000000000000000000008152600401612bbc90614883565b60405180910390fd5b50505050565b6060604051806080016040528060458152602001614af060459139905090565b60606000821415612c33576040518060400160405280600181526020017f30000000000000000000000000000000000000000000000000000000000000008152509050612d47565b600082905060005b60008214612c65578080612c4e906145a6565b915050600a82612c5e91906148d2565b9150612c3b565b60008167ffffffffffffffff811115612c8157612c80613abd565b5b6040519080825280601f01601f191660200182016040528015612cb35781602001600182028036833780820191505090505b5090505b60008514612d4057600182612ccc91906141d9565b9150600a85612cdb9190614903565b6030612ce7919061423c565b60f81b818381518110612cfd57612cfc61420d565b5b60200101907effffffffffffffffffffffffffffffffffffffffffffffffffffffffffffff1916908160001a905350600a85612d3991906148d2565b9450612cb7565b8093505050505b919050565b505050565b505050565b612d608383612f48565b612d6d6000848484612db1565b612dac576040517f08c379a0000000000000000000000000000000000000000000000000000000008152600401612da390614883565b60405180910390fd5b505050565b6000612dd28473ffffffffffffffffffffffffffffffffffffffff16613122565b15612f3b578373ffffffffffffffffffffffffffffffffffffffff1663150b7a02612dfb6125de565b8786866040518563ffffffff1660e01b8152600401612e1d9493929190614989565b602060405180830381600087803b158015612e3757600080fd5b505af1925050508015612e6857506040513d601f19601f82011682018060405250810190612e6591906149ea565b60015b612eeb573d8060008114612e98576040519150601f19603f3d011682016040523d82523d6000602084013e612e9d565b606091505b50600081511415612ee3576040517f08c379a0000000000000000000000000000000000000000000000000000000008152600401612eda90614883565b60405180910390fd5b805181602001fd5b63150b7a0260e01b7bffffffffffffffffffffffffffffffffffffffffffffffffffffffff1916817bffffffffffffffffffffffffffffffffffffffffffffffffffffffff191614915050612f40565b600190505b949350505050565b600073ffffffffffffffffffffffffffffffffffffffff168273ffffffffffffffffffffffffffffffffffffffff161415612fb8576040517f08c379a0000000000000000000000000000000000000000000000000000000008152600401612faf90614a63565b60405180910390fd5b612fc181612572565b15613001576040517f08c379a0000000000000000000000000000000000000000000000000000000008152600401612ff890614acf565b60405180910390fd5b61300d60008383612d4c565b6001600360008473ffffffffffffffffffffffffffffffffffffffff1673ffffffffffffffffffffffffffffffffffffffff168152602001908152602001600020600082825461305d919061423c565b92505081905550816002600083815260200190815260200160002060006101000a81548173ffffffffffffffffffffffffffffffffffffffff021916908373ffffffffffffffffffffffffffffffffffffffff160217905550808273ffffffffffffffffffffffffffffffffffffffff16600073ffffffffffffffffffffffffffffffffffffffff167fddf252ad1be2c89b69c2b068fc378daa952ba7f163c4a11628f55a4df523b3ef60405160405180910390a461311e60008383612d51565b5050565b6000808273ffffffffffffffffffffffffffffffffffffffff163b119050919050565b604051806080016040528060608152602001600073ffffffffffffffffffffffffffffffffffffffff168152602001600073ffffffffffffffffffffffffffffffffffffffff168152602001600081525090565b50805460008255600202906000526020600020908101906131ba9190613243565b50565b8280546131c990613fc2565b90600052602060002090601f0160209004810192826131eb5760008555613232565b82601f1061320457805160ff1916838001178555613232565b82800160010185558215613232579182015b82811115613231578251825591602001919060010190613216565b5b50905061323f9190613289565b5090565b5b80821115613285576000808201600090556001820160006101000a81549073ffffffffffffffffffffffffffffffffffffffff021916905550600201613244565b5090565b5b808211156132a257600081600090555060010161328a565b5090565b6000604051905090565b600080fd5b600080fd5b60007fffffffff0000000000000000000000000000000000000000000000000000000082169050919050565b6132ef816132ba565b81146132fa57600080fd5b50565b60008135905061330c816132e6565b92915050565b600060208284031215613328576133276132b0565b5b6000613336848285016132fd565b91505092915050565b60008115159050919050565b6133548161333f565b82525050565b600060208201905061336f600083018461334b565b92915050565b600081519050919050565b600082825260208201905092915050565b60005b838110156133af578082015181840152602081019050613394565b838111156133be576000848401525b50505050565b6000601f19601f8301169050919050565b60006133e082613375565b6133ea8185613380565b93506133fa818560208601613391565b613403816133c4565b840191505092915050565b6000602082019050818103600083015261342881846133d5565b905092915050565b6000819050919050565b61344381613430565b811461344e57600080fd5b50565b6000813590506134608161343a565b92915050565b60006020828403121561347c5761347b6132b0565b5b600061348a84828501613451565b91505092915050565b600073ffffffffffffffffffffffffffffffffffffffff82169050919050565b60006134be82613493565b9050919050565b6134ce816134b3565b82525050565b60006020820190506134e960008301846134c5565b92915050565b6134f8816134b3565b811461350357600080fd5b50565b600081359050613515816134ef565b92915050565b60008060408385031215613532576135316132b0565b5b600061354085828601613506565b925050602061355185828601613451565b9150509250929050565b61356481613430565b82525050565b600060208201905061357f600083018461355b565b92915050565b600082825260208201905092915050565b60006135a182613375565b6135ab8185613585565b93506135bb818560208601613391565b6135c4816133c4565b840191505092915050565b6135d8816134b3565b82525050565b6000819050919050565b6135f1816135de565b82525050565b600060808301600083015184820360008601526136148282613596565b915050602083015161362960208601826135cf565b50604083015161363c60408601826135cf565b50606083015161364f60608601826135e8565b508091505092915050565b6000602082019050818103600083015261367481846135f7565b905092915050565b600080600060608486031215613695576136946132b0565b5b60006136a386828701613506565b93505060206136b486828701613506565b92505060406136c586828701613451565b9150509250925092565b6136d8816135de565b81146136e357600080fd5b50565b6000813590506136f5816136cf565b92915050565b60008060408385031215613712576137116132b0565b5b600061372085828601613451565b9250506020613731858286016136e6565b9150509250929050565b600061374682613493565b9050919050565b6137568161373b565b82525050565b6000604082019050613771600083018561355b565b61377e602083018461374d565b9392505050565b6000604082019050818103600083015261379f81856133d5565b90506137ae60208301846134c5565b9392505050565b6000602082840312156137cb576137ca6132b0565b5b60006137d984828501613506565b91505092915050565b600081519050919050565b600082825260208201905092915050565b6000819050602082019050919050565b6000608083016000830151848203600086015261382b8282613596565b915050602083015161384060208601826135cf565b50604083015161385360408601826135cf565b50606083015161386660608601826135e8565b508091505092915050565b600061387d838361380e565b905092915050565b6000602082019050919050565b600061389d826137e2565b6138a781856137ed565b9350836020820285016138b9856137fe565b8060005b858110156138f557848403895281516138d68582613871565b94506138e183613885565b925060208a019950506001810190506138bd565b50829750879550505050505092915050565b600060208201905081810360008301526139218184613892565b905092915050565b6139328161333f565b811461393d57600080fd5b50565b60008135905061394f81613929565b92915050565b6000806040838503121561396c5761396b6132b0565b5b600061397a85828601613506565b925050602061398b85828601613940565b9150509250929050565b600081519050919050565b600082825260208201905092915050565b6000819050602082019050919050565b6139ca81613430565b82525050565b6139d98161373b565b82525050565b6040820160008201516139f560008501826139c1565b506020820151613a0860208501826139d0565b50505050565b6000613a1a83836139df565b60408301905092915050565b6000602082019050919050565b6000613a3e82613995565b613a4881856139a0565b9350613a53836139b1565b8060005b83811015613a84578151613a6b8882613a0e565b9750613a7683613a26565b925050600181019050613a57565b5085935050505092915050565b60006020820190508181036000830152613aab8184613a33565b905092915050565b600080fd5b600080fd5b7f4e487b7100000000000000000000000000000000000000000000000000000000600052604160045260246000fd5b613af5826133c4565b810181811067ffffffffffffffff82111715613b1457613b13613abd565b5b80604052505050565b6000613b276132a6565b9050613b338282613aec565b919050565b600067ffffffffffffffff821115613b5357613b52613abd565b5b613b5c826133c4565b9050602081019050919050565b82818337600083830152505050565b6000613b8b613b8684613b38565b613b1d565b905082815260208101848484011115613ba757613ba6613ab8565b5b613bb2848285613b69565b509392505050565b600082601f830112613bcf57613bce613ab3565b5b8135613bdf848260208601613b78565b91505092915050565b60008060008060808587031215613c0257613c016132b0565b5b6000613c1087828801613506565b9450506020613c2187828801613506565b9350506040613c3287828801613451565b925050606085013567ffffffffffffffff811115613c5357613c526132b5565b5b613c5f87828801613bba565b91505092959194509250565b613c74816135de565b82525050565b60006080820190508181036000830152613c9481876133d5565b9050613ca360208301866134c5565b613cb060408301856134c5565b613cbd6060830184613c6b565b95945050505050565b600081519050919050565b600082825260208201905092915050565b6000819050602082019050919050565b60006040830160008301518482036000860152613d0f8282613596565b9150506020830151613d2460208601826135cf565b508091505092915050565b6000613d3b8383613cf2565b905092915050565b6000602082019050919050565b6000613d5b82613cc6565b613d658185613cd1565b935083602082028501613d7785613ce2565b8060005b85811015613db35784840389528151613d948582613d2f565b9450613d9f83613d43565b925060208a01995050600181019050613d7b565b50829750879550505050505092915050565b60006020820190508181036000830152613ddf8184613d50565b905092915050565b600067ffffffffffffffff821115613e0257613e01613abd565b5b613e0b826133c4565b9050602081019050919050565b6000613e2b613e2684613de7565b613b1d565b905082815260208101848484011115613e4757613e46613ab8565b5b613e52848285613b69565b509392505050565b600082601f830112613e6f57613e6e613ab3565b5b8135613e7f848260208601613e18565b91505092915050565b60008060408385031215613e9f57613e9e6132b0565b5b6000613ead85828601613506565b925050602083013567ffffffffffffffff811115613ece57613ecd6132b5565b5b613eda85828601613e5a565b9150509250929050565b60008060408385031215613efb57613efa6132b0565b5b6000613f0985828601613506565b9250506020613f1a85828601613506565b9150509250929050565b600080600060608486031215613f3d57613f3c6132b0565b5b600084013567ffffffffffffffff811115613f5b57613f5a6132b5565b5b613f6786828701613e5a565b9350506020613f7886828701613506565b9250506040613f89868287016136e6565b9150509250925092565b7f4e487b7100000000000000000000000000000000000000000000000000000000600052602260045260246000fd5b60006002820490506001821680613fda57607f821691505b60208210811415613fee57613fed613f93565b5b50919050565b7f4552433732313a20617070726f76656420717565727920666f72206e6f6e657860008201527f697374656e7420746f6b656e0000000000000000000000000000000000000000602082015250565b6000614050602c83613380565b915061405b82613ff4565b604082019050919050565b6000602082019050818103600083015261407f81614043565b9050919050565b7f4552433732313a20617070726f76616c20746f2063757272656e74206f776e6560008201527f7200000000000000000000000000000000000000000000000000000000000000602082015250565b60006140e2602183613380565b91506140ed82614086565b604082019050919050565b60006020820190508181036000830152614111816140d5565b9050919050565b7f4552433732313a20617070726f76652063616c6c6572206973206e6f74206f7760008201527f6e6572206e6f7220617070726f76656420666f7220616c6c0000000000000000602082015250565b6000614174603883613380565b915061417f82614118565b604082019050919050565b600060208201905081810360008301526141a381614167565b9050919050565b7f4e487b7100000000000000000000000000000000000000000000000000000000600052601160045260246000fd5b60006141e482613430565b91506141ef83613430565b925082821015614202576142016141aa565b5b828203905092915050565b7f4e487b7100000000000000000000000000000000000000000000000000000000600052603260045260246000fd5b600061424782613430565b915061425283613430565b9250827fffffffffffffffffffffffffffffffffffffffffffffffffffffffffffffffff03821115614287576142866141aa565b5b828201905092915050565b7f4552433732313a207472616e736665722063616c6c6572206973206e6f74206f60008201527f776e6572206e6f7220617070726f766564000000000000000000000000000000602082015250565b60006142ee603183613380565b91506142f982614292565b604082019050919050565b6000602082019050818103600083015261431d816142e1565b9050919050565b7f4552433732313a206f776e657220717565727920666f72206e6f6e657869737460008201527f656e7420746f6b656e0000000000000000000000000000000000000000000000602082015250565b6000614380602983613380565b915061438b82614324565b604082019050919050565b600060208201905081810360008301526143af81614373565b9050919050565b7f4552433732313a2062616c616e636520717565727920666f7220746865207a6560008201527f726f206164647265737300000000000000000000000000000000000000000000602082015250565b6000614412602a83613380565b915061441d826143b6565b604082019050919050565b6000602082019050818103600083015261444181614405565b9050919050565b7f4552433732314d657461646174613a2055524920717565727920666f72206e6f60008201527f6e6578697374656e7420746f6b656e0000000000000000000000000000000000602082015250565b60006144a4602f83613380565b91506144af82614448565b604082019050919050565b600060208201905081810360008301526144d381614497565b9050919050565b600081905092915050565b60006144f082613375565b6144fa81856144da565b935061450a818560208601613391565b80840191505092915050565b600061452282856144e5565b915061452e82846144e5565b91508190509392505050565b7f5065726d697373696f6e2064656e696564000000000000000000000000000000600082015250565b6000614570601183613380565b915061457b8261453a565b602082019050919050565b6000602082019050818103600083015261459f81614563565b9050919050565b60006145b182613430565b91507fffffffffffffffffffffffffffffffffffffffffffffffffffffffffffffffff8214156145e4576145e36141aa565b5b600182019050919050565b7f4552433732313a206f70657261746f7220717565727920666f72206e6f6e657860008201527f697374656e7420746f6b656e0000000000000000000000000000000000000000602082015250565b600061464b602c83613380565b9150614656826145ef565b604082019050919050565b6000602082019050818103600083015261467a8161463e565b9050919050565b7f4552433732313a207472616e736665722066726f6d20696e636f72726563742060008201527f6f776e6572000000000000000000000000000000000000000000000000000000602082015250565b60006146dd602583613380565b91506146e882614681565b604082019050919050565b6000602082019050818103600083015261470c816146d0565b9050919050565b7f4552433732313a207472616e7366657220746f20746865207a65726f2061646460008201527f7265737300000000000000000000000000000000000000000000000000000000602082015250565b600061476f602483613380565b915061477a82614713565b604082019050919050565b6000602082019050818103600083015261479e81614762565b9050919050565b7f4552433732313a20617070726f766520746f2063616c6c657200000000000000600082015250565b60006147db601983613380565b91506147e6826147a5565b602082019050919050565b6000602082019050818103600083015261480a816147ce565b9050919050565b7f4552433732313a207472616e7366657220746f206e6f6e20455243373231526560008201527f63656976657220696d706c656d656e7465720000000000000000000000000000602082015250565b600061486d603283613380565b915061487882614811565b604082019050919050565b6000602082019050818103600083015261489c81614860565b9050919050565b7f4e487b7100000000000000000000000000000000000000000000000000000000600052601260045260246000fd5b60006148dd82613430565b91506148e883613430565b9250826148f8576148f76148a3565b5b828204905092915050565b600061490e82613430565b915061491983613430565b925082614929576149286148a3565b5b828206905092915050565b600081519050919050565b600082825260208201905092915050565b600061495b82614934565b614965818561493f565b9350614975818560208601613391565b61497e816133c4565b840191505092915050565b600060808201905061499e60008301876134c5565b6149ab60208301866134c5565b6149b8604083018561355b565b81810360608301526149ca8184614950565b905095945050505050565b6000815190506149e4816132e6565b92915050565b600060208284031215614a00576149ff6132b0565b5b6000614a0e848285016149d5565b91505092915050565b7f4552433732313a206d696e7420746f20746865207a65726f2061646472657373600082015250565b6000614a4d602083613380565b9150614a5882614a17565b602082019050919050565b60006020820190508181036000830152614a7c81614a40565b9050919050565b7f4552433732313a20746f6b656e20616c7265616479206d696e74656400000000600082015250565b6000614ab9601c83613380565b9150614ac482614a83565b602082019050919050565b60006020820190508181036000830152614ae881614aac565b905091905056fe68747470733a2f2f7261772e67697468756275736572636f6e74656e742e636f6d2f63726167746c61622f6772612d6172742f6d61696e2f7372632f6d657461646174612fa26469706673582212205ffbdbf5ec5f5bd63449248ea313b4603038a16ad70746064909c06a39fe2cc964736f6c63430008090033",
  "immutableReferences": {
    "1631": [
      {
        "length": 32,
        "start": 4328
      },
      {
        "length": 32,
        "start": 8354
      },
      {
        "length": 32,
        "start": 9085
      }
    ]
  },
  "source": "// SPDX-License-Identifier: MIT\r\npragma solidity ^0.8.0;\r\n\r\nimport \"@openzeppelin/contracts/token/ERC721/ERC721.sol\";\r\n\r\ncontract Painting is ERC721 {\r\n    uint256 public cost = 0.001 ether; // mint price, will reject if below\r\n    uint256 public maxSupply = 20;\r\n    uint256 public totalSupply = 0;\r\n    address public immutable contract_owner;\r\n\r\n    struct Paint {\r\n        string name;\r\n        address owner;\r\n        address creator;\r\n        int256 list_price; // -1 means auction, 0 means not listed by owner\r\n    }\r\n    Paint[] public paintings;\r\n\r\n    struct Bid {\r\n        uint256 amount;\r\n        address payable bidder;\r\n    }\r\n    // index of current auction\r\n    uint256 auction_painting_id = 0; // 1-based, 0 meant no auction\r\n    // bids are in ascending amount, i.e. last element is highest\r\n    Bid[] public bids;\r\n    uint auction_expiry_date;\r\n\r\n    struct Name {\r\n        string name;\r\n        address wallet_address;\r\n    }\r\n    Name[] public names;\r\n\r\n    constructor(\r\n        string memory _name,\r\n        string memory _symbol,\r\n        uint256 _cost\r\n    ) ERC721(_name, _symbol) {\r\n        _cost = cost;\r\n        contract_owner = msg.sender; // security to restrict addPainting to only deployer\r\n        address creator = address(0x20711d3dB1A31e59AF1DD70b8b613E048B0544E1);\r\n\r\n        addPainting(\"Life Is Good\", creator, 0);\r\n        addPainting(\"Adventures Await\", creator, 0);\r\n        addPainting(\"Journey On\", creator, 0);\r\n        addPainting(\"Speed Up\", creator, 0);\r\n        addPainting(\"Lucky\", creator, 0);\r\n\r\n        addName(address(0x20711d3dB1A31e59AF1DD70b8b613E048B0544E1), \"Van GRA\");\r\n\r\n        /*\r\n        paintings[0].owner=address(0xB793eca1c417B001fa2b82cc35f8488124C54F0e);\r\n        paintings[0].list_price=-1; \r\n        auction_painting_id=1;\r\n        auction_expiry_date=block.timestamp+30 minutes;\r\n        */\r\n    }\r\n\r\n    function _baseURI() internal pure override returns (string memory) {\r\n        return\r\n            \"https://raw.githubusercontent.com/cragtlab/gra-art/main/src/metadata/\";\r\n    }\r\n\r\n    /* name related */\r\n    function addName(address walletAddress, string memory name) public {\r\n        // self update or contract owner update\r\n        require(\r\n            msg.sender == walletAddress || msg.sender == contract_owner,\r\n            \"Permission denied\"\r\n        );\r\n        bool found = false;\r\n        for (uint256 i = 0; i < names.length; i++) {\r\n            if (names[i].wallet_address == walletAddress) {\r\n                names[i].name = name;\r\n                found = true;\r\n                break;\r\n            }\r\n        }\r\n\r\n        if (!found) {\r\n            names.push(Name(name, walletAddress));\r\n        }\r\n    }\r\n\r\n    function getNames() public view returns (Name[] memory) {\r\n        return names;\r\n    }\r\n\r\n    /* end name related */\r\n\r\n    /* auction related  */\r\n    function addBid(uint256 amount) public {\r\n        require(auction_painting_id > 0); // ongoing auction\r\n        require(auction_expiry_date >= block.timestamp); // not expired\r\n        if (bids.length > 0) {\r\n            require(amount > bids[bids.length - 1].amount);\r\n        }\r\n        if (auction_expiry_date - block.timestamp < 3 minutes) {\r\n            auction_expiry_date = block.timestamp + 3 minutes;\r\n        }\r\n\r\n        bids.push(Bid(amount, payable(msg.sender)));\r\n    }\r\n\r\n    function getAuctionPaintingID() public view returns (uint256) {\r\n        return auction_painting_id;\r\n    }\r\n\r\n    function getAuctionExpiryDate() public view returns (uint) {\r\n        return auction_expiry_date;\r\n    }\r\n\r\n    function getBids() public view returns (Bid[] memory) {\r\n        return bids;\r\n    }\r\n\r\n    // to be trigger by top bidder\r\n    function payAuction() public payable returns (bool) {\r\n        require(auction_painting_id > 0);\r\n        require(block.timestamp > auction_expiry_date); // expired\r\n\r\n        if (bids.length == 0) {\r\n            auction_painting_id = 0;\r\n            return false;\r\n        }\r\n\r\n        Bid memory highestBid = bids[bids.length - 1];\r\n        require(msg.sender == highestBid.bidder);\r\n        require(msg.value >= highestBid.amount);\r\n        // to refactor out since also in buyToken?\r\n        Paint memory auction = paintings[auction_painting_id - 1];\r\n        _transfer(auction.owner, msg.sender, auction_painting_id); // transfer token\r\n        address payable _owner = payable(auction.owner);\r\n        _owner.transfer(msg.value); // pay money to seller\r\n        // somehow painting owner and list price  didn't update when use auction variable instead\r\n        paintings[auction_painting_id - 1].owner = msg.sender; // change ownership after all done. must be after transfer\r\n        paintings[auction_painting_id - 1].list_price = 0;\r\n        auction_painting_id = 0; //reset token\r\n        return true;\r\n    }\r\n\r\n    /* end auction related */\r\n\r\n    function addPainting(\r\n        string memory _name,\r\n        address creator,\r\n        int256 list_price\r\n    ) public {\r\n        require(msg.sender == contract_owner);\r\n        paintings.push(Paint(_name, address(0x0), creator, list_price));\r\n    }\r\n\r\n    function mint(uint256 _id) public payable {\r\n        uint256 supply = totalSupply;\r\n        require(supply <= maxSupply);\r\n        require(paintings[_id - 1].owner == address(0x0));\r\n        require(msg.value >= cost);\r\n\r\n        // NOTE: tokenID always starts from 1, but our array starts from 0\r\n        paintings[_id - 1].owner = msg.sender;\r\n        totalSupply = totalSupply + 1;\r\n        _safeMint(msg.sender, _id);\r\n    }\r\n\r\n    function transferFrom(\r\n        address from,\r\n        address to,\r\n        uint256 tokenId\r\n    ) public override {\r\n        require(\r\n            _isApprovedOrOwner(_msgSender(), tokenId),\r\n            \"ERC721: transfer caller is not owner nor approved\"\r\n        );\r\n\r\n        // Update ownership\r\n        paintings[tokenId - 1].owner = to;\r\n        _transfer(from, to, tokenId);\r\n    }\r\n\r\n    function listToken(uint256 _id, int256 list_price) public {\r\n        require(\r\n            _isApprovedOrOwner(_msgSender(), _id),\r\n            \"ERC721: transfer caller is not owner nor approved\"\r\n        );\r\n        paintings[_id - 1].list_price = list_price;\r\n        if (list_price < 0) {\r\n            // should only allow by contract_owner to prevent abuse or clearing ongoing auction\r\n            delete bids;\r\n            auction_painting_id = _id;\r\n            auction_expiry_date = block.timestamp + 5 minutes;\r\n        }\r\n    }\r\n\r\n    function buyToken(uint256 _id) external payable {\r\n        //require(paintings[_id - 1].owner != address(0x0));\r\n        require(paintings[_id - 1].list_price > 0);\r\n        require(msg.value >= uint256(paintings[_id - 1].list_price)); // convert to uint256 only after confirm > 0\r\n\r\n        _transfer(paintings[_id - 1].owner, msg.sender, _id); // transfer token\r\n        address payable _owner = payable(paintings[_id - 1].owner);\r\n        _owner.transfer(msg.value); // pay money to seller\r\n        paintings[_id - 1].owner = msg.sender; // change ownership after all done. must be after transfer\r\n        paintings[_id - 1].list_price = 0;\r\n    }\r\n\r\n    function safeTransferFrom(\r\n        address from,\r\n        address to,\r\n        uint256 tokenId,\r\n        bytes memory _data\r\n    ) public override {\r\n        require(\r\n            _isApprovedOrOwner(_msgSender(), tokenId),\r\n            \"ERC721: transfer caller is not owner nor approved\"\r\n        );\r\n\r\n        // Update ownership\r\n        paintings[tokenId - 1].owner = to;\r\n        _safeTransfer(from, to, tokenId, _data);\r\n    }\r\n\r\n    // Public View Functions\r\n    function getPaintings() public view returns (Paint[] memory) {\r\n        return paintings;\r\n    }\r\n\r\n    function getPainting(uint256 _id) public view returns (Paint memory) {\r\n        return paintings[_id - 1];\r\n    }\r\n}\r\n",
  "sourcePath": "C:\\Users\\user\\Downloads\\gra-art\\src\\contracts\\Painting.sol",
  "compiler": {
    "name": "solc",
    "version": "0.8.9+commit.e5eed63a.Emscripten.clang"
  },
  "schemaVersion": "3.4.15",
  "updatedAt": "2023-10-09T09:53:42.534Z",
  "networkType": "ethereum",
  "devdoc": {
    "kind": "dev",
    "methods": {
      "approve(address,uint256)": {
        "details": "See {IERC721-approve}."
      },
      "balanceOf(address)": {
        "details": "See {IERC721-balanceOf}."
      },
      "getApproved(uint256)": {
        "details": "See {IERC721-getApproved}."
      },
      "isApprovedForAll(address,address)": {
        "details": "See {IERC721-isApprovedForAll}."
      },
      "name()": {
        "details": "See {IERC721Metadata-name}."
      },
      "ownerOf(uint256)": {
        "details": "See {IERC721-ownerOf}."
      },
      "safeTransferFrom(address,address,uint256)": {
        "details": "See {IERC721-safeTransferFrom}."
      },
      "safeTransferFrom(address,address,uint256,bytes)": {
        "details": "See {IERC721-safeTransferFrom}."
      },
      "setApprovalForAll(address,bool)": {
        "details": "See {IERC721-setApprovalForAll}."
      },
      "supportsInterface(bytes4)": {
        "details": "See {IERC165-supportsInterface}."
      },
      "symbol()": {
        "details": "See {IERC721Metadata-symbol}."
      },
      "tokenURI(uint256)": {
        "details": "See {IERC721Metadata-tokenURI}."
      },
      "transferFrom(address,address,uint256)": {
        "details": "See {IERC721-transferFrom}."
      }
    },
    "version": 1
  },
  "userdoc": {
    "kind": "user",
    "methods": {},
    "version": 1
  }
}