{
  "contractName": "Painting",
  "abi": [
    {
      "inputs": [
        {
          "internalType": "string",
          "name": "_name",
          "type": "string"
        },
        {
          "internalType": "string",
          "name": "_symbol",
          "type": "string"
        },
        {
          "internalType": "uint256",
          "name": "_cost",
          "type": "uint256"
        }
      ],
      "stateMutability": "nonpayable",
      "type": "constructor"
    },
    {
      "anonymous": false,
      "inputs": [
        {
          "indexed": true,
          "internalType": "address",
          "name": "owner",
          "type": "address"
        },
        {
          "indexed": true,
          "internalType": "address",
          "name": "approved",
          "type": "address"
        },
        {
          "indexed": true,
          "internalType": "uint256",
          "name": "tokenId",
          "type": "uint256"
        }
      ],
      "name": "Approval",
      "type": "event"
    },
    {
      "anonymous": false,
      "inputs": [
        {
          "indexed": true,
          "internalType": "address",
          "name": "owner",
          "type": "address"
        },
        {
          "indexed": true,
          "internalType": "address",
          "name": "operator",
          "type": "address"
        },
        {
          "indexed": false,
          "internalType": "bool",
          "name": "approved",
          "type": "bool"
        }
      ],
      "name": "ApprovalForAll",
      "type": "event"
    },
    {
      "anonymous": false,
      "inputs": [
        {
          "indexed": true,
          "internalType": "address",
          "name": "from",
          "type": "address"
        },
        {
          "indexed": true,
          "internalType": "address",
          "name": "to",
          "type": "address"
        },
        {
          "indexed": true,
          "internalType": "uint256",
          "name": "tokenId",
          "type": "uint256"
        }
      ],
      "name": "Transfer",
      "type": "event"
    },
    {
      "inputs": [
        {
          "internalType": "address",
          "name": "to",
          "type": "address"
        },
        {
          "internalType": "uint256",
          "name": "tokenId",
          "type": "uint256"
        }
      ],
      "name": "approve",
      "outputs": [],
      "stateMutability": "nonpayable",
      "type": "function"
    },
    {
      "inputs": [
        {
          "internalType": "address",
          "name": "owner",
          "type": "address"
        }
      ],
      "name": "balanceOf",
      "outputs": [
        {
          "internalType": "uint256",
          "name": "",
          "type": "uint256"
        }
      ],
      "stateMutability": "view",
      "type": "function"
    },
    {
      "inputs": [],
      "name": "cost",
      "outputs": [
        {
          "internalType": "uint256",
          "name": "",
          "type": "uint256"
        }
      ],
      "stateMutability": "view",
      "type": "function"
    },
    {
      "inputs": [
        {
          "internalType": "uint256",
          "name": "tokenId",
          "type": "uint256"
        }
      ],
      "name": "getApproved",
      "outputs": [
        {
          "internalType": "address",
          "name": "",
          "type": "address"
        }
      ],
      "stateMutability": "view",
      "type": "function"
    },
    {
      "inputs": [
        {
          "internalType": "address",
          "name": "owner",
          "type": "address"
        },
        {
          "internalType": "address",
          "name": "operator",
          "type": "address"
        }
      ],
      "name": "isApprovedForAll",
      "outputs": [
        {
          "internalType": "bool",
          "name": "",
          "type": "bool"
        }
      ],
      "stateMutability": "view",
      "type": "function"
    },
    {
      "inputs": [],
      "name": "maxSupply",
      "outputs": [
        {
          "internalType": "uint256",
          "name": "",
          "type": "uint256"
        }
      ],
      "stateMutability": "view",
      "type": "function"
    },
    {
      "inputs": [],
      "name": "name",
      "outputs": [
        {
          "internalType": "string",
          "name": "",
          "type": "string"
        }
      ],
      "stateMutability": "view",
      "type": "function"
    },
    {
      "inputs": [
        {
          "internalType": "uint256",
          "name": "tokenId",
          "type": "uint256"
        }
      ],
      "name": "ownerOf",
      "outputs": [
        {
          "internalType": "address",
          "name": "",
          "type": "address"
        }
      ],
      "stateMutability": "view",
      "type": "function"
    },
    {
      "inputs": [
        {
          "internalType": "uint256",
          "name": "",
          "type": "uint256"
        }
      ],
      "name": "paintings",
      "outputs": [
        {
          "internalType": "string",
          "name": "name",
          "type": "string"
        },
        {
          "internalType": "address",
          "name": "owner",
          "type": "address"
        },
        {
          "internalType": "uint256",
          "name": "list_price",
          "type": "uint256"
        }
      ],
      "stateMutability": "view",
      "type": "function"
    },
    {
      "inputs": [
        {
          "internalType": "address",
          "name": "operator",
          "type": "address"
        },
        {
          "internalType": "bool",
          "name": "approved",
          "type": "bool"
        }
      ],
      "name": "setApprovalForAll",
      "outputs": [],
      "stateMutability": "nonpayable",
      "type": "function"
    },
    {
      "inputs": [
        {
          "internalType": "bytes4",
          "name": "interfaceId",
          "type": "bytes4"
        }
      ],
      "name": "supportsInterface",
      "outputs": [
        {
          "internalType": "bool",
          "name": "",
          "type": "bool"
        }
      ],
      "stateMutability": "view",
      "type": "function"
    },
    {
      "inputs": [],
      "name": "symbol",
      "outputs": [
        {
          "internalType": "string",
          "name": "",
          "type": "string"
        }
      ],
      "stateMutability": "view",
      "type": "function"
    },
    {
      "inputs": [
        {
          "internalType": "uint256",
          "name": "tokenId",
          "type": "uint256"
        }
      ],
      "name": "tokenURI",
      "outputs": [
        {
          "internalType": "string",
          "name": "",
          "type": "string"
        }
      ],
      "stateMutability": "view",
      "type": "function"
    },
    {
      "inputs": [],
      "name": "totalSupply",
      "outputs": [
        {
          "internalType": "uint256",
          "name": "",
          "type": "uint256"
        }
      ],
      "stateMutability": "view",
      "type": "function"
    },
    {
      "inputs": [
        {
          "internalType": "uint256",
          "name": "_id",
          "type": "uint256"
        }
      ],
      "name": "mint",
      "outputs": [],
      "stateMutability": "payable",
      "type": "function"
    },
    {
      "inputs": [
        {
          "internalType": "address",
          "name": "from",
          "type": "address"
        },
        {
          "internalType": "address",
          "name": "to",
          "type": "address"
        },
        {
          "internalType": "uint256",
          "name": "tokenId",
          "type": "uint256"
        }
      ],
      "name": "transferFrom",
      "outputs": [],
      "stateMutability": "nonpayable",
      "type": "function"
    },
    {
      "inputs": [
        {
          "internalType": "uint256",
          "name": "_id",
          "type": "uint256"
        },
        {
          "internalType": "uint256",
          "name": "list_price",
          "type": "uint256"
        }
      ],
      "name": "listToken",
      "outputs": [],
      "stateMutability": "nonpayable",
      "type": "function"
    },
    {
      "inputs": [
        {
          "internalType": "uint256",
          "name": "_id",
          "type": "uint256"
        }
      ],
      "name": "buyToken",
      "outputs": [],
      "stateMutability": "payable",
      "type": "function"
    },
    {
      "inputs": [
        {
          "internalType": "address",
          "name": "from",
          "type": "address"
        },
        {
          "internalType": "address",
          "name": "to",
          "type": "address"
        },
        {
          "internalType": "uint256",
          "name": "tokenId",
          "type": "uint256"
        }
      ],
      "name": "safeTransferFrom",
      "outputs": [],
      "stateMutability": "nonpayable",
      "type": "function"
    },
    {
      "inputs": [
        {
          "internalType": "address",
          "name": "from",
          "type": "address"
        },
        {
          "internalType": "address",
          "name": "to",
          "type": "address"
        },
        {
          "internalType": "uint256",
          "name": "tokenId",
          "type": "uint256"
        },
        {
          "internalType": "bytes",
          "name": "_data",
          "type": "bytes"
        }
      ],
      "name": "safeTransferFrom",
      "outputs": [],
      "stateMutability": "nonpayable",
      "type": "function"
    },
    {
      "inputs": [],
      "name": "getPaintings",
      "outputs": [
        {
          "components": [
            {
              "internalType": "string",
              "name": "name",
              "type": "string"
            },
            {
              "internalType": "address",
              "name": "owner",
              "type": "address"
            },
            {
              "internalType": "uint256",
              "name": "list_price",
              "type": "uint256"
            }
          ],
          "internalType": "struct Painting.Paint[]",
          "name": "",
          "type": "tuple[]"
        }
      ],
      "stateMutability": "view",
      "type": "function"
    },
    {
      "inputs": [
        {
          "internalType": "uint256",
          "name": "_id",
          "type": "uint256"
        }
      ],
      "name": "getPainting",
      "outputs": [
        {
          "components": [
            {
              "internalType": "string",
              "name": "name",
              "type": "string"
            },
            {
              "internalType": "address",
              "name": "owner",
              "type": "address"
            },
            {
              "internalType": "uint256",
              "name": "list_price",
              "type": "uint256"
            }
          ],
          "internalType": "struct Painting.Paint",
          "name": "",
          "type": "tuple"
        }
      ],
      "stateMutability": "view",
      "type": "function"
    }
  ],
  "bytecode": "0x608060405266038d7ea4c68000600655601460075560006008553480156200002657600080fd5b5060405162003e4d38038062003e4d83398181016040528101906200004c919062000831565b8282816000908051906020019062000066929190620005a9565b5080600190805190602001906200007f929190620005a9565b5050506006549050600960405180606001604052806040518060400160405280600c81526020017f4c69666520497320476f6f6400000000000000000000000000000000000000008152508152602001600073ffffffffffffffffffffffffffffffffffffffff16815260200160008152509080600181540180825580915050600190039060005260206000209060030201600090919091909150600082015181600001908051906020019062000138929190620005a9565b5060208201518160010160006101000a81548173ffffffffffffffffffffffffffffffffffffffff021916908373ffffffffffffffffffffffffffffffffffffffff160217905550604082015181600201555050600960405180606001604052806040518060400160405280601081526020017f416476656e7475726573204177616974000000000000000000000000000000008152508152602001600073ffffffffffffffffffffffffffffffffffffffff1681526020016000815250908060018154018082558091505060019003906000526020600020906003020160009091909190915060008201518160000190805190602001906200023d929190620005a9565b5060208201518160010160006101000a81548173ffffffffffffffffffffffffffffffffffffffff021916908373ffffffffffffffffffffffffffffffffffffffff160217905550604082015181600201555050600960405180606001604052806040518060400160405280600a81526020017f4a6f75726e6579204f6e000000000000000000000000000000000000000000008152508152602001600073ffffffffffffffffffffffffffffffffffffffff16815260200160008152509080600181540180825580915050600190039060005260206000209060030201600090919091909150600082015181600001908051906020019062000342929190620005a9565b5060208201518160010160006101000a81548173ffffffffffffffffffffffffffffffffffffffff021916908373ffffffffffffffffffffffffffffffffffffffff160217905550604082015181600201555050600960405180606001604052806040518060400160405280600881526020017f53706565642055700000000000000000000000000000000000000000000000008152508152602001600073ffffffffffffffffffffffffffffffffffffffff16815260200160008152509080600181540180825580915050600190039060005260206000209060030201600090919091909150600082015181600001908051906020019062000447929190620005a9565b5060208201518160010160006101000a81548173ffffffffffffffffffffffffffffffffffffffff021916908373ffffffffffffffffffffffffffffffffffffffff160217905550604082015181600201555050600960405180606001604052806040518060400160405280600581526020017f4c75636b790000000000000000000000000000000000000000000000000000008152508152602001600073ffffffffffffffffffffffffffffffffffffffff1681526020016000815250908060018154018082558091505060019003906000526020600020906003020160009091909190915060008201518160000190805190602001906200054c929190620005a9565b5060208201518160010160006101000a81548173ffffffffffffffffffffffffffffffffffffffff021916908373ffffffffffffffffffffffffffffffffffffffff16021790555060408201518160020155505050505062000930565b828054620005b790620008fa565b90600052602060002090601f016020900481019282620005db576000855562000627565b82601f10620005f657805160ff191683800117855562000627565b8280016001018555821562000627579182015b828111156200062657825182559160200191906001019062000609565b5b5090506200063691906200063a565b5090565b5b80821115620006555760008160009055506001016200063b565b5090565b6000604051905090565b600080fd5b600080fd5b600080fd5b600080fd5b6000601f19601f8301169050919050565b7f4e487b7100000000000000000000000000000000000000000000000000000000600052604160045260246000fd5b620006c28262000677565b810181811067ffffffffffffffff82111715620006e457620006e362000688565b5b80604052505050565b6000620006f962000659565b9050620007078282620006b7565b919050565b600067ffffffffffffffff8211156200072a576200072962000688565b5b620007358262000677565b9050602081019050919050565b60005b838110156200076257808201518184015260208101905062000745565b8381111562000772576000848401525b50505050565b60006200078f62000789846200070c565b620006ed565b905082815260208101848484011115620007ae57620007ad62000672565b5b620007bb84828562000742565b509392505050565b600082601f830112620007db57620007da6200066d565b5b8151620007ed84826020860162000778565b91505092915050565b6000819050919050565b6200080b81620007f6565b81146200081757600080fd5b50565b6000815190506200082b8162000800565b92915050565b6000806000606084860312156200084d576200084c62000663565b5b600084015167ffffffffffffffff8111156200086e576200086d62000668565b5b6200087c86828701620007c3565b935050602084015167ffffffffffffffff811115620008a0576200089f62000668565b5b620008ae86828701620007c3565b9250506040620008c1868287016200081a565b9150509250925092565b7f4e487b7100000000000000000000000000000000000000000000000000000000600052602260045260246000fd5b600060028204905060018216806200091357607f821691505b602082108114156200092a5762000929620008cb565b5b50919050565b61350d80620009406000396000f3fe6080604052600436106101355760003560e01c806370a08231116100ab578063a22cb4651161006f578063a22cb4651461041e578063b88d4fde14610447578063c7ca6daa14610470578063c87b56dd146104af578063d5abeb01146104ec578063e985e9c51461051757610135565b806370a082311461034657806375c1631d1461038357806395d89b41146103ac57806399eb5967146103d7578063a0712d681461040257610135565b8063145f8ba2116100fd578063145f8ba21461023357806318160ddd1461027057806323b872dd1461029b5780632d296bf1146102c457806342842e0e146102e05780636352211e1461030957610135565b806301ffc9a71461013a57806306fdde0314610177578063081812fc146101a2578063095ea7b3146101df57806313faede614610208575b600080fd5b34801561014657600080fd5b50610161600480360381019061015c91906121bf565b610554565b60405161016e9190612207565b60405180910390f35b34801561018357600080fd5b5061018c610636565b60405161019991906122bb565b60405180910390f35b3480156101ae57600080fd5b506101c960048036038101906101c49190612313565b6106c8565b6040516101d69190612381565b60405180910390f35b3480156101eb57600080fd5b50610206600480360381019061020191906123c8565b61074d565b005b34801561021457600080fd5b5061021d610865565b60405161022a9190612417565b60405180910390f35b34801561023f57600080fd5b5061025a60048036038101906102559190612313565b61086b565b60405161026791906124ea565b60405180910390f35b34801561027c57600080fd5b506102856109a5565b6040516102929190612417565b60405180910390f35b3480156102a757600080fd5b506102c260048036038101906102bd919061250c565b6109ab565b005b6102de60048036038101906102d99190612313565b610a7b565b005b3480156102ec57600080fd5b506103076004803603810190610302919061250c565b610c9b565b005b34801561031557600080fd5b50610330600480360381019061032b9190612313565b610cbb565b60405161033d9190612381565b60405180910390f35b34801561035257600080fd5b5061036d6004803603810190610368919061255f565b610d6d565b60405161037a9190612417565b60405180910390f35b34801561038f57600080fd5b506103aa60048036038101906103a5919061258c565b610e25565b005b3480156103b857600080fd5b506103c1610eaf565b6040516103ce91906122bb565b60405180910390f35b3480156103e357600080fd5b506103ec610f41565b6040516103f991906126de565b60405180910390f35b61041c60048036038101906104179190612313565b611092565b005b34801561042a57600080fd5b506104456004803603810190610440919061272c565b6111d4565b005b34801561045357600080fd5b5061046e600480360381019061046991906128a1565b6111ea565b005b34801561047c57600080fd5b5061049760048036038101906104929190612313565b6112bc565b6040516104a693929190612924565b60405180910390f35b3480156104bb57600080fd5b506104d660048036038101906104d19190612313565b61139e565b6040516104e391906122bb565b60405180910390f35b3480156104f857600080fd5b50610501611445565b60405161050e9190612417565b60405180910390f35b34801561052357600080fd5b5061053e60048036038101906105399190612962565b61144b565b60405161054b9190612207565b60405180910390f35b60007f80ac58cd000000000000000000000000000000000000000000000000000000007bffffffffffffffffffffffffffffffffffffffffffffffffffffffff1916827bffffffffffffffffffffffffffffffffffffffffffffffffffffffff1916148061061f57507f5b5e139f000000000000000000000000000000000000000000000000000000007bffffffffffffffffffffffffffffffffffffffffffffffffffffffff1916827bffffffffffffffffffffffffffffffffffffffffffffffffffffffff1916145b8061062f575061062e826114df565b5b9050919050565b606060008054610645906129d1565b80601f0160208091040260200160405190810160405280929190818152602001828054610671906129d1565b80156106be5780601f10610693576101008083540402835291602001916106be565b820191906000526020600020905b8154815290600101906020018083116106a157829003601f168201915b5050505050905090565b60006106d382611549565b610712576040517f08c379a000000000000000000000000000000000000000000000000000000000815260040161070990612a75565b60405180910390fd5b6004600083815260200190815260200160002060009054906101000a900473ffffffffffffffffffffffffffffffffffffffff169050919050565b600061075882610cbb565b90508073ffffffffffffffffffffffffffffffffffffffff168373ffffffffffffffffffffffffffffffffffffffff1614156107c9576040517f08c379a00000000000000000000000000000000000000000000000000000000081526004016107c090612b07565b60405180910390fd5b8073ffffffffffffffffffffffffffffffffffffffff166107e86115b5565b73ffffffffffffffffffffffffffffffffffffffff1614806108175750610816816108116115b5565b61144b565b5b610856576040517f08c379a000000000000000000000000000000000000000000000000000000000815260040161084d90612b99565b60405180910390fd5b61086083836115bd565b505050565b60065481565b61087361211c565b60096001836108829190612be8565b8154811061089357610892612c1c565b5b90600052602060002090600302016040518060600160405290816000820180546108bc906129d1565b80601f01602080910402602001604051908101604052809291908181526020018280546108e8906129d1565b80156109355780601f1061090a57610100808354040283529160200191610935565b820191906000526020600020905b81548152906001019060200180831161091857829003601f168201915b505050505081526020016001820160009054906101000a900473ffffffffffffffffffffffffffffffffffffffff1673ffffffffffffffffffffffffffffffffffffffff1673ffffffffffffffffffffffffffffffffffffffff1681526020016002820154815250509050919050565b60085481565b6109bc6109b66115b5565b82611676565b6109fb576040517f08c379a00000000000000000000000000000000000000000000000000000000081526004016109f290612cbd565b60405180910390fd5b816009600183610a0b9190612be8565b81548110610a1c57610a1b612c1c565b5b906000526020600020906003020160010160006101000a81548173ffffffffffffffffffffffffffffffffffffffff021916908373ffffffffffffffffffffffffffffffffffffffff160217905550610a76838383611754565b505050565b60006009600183610a8c9190612be8565b81548110610a9d57610a9c612c1c565b5b90600052602060002090600302016002015411610ab957600080fd5b6009600182610ac89190612be8565b81548110610ad957610ad8612c1c565b5b906000526020600020906003020160020154341015610af757600080fd5b610b536009600183610b099190612be8565b81548110610b1a57610b19612c1c565b5b906000526020600020906003020160010160009054906101000a900473ffffffffffffffffffffffffffffffffffffffff163383611754565b60006009600183610b649190612be8565b81548110610b7557610b74612c1c565b5b906000526020600020906003020160010160009054906101000a900473ffffffffffffffffffffffffffffffffffffffff1690508073ffffffffffffffffffffffffffffffffffffffff166108fc349081150290604051600060405180830381858888f19350505050158015610bef573d6000803e3d6000fd5b50336009600184610c009190612be8565b81548110610c1157610c10612c1c565b5b906000526020600020906003020160010160006101000a81548173ffffffffffffffffffffffffffffffffffffffff021916908373ffffffffffffffffffffffffffffffffffffffff16021790555060006009600184610c719190612be8565b81548110610c8257610c81612c1c565b5b9060005260206000209060030201600201819055505050565b610cb6838383604051806020016040528060008152506111ea565b505050565b6000806002600084815260200190815260200160002060009054906101000a900473ffffffffffffffffffffffffffffffffffffffff169050600073ffffffffffffffffffffffffffffffffffffffff168173ffffffffffffffffffffffffffffffffffffffff161415610d64576040517f08c379a0000000000000000000000000000000000000000000000000000000008152600401610d5b90612d4f565b60405180910390fd5b80915050919050565b60008073ffffffffffffffffffffffffffffffffffffffff168273ffffffffffffffffffffffffffffffffffffffff161415610dde576040517f08c379a0000000000000000000000000000000000000000000000000000000008152600401610dd590612de1565b60405180910390fd5b600360008373ffffffffffffffffffffffffffffffffffffffff1673ffffffffffffffffffffffffffffffffffffffff168152602001908152602001600020549050919050565b610e36610e306115b5565b83611676565b610e75576040517f08c379a0000000000000000000000000000000000000000000000000000000008152600401610e6c90612cbd565b60405180910390fd5b806009600184610e859190612be8565b81548110610e9657610e95612c1c565b5b9060005260206000209060030201600201819055505050565b606060018054610ebe906129d1565b80601f0160208091040260200160405190810160405280929190818152602001828054610eea906129d1565b8015610f375780601f10610f0c57610100808354040283529160200191610f37565b820191906000526020600020905b815481529060010190602001808311610f1a57829003601f168201915b5050505050905090565b60606009805480602002602001604051908101604052809291908181526020016000905b828210156110895783829060005260206000209060030201604051806060016040529081600082018054610f98906129d1565b80601f0160208091040260200160405190810160405280929190818152602001828054610fc4906129d1565b80156110115780601f10610fe657610100808354040283529160200191611011565b820191906000526020600020905b815481529060010190602001808311610ff457829003601f168201915b505050505081526020016001820160009054906101000a900473ffffffffffffffffffffffffffffffffffffffff1673ffffffffffffffffffffffffffffffffffffffff1673ffffffffffffffffffffffffffffffffffffffff16815260200160028201548152505081526020019060010190610f65565b50505050905090565b600060085490506007548111156110a857600080fd5b600073ffffffffffffffffffffffffffffffffffffffff1660096001846110cf9190612be8565b815481106110e0576110df612c1c565b5b906000526020600020906003020160010160009054906101000a900473ffffffffffffffffffffffffffffffffffffffff1673ffffffffffffffffffffffffffffffffffffffff161461113257600080fd5b60065434101561114157600080fd5b3360096001846111519190612be8565b8154811061116257611161612c1c565b5b906000526020600020906003020160010160006101000a81548173ffffffffffffffffffffffffffffffffffffffff021916908373ffffffffffffffffffffffffffffffffffffffff16021790555060016008546111c09190612e01565b6008819055506111d033836119bb565b5050565b6111e66111df6115b5565b83836119d9565b5050565b6111fb6111f56115b5565b83611676565b61123a576040517f08c379a000000000000000000000000000000000000000000000000000000000815260040161123190612cbd565b60405180910390fd5b82600960018461124a9190612be8565b8154811061125b5761125a612c1c565b5b906000526020600020906003020160010160006101000a81548173ffffffffffffffffffffffffffffffffffffffff021916908373ffffffffffffffffffffffffffffffffffffffff1602179055506112b684848484611b46565b50505050565b600981815481106112cc57600080fd5b90600052602060002090600302016000915090508060000180546112ef906129d1565b80601f016020809104026020016040519081016040528092919081815260200182805461131b906129d1565b80156113685780601f1061133d57610100808354040283529160200191611368565b820191906000526020600020905b81548152906001019060200180831161134b57829003601f168201915b5050505050908060010160009054906101000a900473ffffffffffffffffffffffffffffffffffffffff16908060020154905083565b60606113a982611549565b6113e8576040517f08c379a00000000000000000000000000000000000000000000000000000000081526004016113df90612ec9565b60405180910390fd5b60006113f2611ba2565b90506000815111611412576040518060200160405280600081525061143d565b8061141c84611bc2565b60405160200161142d929190612f25565b6040516020818303038152906040525b915050919050565b60075481565b6000600560008473ffffffffffffffffffffffffffffffffffffffff1673ffffffffffffffffffffffffffffffffffffffff16815260200190815260200160002060008373ffffffffffffffffffffffffffffffffffffffff1673ffffffffffffffffffffffffffffffffffffffff16815260200190815260200160002060009054906101000a900460ff16905092915050565b60007f01ffc9a7000000000000000000000000000000000000000000000000000000007bffffffffffffffffffffffffffffffffffffffffffffffffffffffff1916827bffffffffffffffffffffffffffffffffffffffffffffffffffffffff1916149050919050565b60008073ffffffffffffffffffffffffffffffffffffffff166002600084815260200190815260200160002060009054906101000a900473ffffffffffffffffffffffffffffffffffffffff1673ffffffffffffffffffffffffffffffffffffffff1614159050919050565b600033905090565b816004600083815260200190815260200160002060006101000a81548173ffffffffffffffffffffffffffffffffffffffff021916908373ffffffffffffffffffffffffffffffffffffffff160217905550808273ffffffffffffffffffffffffffffffffffffffff1661163083610cbb565b73ffffffffffffffffffffffffffffffffffffffff167f8c5be1e5ebec7d5bd14f71427d1e84f3dd0314c0f7b2291e5b200ac8c7c3b92560405160405180910390a45050565b600061168182611549565b6116c0576040517f08c379a00000000000000000000000000000000000000000000000000000000081526004016116b790612fbb565b60405180910390fd5b60006116cb83610cbb565b90508073ffffffffffffffffffffffffffffffffffffffff168473ffffffffffffffffffffffffffffffffffffffff16148061173a57508373ffffffffffffffffffffffffffffffffffffffff16611722846106c8565b73ffffffffffffffffffffffffffffffffffffffff16145b8061174b575061174a818561144b565b5b91505092915050565b8273ffffffffffffffffffffffffffffffffffffffff1661177482610cbb565b73ffffffffffffffffffffffffffffffffffffffff16146117ca576040517f08c379a00000000000000000000000000000000000000000000000000000000081526004016117c19061304d565b60405180910390fd5b600073ffffffffffffffffffffffffffffffffffffffff168273ffffffffffffffffffffffffffffffffffffffff16141561183a576040517f08c379a0000000000000000000000000000000000000000000000000000000008152600401611831906130df565b60405180910390fd5b611845838383611d23565b6118506000826115bd565b6001600360008573ffffffffffffffffffffffffffffffffffffffff1673ffffffffffffffffffffffffffffffffffffffff16815260200190815260200160002060008282546118a09190612be8565b925050819055506001600360008473ffffffffffffffffffffffffffffffffffffffff1673ffffffffffffffffffffffffffffffffffffffff16815260200190815260200160002060008282546118f79190612e01565b92505081905550816002600083815260200190815260200160002060006101000a81548173ffffffffffffffffffffffffffffffffffffffff021916908373ffffffffffffffffffffffffffffffffffffffff160217905550808273ffffffffffffffffffffffffffffffffffffffff168473ffffffffffffffffffffffffffffffffffffffff167fddf252ad1be2c89b69c2b068fc378daa952ba7f163c4a11628f55a4df523b3ef60405160405180910390a46119b6838383611d28565b505050565b6119d5828260405180602001604052806000815250611d2d565b5050565b8173ffffffffffffffffffffffffffffffffffffffff168373ffffffffffffffffffffffffffffffffffffffff161415611a48576040517f08c379a0000000000000000000000000000000000000000000000000000000008152600401611a3f9061314b565b60405180910390fd5b80600560008573ffffffffffffffffffffffffffffffffffffffff1673ffffffffffffffffffffffffffffffffffffffff16815260200190815260200160002060008473ffffffffffffffffffffffffffffffffffffffff1673ffffffffffffffffffffffffffffffffffffffff16815260200190815260200160002060006101000a81548160ff0219169083151502179055508173ffffffffffffffffffffffffffffffffffffffff168373ffffffffffffffffffffffffffffffffffffffff167f17307eab39ab6107e8899845ad3d59bd9653f200f220920489ca2b5937696c3183604051611b399190612207565b60405180910390a3505050565b611b51848484611754565b611b5d84848484611d88565b611b9c576040517f08c379a0000000000000000000000000000000000000000000000000000000008152600401611b93906131dd565b60405180910390fd5b50505050565b606060405180608001604052806045815260200161349360459139905090565b60606000821415611c0a576040518060400160405280600181526020017f30000000000000000000000000000000000000000000000000000000000000008152509050611d1e565b600082905060005b60008214611c3c578080611c25906131fd565b915050600a82611c359190613275565b9150611c12565b60008167ffffffffffffffff811115611c5857611c57612776565b5b6040519080825280601f01601f191660200182016040528015611c8a5781602001600182028036833780820191505090505b5090505b60008514611d1757600182611ca39190612be8565b9150600a85611cb291906132a6565b6030611cbe9190612e01565b60f81b818381518110611cd457611cd3612c1c565b5b60200101907effffffffffffffffffffffffffffffffffffffffffffffffffffffffffffff1916908160001a905350600a85611d109190613275565b9450611c8e565b8093505050505b919050565b505050565b505050565b611d378383611f1f565b611d446000848484611d88565b611d83576040517f08c379a0000000000000000000000000000000000000000000000000000000008152600401611d7a906131dd565b60405180910390fd5b505050565b6000611da98473ffffffffffffffffffffffffffffffffffffffff166120f9565b15611f12578373ffffffffffffffffffffffffffffffffffffffff1663150b7a02611dd26115b5565b8786866040518563ffffffff1660e01b8152600401611df4949392919061332c565b602060405180830381600087803b158015611e0e57600080fd5b505af1925050508015611e3f57506040513d601f19601f82011682018060405250810190611e3c919061338d565b60015b611ec2573d8060008114611e6f576040519150601f19603f3d011682016040523d82523d6000602084013e611e74565b606091505b50600081511415611eba576040517f08c379a0000000000000000000000000000000000000000000000000000000008152600401611eb1906131dd565b60405180910390fd5b805181602001fd5b63150b7a0260e01b7bffffffffffffffffffffffffffffffffffffffffffffffffffffffff1916817bffffffffffffffffffffffffffffffffffffffffffffffffffffffff191614915050611f17565b600190505b949350505050565b600073ffffffffffffffffffffffffffffffffffffffff168273ffffffffffffffffffffffffffffffffffffffff161415611f8f576040517f08c379a0000000000000000000000000000000000000000000000000000000008152600401611f8690613406565b60405180910390fd5b611f9881611549565b15611fd8576040517f08c379a0000000000000000000000000000000000000000000000000000000008152600401611fcf90613472565b60405180910390fd5b611fe460008383611d23565b6001600360008473ffffffffffffffffffffffffffffffffffffffff1673ffffffffffffffffffffffffffffffffffffffff16815260200190815260200160002060008282546120349190612e01565b92505081905550816002600083815260200190815260200160002060006101000a81548173ffffffffffffffffffffffffffffffffffffffff021916908373ffffffffffffffffffffffffffffffffffffffff160217905550808273ffffffffffffffffffffffffffffffffffffffff16600073ffffffffffffffffffffffffffffffffffffffff167fddf252ad1be2c89b69c2b068fc378daa952ba7f163c4a11628f55a4df523b3ef60405160405180910390a46120f560008383611d28565b5050565b6000808273ffffffffffffffffffffffffffffffffffffffff163b119050919050565b604051806060016040528060608152602001600073ffffffffffffffffffffffffffffffffffffffff168152602001600081525090565b6000604051905090565b600080fd5b600080fd5b60007fffffffff0000000000000000000000000000000000000000000000000000000082169050919050565b61219c81612167565b81146121a757600080fd5b50565b6000813590506121b981612193565b92915050565b6000602082840312156121d5576121d461215d565b5b60006121e3848285016121aa565b91505092915050565b60008115159050919050565b612201816121ec565b82525050565b600060208201905061221c60008301846121f8565b92915050565b600081519050919050565b600082825260208201905092915050565b60005b8381101561225c578082015181840152602081019050612241565b8381111561226b576000848401525b50505050565b6000601f19601f8301169050919050565b600061228d82612222565b612297818561222d565b93506122a781856020860161223e565b6122b081612271565b840191505092915050565b600060208201905081810360008301526122d58184612282565b905092915050565b6000819050919050565b6122f0816122dd565b81146122fb57600080fd5b50565b60008135905061230d816122e7565b92915050565b6000602082840312156123295761232861215d565b5b6000612337848285016122fe565b91505092915050565b600073ffffffffffffffffffffffffffffffffffffffff82169050919050565b600061236b82612340565b9050919050565b61237b81612360565b82525050565b60006020820190506123966000830184612372565b92915050565b6123a581612360565b81146123b057600080fd5b50565b6000813590506123c28161239c565b92915050565b600080604083850312156123df576123de61215d565b5b60006123ed858286016123b3565b92505060206123fe858286016122fe565b9150509250929050565b612411816122dd565b82525050565b600060208201905061242c6000830184612408565b92915050565b600082825260208201905092915050565b600061244e82612222565b6124588185612432565b935061246881856020860161223e565b61247181612271565b840191505092915050565b61248581612360565b82525050565b612494816122dd565b82525050565b600060608301600083015184820360008601526124b78282612443565b91505060208301516124cc602086018261247c565b5060408301516124df604086018261248b565b508091505092915050565b60006020820190508181036000830152612504818461249a565b905092915050565b6000806000606084860312156125255761252461215d565b5b6000612533868287016123b3565b9350506020612544868287016123b3565b9250506040612555868287016122fe565b9150509250925092565b6000602082840312156125755761257461215d565b5b6000612583848285016123b3565b91505092915050565b600080604083850312156125a3576125a261215d565b5b60006125b1858286016122fe565b92505060206125c2858286016122fe565b9150509250929050565b600081519050919050565b600082825260208201905092915050565b6000819050602082019050919050565b600060608301600083015184820360008601526126158282612443565b915050602083015161262a602086018261247c565b50604083015161263d604086018261248b565b508091505092915050565b600061265483836125f8565b905092915050565b6000602082019050919050565b6000612674826125cc565b61267e81856125d7565b935083602082028501612690856125e8565b8060005b858110156126cc57848403895281516126ad8582612648565b94506126b88361265c565b925060208a01995050600181019050612694565b50829750879550505050505092915050565b600060208201905081810360008301526126f88184612669565b905092915050565b612709816121ec565b811461271457600080fd5b50565b60008135905061272681612700565b92915050565b600080604083850312156127435761274261215d565b5b6000612751858286016123b3565b925050602061276285828601612717565b9150509250929050565b600080fd5b600080fd5b7f4e487b7100000000000000000000000000000000000000000000000000000000600052604160045260246000fd5b6127ae82612271565b810181811067ffffffffffffffff821117156127cd576127cc612776565b5b80604052505050565b60006127e0612153565b90506127ec82826127a5565b919050565b600067ffffffffffffffff82111561280c5761280b612776565b5b61281582612271565b9050602081019050919050565b82818337600083830152505050565b600061284461283f846127f1565b6127d6565b9050828152602081018484840111156128605761285f612771565b5b61286b848285612822565b509392505050565b600082601f8301126128885761288761276c565b5b8135612898848260208601612831565b91505092915050565b600080600080608085870312156128bb576128ba61215d565b5b60006128c9878288016123b3565b94505060206128da878288016123b3565b93505060406128eb878288016122fe565b925050606085013567ffffffffffffffff81111561290c5761290b612162565b5b61291887828801612873565b91505092959194509250565b6000606082019050818103600083015261293e8186612282565b905061294d6020830185612372565b61295a6040830184612408565b949350505050565b600080604083850312156129795761297861215d565b5b6000612987858286016123b3565b9250506020612998858286016123b3565b9150509250929050565b7f4e487b7100000000000000000000000000000000000000000000000000000000600052602260045260246000fd5b600060028204905060018216806129e957607f821691505b602082108114156129fd576129fc6129a2565b5b50919050565b7f4552433732313a20617070726f76656420717565727920666f72206e6f6e657860008201527f697374656e7420746f6b656e0000000000000000000000000000000000000000602082015250565b6000612a5f602c8361222d565b9150612a6a82612a03565b604082019050919050565b60006020820190508181036000830152612a8e81612a52565b9050919050565b7f4552433732313a20617070726f76616c20746f2063757272656e74206f776e6560008201527f7200000000000000000000000000000000000000000000000000000000000000602082015250565b6000612af160218361222d565b9150612afc82612a95565b604082019050919050565b60006020820190508181036000830152612b2081612ae4565b9050919050565b7f4552433732313a20617070726f76652063616c6c6572206973206e6f74206f7760008201527f6e6572206e6f7220617070726f76656420666f7220616c6c0000000000000000602082015250565b6000612b8360388361222d565b9150612b8e82612b27565b604082019050919050565b60006020820190508181036000830152612bb281612b76565b9050919050565b7f4e487b7100000000000000000000000000000000000000000000000000000000600052601160045260246000fd5b6000612bf3826122dd565b9150612bfe836122dd565b925082821015612c1157612c10612bb9565b5b828203905092915050565b7f4e487b7100000000000000000000000000000000000000000000000000000000600052603260045260246000fd5b7f4552433732313a207472616e736665722063616c6c6572206973206e6f74206f60008201527f776e6572206e6f7220617070726f766564000000000000000000000000000000602082015250565b6000612ca760318361222d565b9150612cb282612c4b565b604082019050919050565b60006020820190508181036000830152612cd681612c9a565b9050919050565b7f4552433732313a206f776e657220717565727920666f72206e6f6e657869737460008201527f656e7420746f6b656e0000000000000000000000000000000000000000000000602082015250565b6000612d3960298361222d565b9150612d4482612cdd565b604082019050919050565b60006020820190508181036000830152612d6881612d2c565b9050919050565b7f4552433732313a2062616c616e636520717565727920666f7220746865207a6560008201527f726f206164647265737300000000000000000000000000000000000000000000602082015250565b6000612dcb602a8361222d565b9150612dd682612d6f565b604082019050919050565b60006020820190508181036000830152612dfa81612dbe565b9050919050565b6000612e0c826122dd565b9150612e17836122dd565b9250827fffffffffffffffffffffffffffffffffffffffffffffffffffffffffffffffff03821115612e4c57612e4b612bb9565b5b828201905092915050565b7f4552433732314d657461646174613a2055524920717565727920666f72206e6f60008201527f6e6578697374656e7420746f6b656e0000000000000000000000000000000000602082015250565b6000612eb3602f8361222d565b9150612ebe82612e57565b604082019050919050565b60006020820190508181036000830152612ee281612ea6565b9050919050565b600081905092915050565b6000612eff82612222565b612f098185612ee9565b9350612f1981856020860161223e565b80840191505092915050565b6000612f318285612ef4565b9150612f3d8284612ef4565b91508190509392505050565b7f4552433732313a206f70657261746f7220717565727920666f72206e6f6e657860008201527f697374656e7420746f6b656e0000000000000000000000000000000000000000602082015250565b6000612fa5602c8361222d565b9150612fb082612f49565b604082019050919050565b60006020820190508181036000830152612fd481612f98565b9050919050565b7f4552433732313a207472616e736665722066726f6d20696e636f72726563742060008201527f6f776e6572000000000000000000000000000000000000000000000000000000602082015250565b600061303760258361222d565b915061304282612fdb565b604082019050919050565b600060208201905081810360008301526130668161302a565b9050919050565b7f4552433732313a207472616e7366657220746f20746865207a65726f2061646460008201527f7265737300000000000000000000000000000000000000000000000000000000602082015250565b60006130c960248361222d565b91506130d48261306d565b604082019050919050565b600060208201905081810360008301526130f8816130bc565b9050919050565b7f4552433732313a20617070726f766520746f2063616c6c657200000000000000600082015250565b600061313560198361222d565b9150613140826130ff565b602082019050919050565b6000602082019050818103600083015261316481613128565b9050919050565b7f4552433732313a207472616e7366657220746f206e6f6e20455243373231526560008201527f63656976657220696d706c656d656e7465720000000000000000000000000000602082015250565b60006131c760328361222d565b91506131d28261316b565b604082019050919050565b600060208201905081810360008301526131f6816131ba565b9050919050565b6000613208826122dd565b91507fffffffffffffffffffffffffffffffffffffffffffffffffffffffffffffffff82141561323b5761323a612bb9565b5b600182019050919050565b7f4e487b7100000000000000000000000000000000000000000000000000000000600052601260045260246000fd5b6000613280826122dd565b915061328b836122dd565b92508261329b5761329a613246565b5b828204905092915050565b60006132b1826122dd565b91506132bc836122dd565b9250826132cc576132cb613246565b5b828206905092915050565b600081519050919050565b600082825260208201905092915050565b60006132fe826132d7565b61330881856132e2565b935061331881856020860161223e565b61332181612271565b840191505092915050565b60006080820190506133416000830187612372565b61334e6020830186612372565b61335b6040830185612408565b818103606083015261336d81846132f3565b905095945050505050565b60008151905061338781612193565b92915050565b6000602082840312156133a3576133a261215d565b5b60006133b184828501613378565b91505092915050565b7f4552433732313a206d696e7420746f20746865207a65726f2061646472657373600082015250565b60006133f060208361222d565b91506133fb826133ba565b602082019050919050565b6000602082019050818103600083015261341f816133e3565b9050919050565b7f4552433732313a20746f6b656e20616c7265616479206d696e74656400000000600082015250565b600061345c601c8361222d565b915061346782613426565b602082019050919050565b6000602082019050818103600083015261348b8161344f565b905091905056fe68747470733a2f2f7261772e67697468756275736572636f6e74656e742e636f6d2f63726167746c61622f6772612d6172742f6d61696e2f7372632f6d657461646174612fa264697066735822122001a50668b358165fb087841e53cba3b80fae8d4acdb46c303bb5f429d63c932964736f6c63430008090033",
  "immutableReferences": {},
  "source": "// SPDX-License-Identifier: MIT\npragma solidity ^0.8.0;\n\nimport \"@openzeppelin/contracts/token/ERC721/ERC721.sol\";\n\ncontract Painting is ERC721 {\n    uint256 public cost = 0.001 ether; // mint price, will reject if below\n    uint256 public maxSupply = 20;\n    uint256 public totalSupply = 0;\n\n    struct Paint {\n        string name;\n        address owner;\n        uint256 list_price; // 0 means not listed by owner\n    }\n\n    Paint[] public paintings;\n\n    constructor(\n        string memory _name,\n        string memory _symbol,\n        uint256 _cost\n    ) ERC721(_name, _symbol) {\n        _cost = cost;         \n\n        paintings.push(Paint(\"Life Is Good\", address(0x0), 0));\n        paintings.push(Paint(\"Adventures Await\", address(0x0), 0));\n        paintings.push(Paint(\"Journey On\", address(0x0), 0));\n        paintings.push(Paint(\"Speed Up\", address(0x0), 0));\n        paintings.push(Paint(\"Lucky\", address(0x0), 0));\n    }\n    function _baseURI() internal pure override returns (string memory) {\n        return \"https://raw.githubusercontent.com/cragtlab/gra-art/main/src/metadata/\";\n    }\n\n    function mint(uint256 _id) public payable {\n        uint256 supply = totalSupply;\n        require(supply <= maxSupply);\n        require(paintings[_id - 1].owner == address(0x0));\n        require(msg.value >= cost);\n\n        // NOTE: tokenID always starts from 1, but our array starts from 0\n        paintings[_id - 1].owner = msg.sender;\n        totalSupply = totalSupply + 1;\n        _safeMint(msg.sender, _id);\n    }\n\n    function transferFrom(\n        address from,\n        address to,\n        uint256 tokenId\n    ) public override {\n        require(\n            _isApprovedOrOwner(_msgSender(), tokenId),\n            \"ERC721: transfer caller is not owner nor approved\"\n        );\n\n        // Update ownership\n        paintings[tokenId - 1].owner = to;\n        _transfer(from, to, tokenId);\n    }\n\n    function listToken(uint256 _id, uint256 list_price) public {\n        require(_isApprovedOrOwner(_msgSender(), _id),\n            \"ERC721: transfer caller is not owner nor approved\"\n        );        \n        paintings[_id - 1].list_price = list_price;\n    }\n\n    function buyToken(uint256 _id) external payable {\n        //require(paintings[_id - 1].owner != address(0x0));\n        require(paintings[_id - 1].list_price > 0);\n        require(msg.value >= paintings[_id - 1].list_price);\n                \n        _transfer(paintings[_id - 1].owner, msg.sender, _id); // transfer token\n        address payable _owner = payable(paintings[_id - 1].owner); \n        _owner.transfer(msg.value);  // pay money to seller        \n        paintings[_id - 1].owner = msg.sender; // change ownership after all done. must be after transfer\n        paintings[_id - 1].list_price = 0;     \n    }\n\n\n    function safeTransferFrom(\n        address from,\n        address to,\n        uint256 tokenId,\n        bytes memory _data\n    ) public override {\n        require(\n            _isApprovedOrOwner(_msgSender(), tokenId),\n            \"ERC721: transfer caller is not owner nor approved\"\n        );\n\n        // Update Building ownership\n        paintings[tokenId - 1].owner = to;\n        _safeTransfer(from, to, tokenId, _data);\n    }\n\n    // Public View Functions\n    function getPaintings() public view returns (Paint[] memory) {\n        return paintings;\n    }\n\n    function getPainting(uint256 _id) public view returns (Paint memory) {\n        return paintings[_id - 1];\n    }\n}\n",
  "sourcePath": "C:\\Users\\GTUser\\Desktop\\Metaverse-main\\gra-art\\src\\contracts\\Painting.sol",
  "compiler": {
    "name": "solc",
    "version": "0.8.9+commit.e5eed63a.Emscripten.clang"
  },
  "schemaVersion": "3.4.15",
  "updatedAt": "2023-09-14T06:43:49.243Z",
  "devdoc": {
    "kind": "dev",
    "methods": {
      "approve(address,uint256)": {
        "details": "See {IERC721-approve}."
      },
      "balanceOf(address)": {
        "details": "See {IERC721-balanceOf}."
      },
      "getApproved(uint256)": {
        "details": "See {IERC721-getApproved}."
      },
      "isApprovedForAll(address,address)": {
        "details": "See {IERC721-isApprovedForAll}."
      },
      "name()": {
        "details": "See {IERC721Metadata-name}."
      },
      "ownerOf(uint256)": {
        "details": "See {IERC721-ownerOf}."
      },
      "safeTransferFrom(address,address,uint256)": {
        "details": "See {IERC721-safeTransferFrom}."
      },
      "safeTransferFrom(address,address,uint256,bytes)": {
        "details": "See {IERC721-safeTransferFrom}."
      },
      "setApprovalForAll(address,bool)": {
        "details": "See {IERC721-setApprovalForAll}."
      },
      "supportsInterface(bytes4)": {
        "details": "See {IERC165-supportsInterface}."
      },
      "symbol()": {
        "details": "See {IERC721Metadata-symbol}."
      },
      "tokenURI(uint256)": {
        "details": "See {IERC721Metadata-tokenURI}."
      },
      "transferFrom(address,address,uint256)": {
        "details": "See {IERC721-transferFrom}."
      }
    },
    "version": 1
  },
  "userdoc": {
    "kind": "user",
    "methods": {},
    "version": 1
  }
}