{
  "contractName": "Painting",
  "abi": [
    {
      "inputs": [
        {
          "internalType": "string",
          "name": "_name",
          "type": "string"
        },
        {
          "internalType": "string",
          "name": "_symbol",
          "type": "string"
        },
        {
          "internalType": "uint256",
          "name": "_cost",
          "type": "uint256"
        }
      ],
      "stateMutability": "nonpayable",
      "type": "constructor"
    },
    {
      "anonymous": false,
      "inputs": [
        {
          "indexed": true,
          "internalType": "address",
          "name": "owner",
          "type": "address"
        },
        {
          "indexed": true,
          "internalType": "address",
          "name": "approved",
          "type": "address"
        },
        {
          "indexed": true,
          "internalType": "uint256",
          "name": "tokenId",
          "type": "uint256"
        }
      ],
      "name": "Approval",
      "type": "event"
    },
    {
      "anonymous": false,
      "inputs": [
        {
          "indexed": true,
          "internalType": "address",
          "name": "owner",
          "type": "address"
        },
        {
          "indexed": true,
          "internalType": "address",
          "name": "operator",
          "type": "address"
        },
        {
          "indexed": false,
          "internalType": "bool",
          "name": "approved",
          "type": "bool"
        }
      ],
      "name": "ApprovalForAll",
      "type": "event"
    },
    {
      "anonymous": false,
      "inputs": [
        {
          "indexed": true,
          "internalType": "address",
          "name": "from",
          "type": "address"
        },
        {
          "indexed": true,
          "internalType": "address",
          "name": "to",
          "type": "address"
        },
        {
          "indexed": true,
          "internalType": "uint256",
          "name": "tokenId",
          "type": "uint256"
        }
      ],
      "name": "Transfer",
      "type": "event"
    },
    {
      "inputs": [
        {
          "internalType": "address",
          "name": "to",
          "type": "address"
        },
        {
          "internalType": "uint256",
          "name": "tokenId",
          "type": "uint256"
        }
      ],
      "name": "approve",
      "outputs": [],
      "stateMutability": "nonpayable",
      "type": "function"
    },
    {
      "inputs": [
        {
          "internalType": "address",
          "name": "owner",
          "type": "address"
        }
      ],
      "name": "balanceOf",
      "outputs": [
        {
          "internalType": "uint256",
          "name": "",
          "type": "uint256"
        }
      ],
      "stateMutability": "view",
      "type": "function",
      "constant": true
    },
    {
      "inputs": [
        {
          "internalType": "uint256",
          "name": "",
          "type": "uint256"
        }
      ],
      "name": "bids",
      "outputs": [
        {
          "internalType": "uint256",
          "name": "amount",
          "type": "uint256"
        },
        {
          "internalType": "address payable",
          "name": "bidder",
          "type": "address"
        }
      ],
      "stateMutability": "view",
      "type": "function",
      "constant": true
    },
    {
      "inputs": [],
      "name": "contract_owner",
      "outputs": [
        {
          "internalType": "address",
          "name": "",
          "type": "address"
        }
      ],
      "stateMutability": "view",
      "type": "function",
      "constant": true
    },
    {
      "inputs": [],
      "name": "cost",
      "outputs": [
        {
          "internalType": "uint256",
          "name": "",
          "type": "uint256"
        }
      ],
      "stateMutability": "view",
      "type": "function",
      "constant": true
    },
    {
      "inputs": [
        {
          "internalType": "uint256",
          "name": "tokenId",
          "type": "uint256"
        }
      ],
      "name": "getApproved",
      "outputs": [
        {
          "internalType": "address",
          "name": "",
          "type": "address"
        }
      ],
      "stateMutability": "view",
      "type": "function",
      "constant": true
    },
    {
      "inputs": [
        {
          "internalType": "address",
          "name": "owner",
          "type": "address"
        },
        {
          "internalType": "address",
          "name": "operator",
          "type": "address"
        }
      ],
      "name": "isApprovedForAll",
      "outputs": [
        {
          "internalType": "bool",
          "name": "",
          "type": "bool"
        }
      ],
      "stateMutability": "view",
      "type": "function",
      "constant": true
    },
    {
      "inputs": [],
      "name": "maxSupply",
      "outputs": [
        {
          "internalType": "uint256",
          "name": "",
          "type": "uint256"
        }
      ],
      "stateMutability": "view",
      "type": "function",
      "constant": true
    },
    {
      "inputs": [],
      "name": "name",
      "outputs": [
        {
          "internalType": "string",
          "name": "",
          "type": "string"
        }
      ],
      "stateMutability": "view",
      "type": "function",
      "constant": true
    },
    {
      "inputs": [
        {
          "internalType": "uint256",
          "name": "",
          "type": "uint256"
        }
      ],
      "name": "names",
      "outputs": [
        {
          "internalType": "string",
          "name": "name",
          "type": "string"
        },
        {
          "internalType": "address",
          "name": "wallet_address",
          "type": "address"
        }
      ],
      "stateMutability": "view",
      "type": "function",
      "constant": true
    },
    {
      "inputs": [
        {
          "internalType": "uint256",
          "name": "tokenId",
          "type": "uint256"
        }
      ],
      "name": "ownerOf",
      "outputs": [
        {
          "internalType": "address",
          "name": "",
          "type": "address"
        }
      ],
      "stateMutability": "view",
      "type": "function",
      "constant": true
    },
    {
      "inputs": [
        {
          "internalType": "uint256",
          "name": "",
          "type": "uint256"
        }
      ],
      "name": "paintings",
      "outputs": [
        {
          "internalType": "string",
          "name": "name",
          "type": "string"
        },
        {
          "internalType": "address",
          "name": "owner",
          "type": "address"
        },
        {
          "internalType": "address",
          "name": "creator",
          "type": "address"
        },
        {
          "internalType": "int256",
          "name": "list_price",
          "type": "int256"
        }
      ],
      "stateMutability": "view",
      "type": "function",
      "constant": true
    },
    {
      "inputs": [
        {
          "internalType": "uint256",
          "name": "_tokenId",
          "type": "uint256"
        },
        {
          "internalType": "uint256",
          "name": "_salePrice",
          "type": "uint256"
        }
      ],
      "name": "royaltyInfo",
      "outputs": [
        {
          "internalType": "address",
          "name": "",
          "type": "address"
        },
        {
          "internalType": "uint256",
          "name": "",
          "type": "uint256"
        }
      ],
      "stateMutability": "view",
      "type": "function",
      "constant": true
    },
    {
      "inputs": [
        {
          "internalType": "address",
          "name": "operator",
          "type": "address"
        },
        {
          "internalType": "bool",
          "name": "approved",
          "type": "bool"
        }
      ],
      "name": "setApprovalForAll",
      "outputs": [],
      "stateMutability": "nonpayable",
      "type": "function"
    },
    {
      "inputs": [
        {
          "internalType": "bytes4",
          "name": "interfaceId",
          "type": "bytes4"
        }
      ],
      "name": "supportsInterface",
      "outputs": [
        {
          "internalType": "bool",
          "name": "",
          "type": "bool"
        }
      ],
      "stateMutability": "view",
      "type": "function",
      "constant": true
    },
    {
      "inputs": [],
      "name": "symbol",
      "outputs": [
        {
          "internalType": "string",
          "name": "",
          "type": "string"
        }
      ],
      "stateMutability": "view",
      "type": "function",
      "constant": true
    },
    {
      "inputs": [
        {
          "internalType": "uint256",
          "name": "tokenId",
          "type": "uint256"
        }
      ],
      "name": "tokenURI",
      "outputs": [
        {
          "internalType": "string",
          "name": "",
          "type": "string"
        }
      ],
      "stateMutability": "view",
      "type": "function",
      "constant": true
    },
    {
      "inputs": [],
      "name": "totalSupply",
      "outputs": [
        {
          "internalType": "uint256",
          "name": "",
          "type": "uint256"
        }
      ],
      "stateMutability": "view",
      "type": "function",
      "constant": true
    },
    {
      "inputs": [
        {
          "internalType": "string",
          "name": "newBaseURIStr",
          "type": "string"
        }
      ],
      "name": "updateBaseURI",
      "outputs": [],
      "stateMutability": "nonpayable",
      "type": "function"
    },
    {
      "inputs": [
        {
          "internalType": "address",
          "name": "walletAddress",
          "type": "address"
        },
        {
          "internalType": "string",
          "name": "name",
          "type": "string"
        }
      ],
      "name": "addName",
      "outputs": [],
      "stateMutability": "nonpayable",
      "type": "function"
    },
    {
      "inputs": [],
      "name": "getNames",
      "outputs": [
        {
          "components": [
            {
              "internalType": "string",
              "name": "name",
              "type": "string"
            },
            {
              "internalType": "address",
              "name": "wallet_address",
              "type": "address"
            }
          ],
          "internalType": "struct Painting.Name[]",
          "name": "",
          "type": "tuple[]"
        }
      ],
      "stateMutability": "view",
      "type": "function",
      "constant": true
    },
    {
      "inputs": [
        {
          "internalType": "uint256",
          "name": "amount",
          "type": "uint256"
        }
      ],
      "name": "addBid",
      "outputs": [],
      "stateMutability": "nonpayable",
      "type": "function"
    },
    {
      "inputs": [],
      "name": "getAuctionPaintingID",
      "outputs": [
        {
          "internalType": "uint256",
          "name": "",
          "type": "uint256"
        }
      ],
      "stateMutability": "view",
      "type": "function",
      "constant": true
    },
    {
      "inputs": [],
      "name": "getAuctionExpiryDate",
      "outputs": [
        {
          "internalType": "uint256",
          "name": "",
          "type": "uint256"
        }
      ],
      "stateMutability": "view",
      "type": "function",
      "constant": true
    },
    {
      "inputs": [],
      "name": "getBids",
      "outputs": [
        {
          "components": [
            {
              "internalType": "uint256",
              "name": "amount",
              "type": "uint256"
            },
            {
              "internalType": "address payable",
              "name": "bidder",
              "type": "address"
            }
          ],
          "internalType": "struct Painting.Bid[]",
          "name": "",
          "type": "tuple[]"
        }
      ],
      "stateMutability": "view",
      "type": "function",
      "constant": true
    },
    {
      "inputs": [],
      "name": "payAuction",
      "outputs": [
        {
          "internalType": "bool",
          "name": "",
          "type": "bool"
        }
      ],
      "stateMutability": "payable",
      "type": "function",
      "payable": true
    },
    {
      "inputs": [
        {
          "internalType": "string",
          "name": "_name",
          "type": "string"
        },
        {
          "internalType": "address",
          "name": "creator",
          "type": "address"
        },
        {
          "internalType": "int256",
          "name": "list_price",
          "type": "int256"
        }
      ],
      "name": "addPainting",
      "outputs": [],
      "stateMutability": "nonpayable",
      "type": "function"
    },
    {
      "inputs": [
        {
          "internalType": "uint256",
          "name": "_id",
          "type": "uint256"
        }
      ],
      "name": "mint",
      "outputs": [],
      "stateMutability": "payable",
      "type": "function",
      "payable": true
    },
    {
      "inputs": [
        {
          "internalType": "address",
          "name": "from",
          "type": "address"
        },
        {
          "internalType": "address",
          "name": "to",
          "type": "address"
        },
        {
          "internalType": "uint256",
          "name": "tokenId",
          "type": "uint256"
        }
      ],
      "name": "transferFrom",
      "outputs": [],
      "stateMutability": "nonpayable",
      "type": "function"
    },
    {
      "inputs": [
        {
          "internalType": "uint256",
          "name": "_id",
          "type": "uint256"
        },
        {
          "internalType": "int256",
          "name": "list_price",
          "type": "int256"
        }
      ],
      "name": "listToken",
      "outputs": [],
      "stateMutability": "nonpayable",
      "type": "function"
    },
    {
      "inputs": [
        {
          "internalType": "uint256",
          "name": "_id",
          "type": "uint256"
        }
      ],
      "name": "buyToken",
      "outputs": [],
      "stateMutability": "payable",
      "type": "function",
      "payable": true
    },
    {
      "inputs": [
        {
          "internalType": "address",
          "name": "from",
          "type": "address"
        },
        {
          "internalType": "address",
          "name": "to",
          "type": "address"
        },
        {
          "internalType": "uint256",
          "name": "tokenId",
          "type": "uint256"
        }
      ],
      "name": "safeTransferFrom",
      "outputs": [],
      "stateMutability": "nonpayable",
      "type": "function"
    },
    {
      "inputs": [
        {
          "internalType": "address",
          "name": "from",
          "type": "address"
        },
        {
          "internalType": "address",
          "name": "to",
          "type": "address"
        },
        {
          "internalType": "uint256",
          "name": "tokenId",
          "type": "uint256"
        },
        {
          "internalType": "bytes",
          "name": "_data",
          "type": "bytes"
        }
      ],
      "name": "safeTransferFrom",
      "outputs": [],
      "stateMutability": "nonpayable",
      "type": "function"
    },
    {
      "inputs": [],
      "name": "getPaintings",
      "outputs": [
        {
          "components": [
            {
              "internalType": "string",
              "name": "name",
              "type": "string"
            },
            {
              "internalType": "address",
              "name": "owner",
              "type": "address"
            },
            {
              "internalType": "address",
              "name": "creator",
              "type": "address"
            },
            {
              "internalType": "int256",
              "name": "list_price",
              "type": "int256"
            }
          ],
          "internalType": "struct Painting.Paint[]",
          "name": "",
          "type": "tuple[]"
        }
      ],
      "stateMutability": "view",
      "type": "function",
      "constant": true
    },
    {
      "inputs": [
        {
          "internalType": "uint256",
          "name": "_id",
          "type": "uint256"
        }
      ],
      "name": "getPainting",
      "outputs": [
        {
          "components": [
            {
              "internalType": "string",
              "name": "name",
              "type": "string"
            },
            {
              "internalType": "address",
              "name": "owner",
              "type": "address"
            },
            {
              "internalType": "address",
              "name": "creator",
              "type": "address"
            },
            {
              "internalType": "int256",
              "name": "list_price",
              "type": "int256"
            }
          ],
          "internalType": "struct Painting.Paint",
          "name": "",
          "type": "tuple"
        }
      ],
      "stateMutability": "view",
      "type": "function",
      "constant": true
    }
  ],
  "bytecode": "0x60a060405266038d7ea4c6800060085560146009556000600a556000600c55604051806060016040528060308152602001620062b860309139601090805190602001906200004f92919062000cfb565b503480156200005d57600080fd5b50604051620062e8380380620062e8833981810160405281019062000083919062000f83565b828281600290805190602001906200009d92919062000cfb565b508060039080519060200190620000b692919062000cfb565b50505060085490503373ffffffffffffffffffffffffffffffffffffffff1660808173ffffffffffffffffffffffffffffffffffffffff16815250506000733a3593b8e169236289cf8699876a8af393b022309050600073ec79fc264b134ea21161d7e1487676b8d26b6ae8905062000138826103e86200077960201b60201c565b620001816040518060400160405280600c81526020017f4c69666520497320476f6f6400000000000000000000000000000000000000008152508260006200091c60201b60201c565b620001ca6040518060400160405280601081526020017f416476656e7475726573204177616974000000000000000000000000000000008152508260006200091c60201b60201c565b620002136040518060400160405280600a81526020017f4a6f75726e6579204f6e000000000000000000000000000000000000000000008152508260006200091c60201b60201c565b6200025c6040518060400160405280601381526020017f4576656e696e6720417574756d6e20284b5929000000000000000000000000008152508260006200091c60201b60201c565b620002b96040518060400160405280600a81526020017f4661737420547261696e000000000000000000000000000000000000000000008152507373382d70c64b527a7652eb21c48bfc1ed2b6e0b660006200091c60201b60201c565b620003026040518060400160405280601581526020017f4d6178696d756d205468726f74746c6520284d542900000000000000000000008152508260006200091c60201b60201c565b6200034b6040518060400160405280600881526020017f4d425320284b53290000000000000000000000000000000000000000000000008152508260006200091c60201b60201c565b620003946040518060400160405280600881526020017f5065656b61626f6f0000000000000000000000000000000000000000000000008152508260006200091c60201b60201c565b620003dd6040518060400160405280600e81526020017f476f6c64656e204d6f6d656e74730000000000000000000000000000000000008152508260006200091c60201b60201c565b620004266040518060400160405280600681526020017f53756e73657400000000000000000000000000000000000000000000000000008152508260006200091c60201b60201c565b6200046f6040518060400160405280600881526020017f426c6f73736f6d730000000000000000000000000000000000000000000000008152508260006200091c60201b60201c565b620004cc6040518060400160405280600881526020017f4461726b6e657373000000000000000000000000000000000000000000000000815250733a3593b8e169236289cf8699876a8af393b0223060006200091c60201b60201c565b620005156040518060400160405280600681526020017f42726967687400000000000000000000000000000000000000000000000000008152508260006200091c60201b60201c565b6200055e6040518060400160405280600c81526020017f5261696e626f77205472656500000000000000000000000000000000000000008152508260006200091c60201b60201c565b620005a76040518060400160405280600581526020017f52656c61780000000000000000000000000000000000000000000000000000008152508260006200091c60201b60201c565b62000602733a3593b8e169236289cf8699876a8af393b022306040518060400160405280600981526020017f546869656e526f6e67000000000000000000000000000000000000000000000081525062000a8e60201b60201c565b6200065d7373382d70c64b527a7652eb21c48bfc1ed2b6e0b66040518060400160405280600681526020017f6c656e6f766f000000000000000000000000000000000000000000000000000081525062000a8e60201b60201c565b620006b87321586e20921f2d6c068830c9460c728c9a3411a26040518060400160405280600881526020017f536965774d6f6f6900000000000000000000000000000000000000000000000081525062000a8e60201b60201c565b6200071373caae7ee609621f5b64d7553fdee4696b2a4eb56f6040518060400160405280600781526020017f436875694368690000000000000000000000000000000000000000000000000081525062000a8e60201b60201c565b6200076e73ec79fc264b134ea21161d7e1487676b8d26b6ae86040518060400160405280600781526020017f56616e204752410000000000000000000000000000000000000000000000000081525062000a8e60201b60201c565b5050505050620012bb565b6200078962000cf160201b60201c565b6bffffffffffffffffffffffff16816bffffffffffffffffffffffff161115620007ea576040517f08c379a0000000000000000000000000000000000000000000000000000000008152600401620007e190620010a4565b60405180910390fd5b600073ffffffffffffffffffffffffffffffffffffffff168273ffffffffffffffffffffffffffffffffffffffff1614156200085d576040517f08c379a0000000000000000000000000000000000000000000000000000000008152600401620008549062001116565b60405180910390fd5b60405180604001604052808373ffffffffffffffffffffffffffffffffffffffff168152602001826bffffffffffffffffffffffff168152506000808201518160000160006101000a81548173ffffffffffffffffffffffffffffffffffffffff021916908373ffffffffffffffffffffffffffffffffffffffff16021790555060208201518160000160146101000a8154816bffffffffffffffffffffffff02191690836bffffffffffffffffffffffff1602179055509050505050565b60805173ffffffffffffffffffffffffffffffffffffffff163373ffffffffffffffffffffffffffffffffffffffff16146200095757600080fd5b600b6040518060800160405280858152602001600073ffffffffffffffffffffffffffffffffffffffff1681526020018473ffffffffffffffffffffffffffffffffffffffff1681526020018381525090806001815401808255809150506001900390600052602060002090600402016000909190919091506000820151816000019080519060200190620009ee92919062000cfb565b5060208201518160010160006101000a81548173ffffffffffffffffffffffffffffffffffffffff021916908373ffffffffffffffffffffffffffffffffffffffff16021790555060408201518160020160006101000a81548173ffffffffffffffffffffffffffffffffffffffff021916908373ffffffffffffffffffffffffffffffffffffffff160217905550606082015181600301555050505050565b8173ffffffffffffffffffffffffffffffffffffffff163373ffffffffffffffffffffffffffffffffffffffff16148062000af6575060805173ffffffffffffffffffffffffffffffffffffffff163373ffffffffffffffffffffffffffffffffffffffff16145b62000b38576040517f08c379a000000000000000000000000000000000000000000000000000000000815260040162000b2f9062001188565b60405180910390fd5b6000805b600f8054905081101562000c26578373ffffffffffffffffffffffffffffffffffffffff16600f828154811062000b785762000b77620011aa565b5b906000526020600020906002020160010160009054906101000a900473ffffffffffffffffffffffffffffffffffffffff1673ffffffffffffffffffffffffffffffffffffffff16141562000c105782600f828154811062000bdf5762000bde620011aa565b5b9060005260206000209060020201600001908051906020019062000c0592919062000cfb565b506001915062000c26565b808062000c1d9062001208565b91505062000b3c565b508062000cec57600f60405180604001604052808481526020018573ffffffffffffffffffffffffffffffffffffffff168152509080600181540180825580915050600190039060005260206000209060020201600090919091909150600082015181600001908051906020019062000ca192919062000cfb565b5060208201518160010160006101000a81548173ffffffffffffffffffffffffffffffffffffffff021916908373ffffffffffffffffffffffffffffffffffffffff16021790555050505b505050565b6000612710905090565b82805462000d099062001285565b90600052602060002090601f01602090048101928262000d2d576000855562000d79565b82601f1062000d4857805160ff191683800117855562000d79565b8280016001018555821562000d79579182015b8281111562000d7857825182559160200191906001019062000d5b565b5b50905062000d88919062000d8c565b5090565b5b8082111562000da757600081600090555060010162000d8d565b5090565b6000604051905090565b600080fd5b600080fd5b600080fd5b600080fd5b6000601f19601f8301169050919050565b7f4e487b7100000000000000000000000000000000000000000000000000000000600052604160045260246000fd5b62000e148262000dc9565b810181811067ffffffffffffffff8211171562000e365762000e3562000dda565b5b80604052505050565b600062000e4b62000dab565b905062000e59828262000e09565b919050565b600067ffffffffffffffff82111562000e7c5762000e7b62000dda565b5b62000e878262000dc9565b9050602081019050919050565b60005b8381101562000eb457808201518184015260208101905062000e97565b8381111562000ec4576000848401525b50505050565b600062000ee162000edb8462000e5e565b62000e3f565b90508281526020810184848401111562000f005762000eff62000dc4565b5b62000f0d84828562000e94565b509392505050565b600082601f83011262000f2d5762000f2c62000dbf565b5b815162000f3f84826020860162000eca565b91505092915050565b6000819050919050565b62000f5d8162000f48565b811462000f6957600080fd5b50565b60008151905062000f7d8162000f52565b92915050565b60008060006060848603121562000f9f5762000f9e62000db5565b5b600084015167ffffffffffffffff81111562000fc05762000fbf62000dba565b5b62000fce8682870162000f15565b935050602084015167ffffffffffffffff81111562000ff25762000ff162000dba565b5b620010008682870162000f15565b9250506040620010138682870162000f6c565b9150509250925092565b600082825260208201905092915050565b7f455243323938313a20726f79616c7479206665652077696c6c2065786365656460008201527f2073616c65507269636500000000000000000000000000000000000000000000602082015250565b60006200108c602a836200101d565b915062001099826200102e565b604082019050919050565b60006020820190508181036000830152620010bf816200107d565b9050919050565b7f455243323938313a20696e76616c696420726563656976657200000000000000600082015250565b6000620010fe6019836200101d565b91506200110b82620010c6565b602082019050919050565b600060208201905081810360008301526200113181620010ef565b9050919050565b7f5065726d697373696f6e2064656e696564000000000000000000000000000000600082015250565b6000620011706011836200101d565b91506200117d8262001138565b602082019050919050565b60006020820190508181036000830152620011a38162001161565b9050919050565b7f4e487b7100000000000000000000000000000000000000000000000000000000600052603260045260246000fd5b7f4e487b7100000000000000000000000000000000000000000000000000000000600052601160045260246000fd5b6000620012158262000f48565b91507fffffffffffffffffffffffffffffffffffffffffffffffffffffffffffffffff8214156200124b576200124a620011d9565b5b600182019050919050565b7f4e487b7100000000000000000000000000000000000000000000000000000000600052602260045260246000fd5b600060028204905060018216806200129e57607f821691505b60208210811415620012b557620012b462001256565b5b50919050565b608051614fd3620012e5600039600081816112800152818161226c01526125470152614fd36000f3fe6080604052600436106102045760003560e01c80636352211e11610118578063b88d4fde116100a0578063d0aab3fd1161006f578063d0aab3fd14610792578063d5abeb01146107bb578063e985e9c5146107e6578063f41a575014610823578063f4299d0d1461084e57610204565b8063b88d4fde146106c1578063c7ca6daa146106ea578063c87b56dd1461072a578063cd838f0f1461076757610204565b806395d89b41116100e757806395d89b41146105fb57806399eb596714610626578063a0712d6814610651578063a22cb4651461066d578063b81c78ec1461069657610204565b80636352211e1461053a57806370a082311461057757806377c655fa146105b4578063931688cb146105d257610204565b806323b872dd1161019b578063384f58eb1161016a578063384f58eb146104415780633fb1a72c1461046c57806342842e0e146104955780634423c5f1146104be5780634622ab03146104fc57610204565b806323b872dd146103935780632a55205a146103bc5780632d296bf1146103fa5780632dd9dd151461041657610204565b806313faede6116101d757806313faede6146102d7578063145f8ba21461030257806314b0e2661461033f57806318160ddd1461036857610204565b806301ffc9a71461020957806306fdde0314610246578063081812fc14610271578063095ea7b3146102ae575b600080fd5b34801561021557600080fd5b50610230600480360381019061022b91906136b4565b610877565b60405161023d91906136fc565b60405180910390f35b34801561025257600080fd5b5061025b610889565b60405161026891906137b0565b60405180910390f35b34801561027d57600080fd5b5061029860048036038101906102939190613808565b61091b565b6040516102a59190613876565b60405180910390f35b3480156102ba57600080fd5b506102d560048036038101906102d091906138bd565b6109a0565b005b3480156102e357600080fd5b506102ec610ab8565b6040516102f9919061390c565b60405180910390f35b34801561030e57600080fd5b5061032960048036038101906103249190613808565b610abe565b60405161033691906139fc565b60405180910390f35b34801561034b57600080fd5b5061036660048036038101906103619190613808565b610c4e565b005b34801561037457600080fd5b5061037d610d93565b60405161038a919061390c565b60405180910390f35b34801561039f57600080fd5b506103ba60048036038101906103b59190613a1e565b610d99565b005b3480156103c857600080fd5b506103e360048036038101906103de9190613a71565b610e69565b6040516103f1929190613ab1565b60405180910390f35b610414600480360381019061040f9190613808565b611054565b005b34801561042257600080fd5b5061042b611274565b604051610438919061390c565b60405180910390f35b34801561044d57600080fd5b5061045661127e565b6040516104639190613876565b60405180910390f35b34801561047857600080fd5b50610493600480360381019061048e9190613b06565b6112a2565b005b3480156104a157600080fd5b506104bc60048036038101906104b79190613a1e565b611377565b005b3480156104ca57600080fd5b506104e560048036038101906104e09190613808565b611397565b6040516104f3929190613b67565b60405180910390f35b34801561050857600080fd5b50610523600480360381019061051e9190613808565b6113eb565b604051610531929190613b90565b60405180910390f35b34801561054657600080fd5b50610561600480360381019061055c9190613808565b6114c7565b60405161056e9190613876565b60405180910390f35b34801561058357600080fd5b5061059e60048036038101906105999190613bc0565b611579565b6040516105ab919061390c565b60405180910390f35b6105bc611631565b6040516105c991906136fc565b60405180910390f35b3480156105de57600080fd5b506105f960048036038101906105f49190613d22565b611a03565b005b34801561060757600080fd5b50610610611a1d565b60405161061d91906137b0565b60405180910390f35b34801561063257600080fd5b5061063b611aaf565b6040516106489190613e90565b60405180910390f35b61066b60048036038101906106669190613808565b611c56565b005b34801561067957600080fd5b50610694600480360381019061068f9190613ede565b611d98565b005b3480156106a257600080fd5b506106ab611dae565b6040516106b8919061401a565b60405180910390f35b3480156106cd57600080fd5b506106e860048036038101906106e391906140dd565b611e6d565b005b3480156106f657600080fd5b50610711600480360381019061070c9190613808565b611f3f565b604051610721949392919061416f565b60405180910390f35b34801561073657600080fd5b50610751600480360381019061074c9190613808565b612047565b60405161075e91906137b0565b60405180910390f35b34801561077357600080fd5b5061077c6120ee565b60405161078991906142ba565b60405180910390f35b34801561079e57600080fd5b506107b960048036038101906107b491906142dc565b612235565b005b3480156107c757600080fd5b506107d06124a1565b6040516107dd919061390c565b60405180910390f35b3480156107f257600080fd5b5061080d60048036038101906108089190614338565b6124a7565b60405161081a91906136fc565b60405180910390f35b34801561082f57600080fd5b5061083861253b565b604051610845919061390c565b60405180910390f35b34801561085a57600080fd5b5061087560048036038101906108709190614378565b612545565b005b6000610882826126d2565b9050919050565b60606002805461089890614416565b80601f01602080910402602001604051908101604052809291908181526020018280546108c490614416565b80156109115780601f106108e657610100808354040283529160200191610911565b820191906000526020600020905b8154815290600101906020018083116108f457829003601f168201915b5050505050905090565b6000610926826127b4565b610965576040517f08c379a000000000000000000000000000000000000000000000000000000000815260040161095c906144ba565b60405180910390fd5b6006600083815260200190815260200160002060009054906101000a900473ffffffffffffffffffffffffffffffffffffffff169050919050565b60006109ab826114c7565b90508073ffffffffffffffffffffffffffffffffffffffff168373ffffffffffffffffffffffffffffffffffffffff161415610a1c576040517f08c379a0000000000000000000000000000000000000000000000000000000008152600401610a139061454c565b60405180910390fd5b8073ffffffffffffffffffffffffffffffffffffffff16610a3b612820565b73ffffffffffffffffffffffffffffffffffffffff161480610a6a5750610a6981610a64612820565b6124a7565b5b610aa9576040517f08c379a0000000000000000000000000000000000000000000000000000000008152600401610aa0906145de565b60405180910390fd5b610ab38383612828565b505050565b60085481565b610ac66134e7565b600b600183610ad5919061462d565b81548110610ae657610ae5614661565b5b9060005260206000209060040201604051806080016040529081600082018054610b0f90614416565b80601f0160208091040260200160405190810160405280929190818152602001828054610b3b90614416565b8015610b885780601f10610b5d57610100808354040283529160200191610b88565b820191906000526020600020905b815481529060010190602001808311610b6b57829003601f168201915b505050505081526020016001820160009054906101000a900473ffffffffffffffffffffffffffffffffffffffff1673ffffffffffffffffffffffffffffffffffffffff1673ffffffffffffffffffffffffffffffffffffffff1681526020016002820160009054906101000a900473ffffffffffffffffffffffffffffffffffffffff1673ffffffffffffffffffffffffffffffffffffffff1673ffffffffffffffffffffffffffffffffffffffff1681526020016003820154815250509050919050565b6000600c5411610c5d57600080fd5b42600e541015610c6c57600080fd5b6000600d805490501115610cbd57600d6001600d80549050610c8e919061462d565b81548110610c9f57610c9e614661565b5b9060005260206000209060020201600001548111610cbc57600080fd5b5b607842600e54610ccd919061462d565b1015610ce757607842610ce09190614690565b600e819055505b600d60405180604001604052808381526020013373ffffffffffffffffffffffffffffffffffffffff1681525090806001815401808255809150506001900390600052602060002090600202016000909190919091506000820151816000015560208201518160010160006101000a81548173ffffffffffffffffffffffffffffffffffffffff021916908373ffffffffffffffffffffffffffffffffffffffff160217905550505050565b600a5481565b610daa610da4612820565b826128e1565b610de9576040517f08c379a0000000000000000000000000000000000000000000000000000000008152600401610de090614758565b60405180910390fd5b81600b600183610df9919061462d565b81548110610e0a57610e09614661565b5b906000526020600020906004020160010160006101000a81548173ffffffffffffffffffffffffffffffffffffffff021916908373ffffffffffffffffffffffffffffffffffffffff160217905550610e648383836129bf565b505050565b6000806000600160008681526020019081526020016000206040518060400160405290816000820160009054906101000a900473ffffffffffffffffffffffffffffffffffffffff1673ffffffffffffffffffffffffffffffffffffffff1673ffffffffffffffffffffffffffffffffffffffff1681526020016000820160149054906101000a90046bffffffffffffffffffffffff166bffffffffffffffffffffffff166bffffffffffffffffffffffff16815250509050600073ffffffffffffffffffffffffffffffffffffffff16816000015173ffffffffffffffffffffffffffffffffffffffff161415610fff5760006040518060400160405290816000820160009054906101000a900473ffffffffffffffffffffffffffffffffffffffff1673ffffffffffffffffffffffffffffffffffffffff1673ffffffffffffffffffffffffffffffffffffffff1681526020016000820160149054906101000a90046bffffffffffffffffffffffff166bffffffffffffffffffffffff166bffffffffffffffffffffffff168152505090505b6000611009612c26565b6bffffffffffffffffffffffff1682602001516bffffffffffffffffffffffff16866110359190614778565b61103f9190614801565b90508160000151819350935050509250929050565b6000600b600183611065919061462d565b8154811061107657611075614661565b5b9060005260206000209060040201600301541361109257600080fd5b600b6001826110a1919061462d565b815481106110b2576110b1614661565b5b9060005260206000209060040201600301543410156110d057600080fd5b61112c600b6001836110e2919061462d565b815481106110f3576110f2614661565b5b906000526020600020906004020160010160009054906101000a900473ffffffffffffffffffffffffffffffffffffffff1633836129bf565b6000600b60018361113d919061462d565b8154811061114e5761114d614661565b5b906000526020600020906004020160010160009054906101000a900473ffffffffffffffffffffffffffffffffffffffff1690508073ffffffffffffffffffffffffffffffffffffffff166108fc349081150290604051600060405180830381858888f193505050501580156111c8573d6000803e3d6000fd5b5033600b6001846111d9919061462d565b815481106111ea576111e9614661565b5b906000526020600020906004020160010160006101000a81548173ffffffffffffffffffffffffffffffffffffffff021916908373ffffffffffffffffffffffffffffffffffffffff1602179055506000600b60018461124a919061462d565b8154811061125b5761125a614661565b5b9060005260206000209060040201600301819055505050565b6000600c54905090565b7f000000000000000000000000000000000000000000000000000000000000000081565b6112b36112ad612820565b836128e1565b6112f2576040517f08c379a00000000000000000000000000000000000000000000000000000000081526004016112e990614758565b60405180910390fd5b80600b600184611302919061462d565b8154811061131357611312614661565b5b906000526020600020906004020160030181905550600081121561135f57600d600061133f919061353b565b81600c8190555061012c426113549190614690565b600e81905550611373565b600c54821415611372576000600c819055505b5b5050565b61139283838360405180602001604052806000815250611e6d565b505050565b600d81815481106113a757600080fd5b90600052602060002090600202016000915090508060000154908060010160009054906101000a900473ffffffffffffffffffffffffffffffffffffffff16905082565b600f81815481106113fb57600080fd5b906000526020600020906002020160009150905080600001805461141e90614416565b80601f016020809104026020016040519081016040528092919081815260200182805461144a90614416565b80156114975780601f1061146c57610100808354040283529160200191611497565b820191906000526020600020905b81548152906001019060200180831161147a57829003601f168201915b5050505050908060010160009054906101000a900473ffffffffffffffffffffffffffffffffffffffff16905082565b6000806004600084815260200190815260200160002060009054906101000a900473ffffffffffffffffffffffffffffffffffffffff169050600073ffffffffffffffffffffffffffffffffffffffff168173ffffffffffffffffffffffffffffffffffffffff161415611570576040517f08c379a0000000000000000000000000000000000000000000000000000000008152600401611567906148a4565b60405180910390fd5b80915050919050565b60008073ffffffffffffffffffffffffffffffffffffffff168273ffffffffffffffffffffffffffffffffffffffff1614156115ea576040517f08c379a00000000000000000000000000000000000000000000000000000000081526004016115e190614936565b60405180910390fd5b600560008373ffffffffffffffffffffffffffffffffffffffff1673ffffffffffffffffffffffffffffffffffffffff168152602001908152602001600020549050919050565b600080600c541161164157600080fd5b600e54421161164f57600080fd5b6000600d80549050141561166e576000600c8190555060009050611a00565b6000600d6001600d80549050611684919061462d565b8154811061169557611694614661565b5b9060005260206000209060020201604051806040016040529081600082015481526020016001820160009054906101000a900473ffffffffffffffffffffffffffffffffffffffff1673ffffffffffffffffffffffffffffffffffffffff1673ffffffffffffffffffffffffffffffffffffffff16815250509050806020015173ffffffffffffffffffffffffffffffffffffffff163373ffffffffffffffffffffffffffffffffffffffff161461174c57600080fd5b806000015134101561175d57600080fd5b6000600b6001600c54611770919061462d565b8154811061178157611780614661565b5b90600052602060002090600402016040518060800160405290816000820180546117aa90614416565b80601f01602080910402602001604051908101604052809291908181526020018280546117d690614416565b80156118235780601f106117f857610100808354040283529160200191611823565b820191906000526020600020905b81548152906001019060200180831161180657829003601f168201915b505050505081526020016001820160009054906101000a900473ffffffffffffffffffffffffffffffffffffffff1673ffffffffffffffffffffffffffffffffffffffff1673ffffffffffffffffffffffffffffffffffffffff1681526020016002820160009054906101000a900473ffffffffffffffffffffffffffffffffffffffff1673ffffffffffffffffffffffffffffffffffffffff1673ffffffffffffffffffffffffffffffffffffffff16815260200160038201548152505090506118f5816020015133600c546129bf565b6000816020015190508073ffffffffffffffffffffffffffffffffffffffff166108fc349081150290604051600060405180830381858888f19350505050158015611944573d6000803e3d6000fd5b5033600b6001600c54611957919061462d565b8154811061196857611967614661565b5b906000526020600020906004020160010160006101000a81548173ffffffffffffffffffffffffffffffffffffffff021916908373ffffffffffffffffffffffffffffffffffffffff1602179055506000600b6001600c546119ca919061462d565b815481106119db576119da614661565b5b9060005260206000209060040201600301819055506000600c81905550600193505050505b90565b8060109080519060200190611a1992919061355f565b5050565b606060038054611a2c90614416565b80601f0160208091040260200160405190810160405280929190818152602001828054611a5890614416565b8015611aa55780601f10611a7a57610100808354040283529160200191611aa5565b820191906000526020600020905b815481529060010190602001808311611a8857829003601f168201915b5050505050905090565b6060600b805480602002602001604051908101604052809291908181526020016000905b82821015611c4d5783829060005260206000209060040201604051806080016040529081600082018054611b0690614416565b80601f0160208091040260200160405190810160405280929190818152602001828054611b3290614416565b8015611b7f5780601f10611b5457610100808354040283529160200191611b7f565b820191906000526020600020905b815481529060010190602001808311611b6257829003601f168201915b505050505081526020016001820160009054906101000a900473ffffffffffffffffffffffffffffffffffffffff1673ffffffffffffffffffffffffffffffffffffffff1673ffffffffffffffffffffffffffffffffffffffff1681526020016002820160009054906101000a900473ffffffffffffffffffffffffffffffffffffffff1673ffffffffffffffffffffffffffffffffffffffff1673ffffffffffffffffffffffffffffffffffffffff16815260200160038201548152505081526020019060010190611ad3565b50505050905090565b6000600a549050600954811115611c6c57600080fd5b600073ffffffffffffffffffffffffffffffffffffffff16600b600184611c93919061462d565b81548110611ca457611ca3614661565b5b906000526020600020906004020160010160009054906101000a900473ffffffffffffffffffffffffffffffffffffffff1673ffffffffffffffffffffffffffffffffffffffff1614611cf657600080fd5b600854341015611d0557600080fd5b33600b600184611d15919061462d565b81548110611d2657611d25614661565b5b906000526020600020906004020160010160006101000a81548173ffffffffffffffffffffffffffffffffffffffff021916908373ffffffffffffffffffffffffffffffffffffffff1602179055506001600a54611d849190614690565b600a81905550611d943383612c30565b5050565b611daa611da3612820565b8383612c4e565b5050565b6060600d805480602002602001604051908101604052809291908181526020016000905b82821015611e645783829060005260206000209060020201604051806040016040529081600082015481526020016001820160009054906101000a900473ffffffffffffffffffffffffffffffffffffffff1673ffffffffffffffffffffffffffffffffffffffff1673ffffffffffffffffffffffffffffffffffffffff168152505081526020019060010190611dd2565b50505050905090565b611e7e611e78612820565b836128e1565b611ebd576040517f08c379a0000000000000000000000000000000000000000000000000000000008152600401611eb490614758565b60405180910390fd5b82600b600184611ecd919061462d565b81548110611ede57611edd614661565b5b906000526020600020906004020160010160006101000a81548173ffffffffffffffffffffffffffffffffffffffff021916908373ffffffffffffffffffffffffffffffffffffffff160217905550611f3984848484612dbb565b50505050565b600b8181548110611f4f57600080fd5b9060005260206000209060040201600091509050806000018054611f7290614416565b80601f0160208091040260200160405190810160405280929190818152602001828054611f9e90614416565b8015611feb5780601f10611fc057610100808354040283529160200191611feb565b820191906000526020600020905b815481529060010190602001808311611fce57829003601f168201915b5050505050908060010160009054906101000a900473ffffffffffffffffffffffffffffffffffffffff16908060020160009054906101000a900473ffffffffffffffffffffffffffffffffffffffff16908060030154905084565b6060612052826127b4565b612091576040517f08c379a0000000000000000000000000000000000000000000000000000000008152600401612088906149c8565b60405180910390fd5b600061209b612e17565b905060008151116120bb57604051806020016040528060008152506120e6565b806120c584612ea9565b6040516020016120d6929190614a24565b6040516020818303038152906040525b915050919050565b6060600f805480602002602001604051908101604052809291908181526020016000905b8282101561222c578382906000526020600020906002020160405180604001604052908160008201805461214590614416565b80601f016020809104026020016040519081016040528092919081815260200182805461217190614416565b80156121be5780601f10612193576101008083540402835291602001916121be565b820191906000526020600020905b8154815290600101906020018083116121a157829003601f168201915b505050505081526020016001820160009054906101000a900473ffffffffffffffffffffffffffffffffffffffff1673ffffffffffffffffffffffffffffffffffffffff1673ffffffffffffffffffffffffffffffffffffffff168152505081526020019060010190612112565b50505050905090565b8173ffffffffffffffffffffffffffffffffffffffff163373ffffffffffffffffffffffffffffffffffffffff1614806122ba57507f000000000000000000000000000000000000000000000000000000000000000073ffffffffffffffffffffffffffffffffffffffff163373ffffffffffffffffffffffffffffffffffffffff16145b6122f9576040517f08c379a00000000000000000000000000000000000000000000000000000000081526004016122f090614a94565b60405180910390fd5b6000805b600f805490508110156123d9578373ffffffffffffffffffffffffffffffffffffffff16600f828154811061233557612334614661565b5b906000526020600020906002020160010160009054906101000a900473ffffffffffffffffffffffffffffffffffffffff1673ffffffffffffffffffffffffffffffffffffffff1614156123c65782600f828154811061239857612397614661565b5b906000526020600020906002020160000190805190602001906123bc92919061355f565b50600191506123d9565b80806123d190614ab4565b9150506122fd565b508061249c57600f60405180604001604052808481526020018573ffffffffffffffffffffffffffffffffffffffff168152509080600181540180825580915050600190039060005260206000209060020201600090919091909150600082015181600001908051906020019061245192919061355f565b5060208201518160010160006101000a81548173ffffffffffffffffffffffffffffffffffffffff021916908373ffffffffffffffffffffffffffffffffffffffff16021790555050505b505050565b60095481565b6000600760008473ffffffffffffffffffffffffffffffffffffffff1673ffffffffffffffffffffffffffffffffffffffff16815260200190815260200160002060008373ffffffffffffffffffffffffffffffffffffffff1673ffffffffffffffffffffffffffffffffffffffff16815260200190815260200160002060009054906101000a900460ff16905092915050565b6000600e54905090565b7f000000000000000000000000000000000000000000000000000000000000000073ffffffffffffffffffffffffffffffffffffffff163373ffffffffffffffffffffffffffffffffffffffff161461259d57600080fd5b600b6040518060800160405280858152602001600073ffffffffffffffffffffffffffffffffffffffff1681526020018473ffffffffffffffffffffffffffffffffffffffff168152602001838152509080600181540180825580915050600190039060005260206000209060040201600090919091909150600082015181600001908051906020019061263292919061355f565b5060208201518160010160006101000a81548173ffffffffffffffffffffffffffffffffffffffff021916908373ffffffffffffffffffffffffffffffffffffffff16021790555060408201518160020160006101000a81548173ffffffffffffffffffffffffffffffffffffffff021916908373ffffffffffffffffffffffffffffffffffffffff160217905550606082015181600301555050505050565b60007f80ac58cd000000000000000000000000000000000000000000000000000000007bffffffffffffffffffffffffffffffffffffffffffffffffffffffff1916827bffffffffffffffffffffffffffffffffffffffffffffffffffffffff1916148061279d57507f5b5e139f000000000000000000000000000000000000000000000000000000007bffffffffffffffffffffffffffffffffffffffffffffffffffffffff1916827bffffffffffffffffffffffffffffffffffffffffffffffffffffffff1916145b806127ad57506127ac8261300a565b5b9050919050565b60008073ffffffffffffffffffffffffffffffffffffffff166004600084815260200190815260200160002060009054906101000a900473ffffffffffffffffffffffffffffffffffffffff1673ffffffffffffffffffffffffffffffffffffffff1614159050919050565b600033905090565b816006600083815260200190815260200160002060006101000a81548173ffffffffffffffffffffffffffffffffffffffff021916908373ffffffffffffffffffffffffffffffffffffffff160217905550808273ffffffffffffffffffffffffffffffffffffffff1661289b836114c7565b73ffffffffffffffffffffffffffffffffffffffff167f8c5be1e5ebec7d5bd14f71427d1e84f3dd0314c0f7b2291e5b200ac8c7c3b92560405160405180910390a45050565b60006128ec826127b4565b61292b576040517f08c379a000000000000000000000000000000000000000000000000000000000815260040161292290614b6f565b60405180910390fd5b6000612936836114c7565b90508073ffffffffffffffffffffffffffffffffffffffff168473ffffffffffffffffffffffffffffffffffffffff1614806129a557508373ffffffffffffffffffffffffffffffffffffffff1661298d8461091b565b73ffffffffffffffffffffffffffffffffffffffff16145b806129b657506129b581856124a7565b5b91505092915050565b8273ffffffffffffffffffffffffffffffffffffffff166129df826114c7565b73ffffffffffffffffffffffffffffffffffffffff1614612a35576040517f08c379a0000000000000000000000000000000000000000000000000000000008152600401612a2c90614c01565b60405180910390fd5b600073ffffffffffffffffffffffffffffffffffffffff168273ffffffffffffffffffffffffffffffffffffffff161415612aa5576040517f08c379a0000000000000000000000000000000000000000000000000000000008152600401612a9c90614c93565b60405180910390fd5b612ab0838383613084565b612abb600082612828565b6001600560008573ffffffffffffffffffffffffffffffffffffffff1673ffffffffffffffffffffffffffffffffffffffff1681526020019081526020016000206000828254612b0b919061462d565b925050819055506001600560008473ffffffffffffffffffffffffffffffffffffffff1673ffffffffffffffffffffffffffffffffffffffff1681526020019081526020016000206000828254612b629190614690565b92505081905550816004600083815260200190815260200160002060006101000a81548173ffffffffffffffffffffffffffffffffffffffff021916908373ffffffffffffffffffffffffffffffffffffffff160217905550808273ffffffffffffffffffffffffffffffffffffffff168473ffffffffffffffffffffffffffffffffffffffff167fddf252ad1be2c89b69c2b068fc378daa952ba7f163c4a11628f55a4df523b3ef60405160405180910390a4612c21838383613089565b505050565b6000612710905090565b612c4a82826040518060200160405280600081525061308e565b5050565b8173ffffffffffffffffffffffffffffffffffffffff168373ffffffffffffffffffffffffffffffffffffffff161415612cbd576040517f08c379a0000000000000000000000000000000000000000000000000000000008152600401612cb490614cff565b60405180910390fd5b80600760008573ffffffffffffffffffffffffffffffffffffffff1673ffffffffffffffffffffffffffffffffffffffff16815260200190815260200160002060008473ffffffffffffffffffffffffffffffffffffffff1673ffffffffffffffffffffffffffffffffffffffff16815260200190815260200160002060006101000a81548160ff0219169083151502179055508173ffffffffffffffffffffffffffffffffffffffff168373ffffffffffffffffffffffffffffffffffffffff167f17307eab39ab6107e8899845ad3d59bd9653f200f220920489ca2b5937696c3183604051612dae91906136fc565b60405180910390a3505050565b612dc68484846129bf565b612dd2848484846130e9565b612e11576040517f08c379a0000000000000000000000000000000000000000000000000000000008152600401612e0890614d91565b60405180910390fd5b50505050565b606060108054612e2690614416565b80601f0160208091040260200160405190810160405280929190818152602001828054612e5290614416565b8015612e9f5780601f10612e7457610100808354040283529160200191612e9f565b820191906000526020600020905b815481529060010190602001808311612e8257829003601f168201915b5050505050905090565b60606000821415612ef1576040518060400160405280600181526020017f30000000000000000000000000000000000000000000000000000000000000008152509050613005565b600082905060005b60008214612f23578080612f0c90614ab4565b915050600a82612f1c9190614801565b9150612ef9565b60008167ffffffffffffffff811115612f3f57612f3e613bf7565b5b6040519080825280601f01601f191660200182016040528015612f715781602001600182028036833780820191505090505b5090505b60008514612ffe57600182612f8a919061462d565b9150600a85612f999190614db1565b6030612fa59190614690565b60f81b818381518110612fbb57612fba614661565b5b60200101907effffffffffffffffffffffffffffffffffffffffffffffffffffffffffffff1916908160001a905350600a85612ff79190614801565b9450612f75565b8093505050505b919050565b60007f2a55205a000000000000000000000000000000000000000000000000000000007bffffffffffffffffffffffffffffffffffffffffffffffffffffffff1916827bffffffffffffffffffffffffffffffffffffffffffffffffffffffff1916148061307d575061307c82613280565b5b9050919050565b505050565b505050565b61309883836132ea565b6130a560008484846130e9565b6130e4576040517f08c379a00000000000000000000000000000000000000000000000000000000081526004016130db90614d91565b60405180910390fd5b505050565b600061310a8473ffffffffffffffffffffffffffffffffffffffff166134c4565b15613273578373ffffffffffffffffffffffffffffffffffffffff1663150b7a02613133612820565b8786866040518563ffffffff1660e01b81526004016131559493929190614e37565b602060405180830381600087803b15801561316f57600080fd5b505af19250505080156131a057506040513d601f19601f8201168201806040525081019061319d9190614e98565b60015b613223573d80600081146131d0576040519150601f19603f3d011682016040523d82523d6000602084013e6131d5565b606091505b5060008151141561321b576040517f08c379a000000000000000000000000000000000000000000000000000000000815260040161321290614d91565b60405180910390fd5b805181602001fd5b63150b7a0260e01b7bffffffffffffffffffffffffffffffffffffffffffffffffffffffff1916817bffffffffffffffffffffffffffffffffffffffffffffffffffffffff191614915050613278565b600190505b949350505050565b60007f01ffc9a7000000000000000000000000000000000000000000000000000000007bffffffffffffffffffffffffffffffffffffffffffffffffffffffff1916827bffffffffffffffffffffffffffffffffffffffffffffffffffffffff1916149050919050565b600073ffffffffffffffffffffffffffffffffffffffff168273ffffffffffffffffffffffffffffffffffffffff16141561335a576040517f08c379a000000000000000000000000000000000000000000000000000000000815260040161335190614f11565b60405180910390fd5b613363816127b4565b156133a3576040517f08c379a000000000000000000000000000000000000000000000000000000000815260040161339a90614f7d565b60405180910390fd5b6133af60008383613084565b6001600560008473ffffffffffffffffffffffffffffffffffffffff1673ffffffffffffffffffffffffffffffffffffffff16815260200190815260200160002060008282546133ff9190614690565b92505081905550816004600083815260200190815260200160002060006101000a81548173ffffffffffffffffffffffffffffffffffffffff021916908373ffffffffffffffffffffffffffffffffffffffff160217905550808273ffffffffffffffffffffffffffffffffffffffff16600073ffffffffffffffffffffffffffffffffffffffff167fddf252ad1be2c89b69c2b068fc378daa952ba7f163c4a11628f55a4df523b3ef60405160405180910390a46134c060008383613089565b5050565b6000808273ffffffffffffffffffffffffffffffffffffffff163b119050919050565b604051806080016040528060608152602001600073ffffffffffffffffffffffffffffffffffffffff168152602001600073ffffffffffffffffffffffffffffffffffffffff168152602001600081525090565b508054600082556002029060005260206000209081019061355c91906135e5565b50565b82805461356b90614416565b90600052602060002090601f01602090048101928261358d57600085556135d4565b82601f106135a657805160ff19168380011785556135d4565b828001600101855582156135d4579182015b828111156135d35782518255916020019190600101906135b8565b5b5090506135e1919061362b565b5090565b5b80821115613627576000808201600090556001820160006101000a81549073ffffffffffffffffffffffffffffffffffffffff0219169055506002016135e6565b5090565b5b8082111561364457600081600090555060010161362c565b5090565b6000604051905090565b600080fd5b600080fd5b60007fffffffff0000000000000000000000000000000000000000000000000000000082169050919050565b6136918161365c565b811461369c57600080fd5b50565b6000813590506136ae81613688565b92915050565b6000602082840312156136ca576136c9613652565b5b60006136d88482850161369f565b91505092915050565b60008115159050919050565b6136f6816136e1565b82525050565b600060208201905061371160008301846136ed565b92915050565b600081519050919050565b600082825260208201905092915050565b60005b83811015613751578082015181840152602081019050613736565b83811115613760576000848401525b50505050565b6000601f19601f8301169050919050565b600061378282613717565b61378c8185613722565b935061379c818560208601613733565b6137a581613766565b840191505092915050565b600060208201905081810360008301526137ca8184613777565b905092915050565b6000819050919050565b6137e5816137d2565b81146137f057600080fd5b50565b600081359050613802816137dc565b92915050565b60006020828403121561381e5761381d613652565b5b600061382c848285016137f3565b91505092915050565b600073ffffffffffffffffffffffffffffffffffffffff82169050919050565b600061386082613835565b9050919050565b61387081613855565b82525050565b600060208201905061388b6000830184613867565b92915050565b61389a81613855565b81146138a557600080fd5b50565b6000813590506138b781613891565b92915050565b600080604083850312156138d4576138d3613652565b5b60006138e2858286016138a8565b92505060206138f3858286016137f3565b9150509250929050565b613906816137d2565b82525050565b600060208201905061392160008301846138fd565b92915050565b600082825260208201905092915050565b600061394382613717565b61394d8185613927565b935061395d818560208601613733565b61396681613766565b840191505092915050565b61397a81613855565b82525050565b6000819050919050565b61399381613980565b82525050565b600060808301600083015184820360008601526139b68282613938565b91505060208301516139cb6020860182613971565b5060408301516139de6040860182613971565b5060608301516139f1606086018261398a565b508091505092915050565b60006020820190508181036000830152613a168184613999565b905092915050565b600080600060608486031215613a3757613a36613652565b5b6000613a45868287016138a8565b9350506020613a56868287016138a8565b9250506040613a67868287016137f3565b9150509250925092565b60008060408385031215613a8857613a87613652565b5b6000613a96858286016137f3565b9250506020613aa7858286016137f3565b9150509250929050565b6000604082019050613ac66000830185613867565b613ad360208301846138fd565b9392505050565b613ae381613980565b8114613aee57600080fd5b50565b600081359050613b0081613ada565b92915050565b60008060408385031215613b1d57613b1c613652565b5b6000613b2b858286016137f3565b9250506020613b3c85828601613af1565b9150509250929050565b6000613b5182613835565b9050919050565b613b6181613b46565b82525050565b6000604082019050613b7c60008301856138fd565b613b896020830184613b58565b9392505050565b60006040820190508181036000830152613baa8185613777565b9050613bb96020830184613867565b9392505050565b600060208284031215613bd657613bd5613652565b5b6000613be4848285016138a8565b91505092915050565b600080fd5b600080fd5b7f4e487b7100000000000000000000000000000000000000000000000000000000600052604160045260246000fd5b613c2f82613766565b810181811067ffffffffffffffff82111715613c4e57613c4d613bf7565b5b80604052505050565b6000613c61613648565b9050613c6d8282613c26565b919050565b600067ffffffffffffffff821115613c8d57613c8c613bf7565b5b613c9682613766565b9050602081019050919050565b82818337600083830152505050565b6000613cc5613cc084613c72565b613c57565b905082815260208101848484011115613ce157613ce0613bf2565b5b613cec848285613ca3565b509392505050565b600082601f830112613d0957613d08613bed565b5b8135613d19848260208601613cb2565b91505092915050565b600060208284031215613d3857613d37613652565b5b600082013567ffffffffffffffff811115613d5657613d55613657565b5b613d6284828501613cf4565b91505092915050565b600081519050919050565b600082825260208201905092915050565b6000819050602082019050919050565b60006080830160008301518482036000860152613db48282613938565b9150506020830151613dc96020860182613971565b506040830151613ddc6040860182613971565b506060830151613def606086018261398a565b508091505092915050565b6000613e068383613d97565b905092915050565b6000602082019050919050565b6000613e2682613d6b565b613e308185613d76565b935083602082028501613e4285613d87565b8060005b85811015613e7e5784840389528151613e5f8582613dfa565b9450613e6a83613e0e565b925060208a01995050600181019050613e46565b50829750879550505050505092915050565b60006020820190508181036000830152613eaa8184613e1b565b905092915050565b613ebb816136e1565b8114613ec657600080fd5b50565b600081359050613ed881613eb2565b92915050565b60008060408385031215613ef557613ef4613652565b5b6000613f03858286016138a8565b9250506020613f1485828601613ec9565b9150509250929050565b600081519050919050565b600082825260208201905092915050565b6000819050602082019050919050565b613f53816137d2565b82525050565b613f6281613b46565b82525050565b604082016000820151613f7e6000850182613f4a565b506020820151613f916020850182613f59565b50505050565b6000613fa38383613f68565b60408301905092915050565b6000602082019050919050565b6000613fc782613f1e565b613fd18185613f29565b9350613fdc83613f3a565b8060005b8381101561400d578151613ff48882613f97565b9750613fff83613faf565b925050600181019050613fe0565b5085935050505092915050565b600060208201905081810360008301526140348184613fbc565b905092915050565b600067ffffffffffffffff82111561405757614056613bf7565b5b61406082613766565b9050602081019050919050565b600061408061407b8461403c565b613c57565b90508281526020810184848401111561409c5761409b613bf2565b5b6140a7848285613ca3565b509392505050565b600082601f8301126140c4576140c3613bed565b5b81356140d484826020860161406d565b91505092915050565b600080600080608085870312156140f7576140f6613652565b5b6000614105878288016138a8565b9450506020614116878288016138a8565b9350506040614127878288016137f3565b925050606085013567ffffffffffffffff81111561414857614147613657565b5b614154878288016140af565b91505092959194509250565b61416981613980565b82525050565b600060808201905081810360008301526141898187613777565b90506141986020830186613867565b6141a56040830185613867565b6141b26060830184614160565b95945050505050565b600081519050919050565b600082825260208201905092915050565b6000819050602082019050919050565b600060408301600083015184820360008601526142048282613938565b91505060208301516142196020860182613971565b508091505092915050565b600061423083836141e7565b905092915050565b6000602082019050919050565b6000614250826141bb565b61425a81856141c6565b93508360208202850161426c856141d7565b8060005b858110156142a857848403895281516142898582614224565b945061429483614238565b925060208a01995050600181019050614270565b50829750879550505050505092915050565b600060208201905081810360008301526142d48184614245565b905092915050565b600080604083850312156142f3576142f2613652565b5b6000614301858286016138a8565b925050602083013567ffffffffffffffff81111561432257614321613657565b5b61432e85828601613cf4565b9150509250929050565b6000806040838503121561434f5761434e613652565b5b600061435d858286016138a8565b925050602061436e858286016138a8565b9150509250929050565b60008060006060848603121561439157614390613652565b5b600084013567ffffffffffffffff8111156143af576143ae613657565b5b6143bb86828701613cf4565b93505060206143cc868287016138a8565b92505060406143dd86828701613af1565b9150509250925092565b7f4e487b7100000000000000000000000000000000000000000000000000000000600052602260045260246000fd5b6000600282049050600182168061442e57607f821691505b60208210811415614442576144416143e7565b5b50919050565b7f4552433732313a20617070726f76656420717565727920666f72206e6f6e657860008201527f697374656e7420746f6b656e0000000000000000000000000000000000000000602082015250565b60006144a4602c83613722565b91506144af82614448565b604082019050919050565b600060208201905081810360008301526144d381614497565b9050919050565b7f4552433732313a20617070726f76616c20746f2063757272656e74206f776e6560008201527f7200000000000000000000000000000000000000000000000000000000000000602082015250565b6000614536602183613722565b9150614541826144da565b604082019050919050565b6000602082019050818103600083015261456581614529565b9050919050565b7f4552433732313a20617070726f76652063616c6c6572206973206e6f74206f7760008201527f6e6572206e6f7220617070726f76656420666f7220616c6c0000000000000000602082015250565b60006145c8603883613722565b91506145d38261456c565b604082019050919050565b600060208201905081810360008301526145f7816145bb565b9050919050565b7f4e487b7100000000000000000000000000000000000000000000000000000000600052601160045260246000fd5b6000614638826137d2565b9150614643836137d2565b925082821015614656576146556145fe565b5b828203905092915050565b7f4e487b7100000000000000000000000000000000000000000000000000000000600052603260045260246000fd5b600061469b826137d2565b91506146a6836137d2565b9250827fffffffffffffffffffffffffffffffffffffffffffffffffffffffffffffffff038211156146db576146da6145fe565b5b828201905092915050565b7f4552433732313a207472616e736665722063616c6c6572206973206e6f74206f60008201527f776e6572206e6f7220617070726f766564000000000000000000000000000000602082015250565b6000614742603183613722565b915061474d826146e6565b604082019050919050565b6000602082019050818103600083015261477181614735565b9050919050565b6000614783826137d2565b915061478e836137d2565b9250817fffffffffffffffffffffffffffffffffffffffffffffffffffffffffffffffff04831182151516156147c7576147c66145fe565b5b828202905092915050565b7f4e487b7100000000000000000000000000000000000000000000000000000000600052601260045260246000fd5b600061480c826137d2565b9150614817836137d2565b925082614827576148266147d2565b5b828204905092915050565b7f4552433732313a206f776e657220717565727920666f72206e6f6e657869737460008201527f656e7420746f6b656e0000000000000000000000000000000000000000000000602082015250565b600061488e602983613722565b915061489982614832565b604082019050919050565b600060208201905081810360008301526148bd81614881565b9050919050565b7f4552433732313a2062616c616e636520717565727920666f7220746865207a6560008201527f726f206164647265737300000000000000000000000000000000000000000000602082015250565b6000614920602a83613722565b915061492b826148c4565b604082019050919050565b6000602082019050818103600083015261494f81614913565b9050919050565b7f4552433732314d657461646174613a2055524920717565727920666f72206e6f60008201527f6e6578697374656e7420746f6b656e0000000000000000000000000000000000602082015250565b60006149b2602f83613722565b91506149bd82614956565b604082019050919050565b600060208201905081810360008301526149e1816149a5565b9050919050565b600081905092915050565b60006149fe82613717565b614a0881856149e8565b9350614a18818560208601613733565b80840191505092915050565b6000614a3082856149f3565b9150614a3c82846149f3565b91508190509392505050565b7f5065726d697373696f6e2064656e696564000000000000000000000000000000600082015250565b6000614a7e601183613722565b9150614a8982614a48565b602082019050919050565b60006020820190508181036000830152614aad81614a71565b9050919050565b6000614abf826137d2565b91507fffffffffffffffffffffffffffffffffffffffffffffffffffffffffffffffff821415614af257614af16145fe565b5b600182019050919050565b7f4552433732313a206f70657261746f7220717565727920666f72206e6f6e657860008201527f697374656e7420746f6b656e0000000000000000000000000000000000000000602082015250565b6000614b59602c83613722565b9150614b6482614afd565b604082019050919050565b60006020820190508181036000830152614b8881614b4c565b9050919050565b7f4552433732313a207472616e736665722066726f6d20696e636f72726563742060008201527f6f776e6572000000000000000000000000000000000000000000000000000000602082015250565b6000614beb602583613722565b9150614bf682614b8f565b604082019050919050565b60006020820190508181036000830152614c1a81614bde565b9050919050565b7f4552433732313a207472616e7366657220746f20746865207a65726f2061646460008201527f7265737300000000000000000000000000000000000000000000000000000000602082015250565b6000614c7d602483613722565b9150614c8882614c21565b604082019050919050565b60006020820190508181036000830152614cac81614c70565b9050919050565b7f4552433732313a20617070726f766520746f2063616c6c657200000000000000600082015250565b6000614ce9601983613722565b9150614cf482614cb3565b602082019050919050565b60006020820190508181036000830152614d1881614cdc565b9050919050565b7f4552433732313a207472616e7366657220746f206e6f6e20455243373231526560008201527f63656976657220696d706c656d656e7465720000000000000000000000000000602082015250565b6000614d7b603283613722565b9150614d8682614d1f565b604082019050919050565b60006020820190508181036000830152614daa81614d6e565b9050919050565b6000614dbc826137d2565b9150614dc7836137d2565b925082614dd757614dd66147d2565b5b828206905092915050565b600081519050919050565b600082825260208201905092915050565b6000614e0982614de2565b614e138185614ded565b9350614e23818560208601613733565b614e2c81613766565b840191505092915050565b6000608082019050614e4c6000830187613867565b614e596020830186613867565b614e6660408301856138fd565b8181036060830152614e788184614dfe565b905095945050505050565b600081519050614e9281613688565b92915050565b600060208284031215614eae57614ead613652565b5b6000614ebc84828501614e83565b91505092915050565b7f4552433732313a206d696e7420746f20746865207a65726f2061646472657373600082015250565b6000614efb602083613722565b9150614f0682614ec5565b602082019050919050565b60006020820190508181036000830152614f2a81614eee565b9050919050565b7f4552433732313a20746f6b656e20616c7265616479206d696e74656400000000600082015250565b6000614f67601c83613722565b9150614f7282614f31565b602082019050919050565b60006020820190508181036000830152614f9681614f5a565b905091905056fea2646970667358221220d222e5318a7658a8e880fdca6170cd9c6dcacca24ccbf8dd1e1bd86d4714164964736f6c6343000809003368747470733a2f2f63726167746c61622e6769746875622e696f2f6772612d6172742f7372632f6d657461646174612f",
  "immutableReferences": {
    "3172": [
      {
        "length": 32,
        "start": 4736
      },
      {
        "length": 32,
        "start": 8812
      },
      {
        "length": 32,
        "start": 9543
      }
    ]
  },
  "source": "// SPDX-License-Identifier: MIT\r\npragma solidity ^0.8.0;\r\n\r\nimport \"@openzeppelin/contracts/token/ERC721/ERC721.sol\"; // 1-to-1 NFT\r\nimport \"@openzeppelin/contracts/token/ERC721/extensions/ERC721Royalty.sol\";\r\n\r\ncontract Painting is ERC721Royalty {\r\n    uint256 public cost = 0.001 ether; // mint price, will reject if below\r\n    uint256 public maxSupply = 20;\r\n    uint256 public totalSupply = 0;\r\n    address public immutable contract_owner;\r\n\r\n    struct Paint {\r\n        string name;\r\n        address owner;\r\n        address creator;\r\n        int256 list_price; // -1 means auction, 0 means not listed by owner\r\n    }\r\n    Paint[] public paintings;\r\n    struct Bid {\r\n        uint256 amount;\r\n        address payable bidder;\r\n    }\r\n    // index of current auction\r\n    uint256 auction_painting_id = 0; // 1-based, 0 meant no auction\r\n    // bids are in ascending amount, i.e. last element is highest\r\n    Bid[] public bids;\r\n    uint auction_expiry_date;\r\n\r\n    struct Name {\r\n        string name;\r\n        address wallet_address;\r\n    }\r\n    Name[] public names;\r\n\r\n    constructor(\r\n        string memory _name,\r\n        string memory _symbol,\r\n        uint256 _cost\r\n    ) ERC721(_name, _symbol) {\r\n        _cost = cost;\r\n        contract_owner = msg.sender; // security to restrict addPainting to only deployer\r\n        address creator = address(0x3A3593B8e169236289Cf8699876A8Af393B02230);\r\n        address artist = address(0xeC79fC264b134eA21161D7e1487676b8D26B6AE8);\r\n\r\n        _setDefaultRoyalty(creator, 1000); // 10%\r\n\r\n        addPainting(\"Life Is Good\", artist, 0);\r\n        addPainting(\"Adventures Await\", artist, 0);\r\n        addPainting(\"Journey On\", artist, 0);\r\n        addPainting(\"Evening Autumn (KY)\", artist, 0);\r\n        addPainting(\r\n            \"Fast Train\",\r\n            address(0x73382d70c64b527a7652Eb21C48bfc1eD2B6E0b6),\r\n            0\r\n        );\r\n\r\n        addPainting(\"Maximum Throttle (MT)\", artist, 0);\r\n        addPainting(\"MBS (KS)\", artist, 0);\r\n        addPainting(\"Peekaboo\", artist, 0);\r\n        addPainting(\"Golden Moments\", artist, 0);\r\n        addPainting(\"Sunset\", artist, 0);\r\n\r\n        addPainting(\"Blossoms\", artist, 0);\r\n        addPainting(\r\n            \"Darkness\",\r\n            address(0x3A3593B8e169236289Cf8699876A8Af393B02230),\r\n            0\r\n        );\r\n        addPainting(\"Bright\", artist, 0);\r\n        addPainting(\"Rainbow Tree\", artist, 0);\r\n        addPainting(\"Relax\", artist, 0);\r\n\r\n        addName(\r\n            address(0x3A3593B8e169236289Cf8699876A8Af393B02230),\r\n            \"ThienRong\"\r\n        );\r\n        addName(address(0x73382d70c64b527a7652Eb21C48bfc1eD2B6E0b6), \"lenovo\");\r\n        addName(\r\n            address(0x21586e20921f2d6C068830C9460c728c9a3411a2),\r\n            \"SiewMooi\"\r\n        );\r\n        addName(address(0xCAAE7Ee609621f5B64d7553fdee4696B2a4Eb56F), \"ChuiChi\");\r\n        addName(address(0xeC79fC264b134eA21161D7e1487676b8D26B6AE8), \"Van GRA\");\r\n        /*\r\n        paintings[0].owner=address(0xB793eca1c417B001fa2b82cc35f8488124C54F0e);\r\n        paintings[0].list_price=-1; \r\n        auction_painting_id=1;\r\n        auction_expiry_date=block.timestamp+30 minutes;\r\n        */\r\n    }\r\n\r\n    string baseURIStr = \"https://cragtlab.github.io/gra-art/src/metadata/\";\r\n\r\n    //\"ipfs://QmXyoc8kwjUvPqgJP3kQeLiSGS4wFnHt78JPs9AsYepGHd/\"; // works too but metamask somehow dont show the image when import even though confirm can fetch in background.html\r\n    // \"https://raw.githubusercontent.com/cragtlab/gra-art/main/src/metadata/\"; dont work in silvergate\r\n    function updateBaseURI(string memory newBaseURIStr) public {\r\n        baseURIStr = newBaseURIStr;\r\n    }\r\n\r\n    function _baseURI() internal view override returns (string memory) {\r\n        return baseURIStr;\r\n    }\r\n\r\n    /* name related */\r\n    function addName(address walletAddress, string memory name) public {\r\n        // self update or contract owner update\r\n        require(\r\n            msg.sender == walletAddress || msg.sender == contract_owner,\r\n            \"Permission denied\"\r\n        );\r\n        bool found = false;\r\n        for (uint256 i = 0; i < names.length; i++) {\r\n            if (names[i].wallet_address == walletAddress) {\r\n                names[i].name = name;\r\n                found = true;\r\n                break;\r\n            }\r\n        }\r\n\r\n        if (!found) {\r\n            names.push(Name(name, walletAddress));\r\n        }\r\n    }\r\n\r\n    function getNames() public view returns (Name[] memory) {\r\n        return names;\r\n    }\r\n\r\n    /* end name related */\r\n\r\n    /* auction related  */\r\n    function addBid(uint256 amount) public {\r\n        require(auction_painting_id > 0); // ongoing auction\r\n        require(auction_expiry_date >= block.timestamp); // not expired\r\n        if (bids.length > 0) {\r\n            require(amount > bids[bids.length - 1].amount);\r\n        }\r\n        if (auction_expiry_date - block.timestamp < 2 minutes) {\r\n            auction_expiry_date = block.timestamp + 2 minutes;\r\n        }\r\n\r\n        bids.push(Bid(amount, payable(msg.sender)));\r\n    }\r\n\r\n    function getAuctionPaintingID() public view returns (uint256) {\r\n        return auction_painting_id;\r\n    }\r\n\r\n    function getAuctionExpiryDate() public view returns (uint) {\r\n        return auction_expiry_date;\r\n    }\r\n\r\n    function getBids() public view returns (Bid[] memory) {\r\n        return bids;\r\n    }\r\n\r\n    // to be trigger by top bidder\r\n    function payAuction() public payable returns (bool) {\r\n        require(auction_painting_id > 0);\r\n        require(block.timestamp > auction_expiry_date); // expired\r\n\r\n        if (bids.length == 0) {\r\n            auction_painting_id = 0;\r\n            return false;\r\n        }\r\n\r\n        Bid memory highestBid = bids[bids.length - 1];\r\n        require(msg.sender == highestBid.bidder);\r\n        require(msg.value >= highestBid.amount);\r\n        // to refactor out since also in buyToken?\r\n        Paint memory auction = paintings[auction_painting_id - 1];\r\n        _transfer(auction.owner, msg.sender, auction_painting_id); // transfer token\r\n        address payable _owner = payable(auction.owner);\r\n        _owner.transfer(msg.value); // pay money to seller\r\n        // somehow painting owner and list price  didn't update when use auction variable instead\r\n        paintings[auction_painting_id - 1].owner = msg.sender; // change ownership after all done. must be after transfer\r\n        paintings[auction_painting_id - 1].list_price = 0;\r\n        auction_painting_id = 0; //reset token\r\n        return true;\r\n    }\r\n\r\n    /* end auction related */\r\n\r\n    function addPainting(\r\n        string memory _name,\r\n        address creator,\r\n        int256 list_price\r\n    ) public {\r\n        require(msg.sender == contract_owner);\r\n        paintings.push(Paint(_name, address(0x0), creator, list_price));\r\n    }\r\n\r\n    function mint(uint256 _id) public payable {\r\n        uint256 supply = totalSupply;\r\n        require(supply <= maxSupply);\r\n        require(paintings[_id - 1].owner == address(0x0));\r\n        require(msg.value >= cost);\r\n\r\n        // NOTE: tokenID always starts from 1, but our array starts from 0\r\n        paintings[_id - 1].owner = msg.sender;\r\n        totalSupply = totalSupply + 1;\r\n        _safeMint(msg.sender, _id);\r\n    }\r\n\r\n    function transferFrom(\r\n        address from,\r\n        address to,\r\n        uint256 tokenId\r\n    ) public override {\r\n        require(\r\n            _isApprovedOrOwner(_msgSender(), tokenId),\r\n            \"ERC721: transfer caller is not owner nor approved\"\r\n        );\r\n\r\n        // Update ownership\r\n        paintings[tokenId - 1].owner = to;\r\n        _transfer(from, to, tokenId);\r\n    }\r\n\r\n    function listToken(uint256 _id, int256 list_price) public {\r\n        require(\r\n            _isApprovedOrOwner(_msgSender(), _id),\r\n            \"ERC721: transfer caller is not owner nor approved\"\r\n        );\r\n        paintings[_id - 1].list_price = list_price;\r\n        if (list_price < 0) {\r\n            // should only allow by contract_owner to prevent abuse or clearing ongoing auction\r\n            delete bids;\r\n            auction_painting_id = _id;\r\n            auction_expiry_date = block.timestamp + 5 minutes;\r\n        } else {\r\n            // remove from auction\r\n            if (_id == auction_painting_id) {\r\n                auction_painting_id = 0;\r\n            }\r\n        }\r\n    }\r\n\r\n    function buyToken(uint256 _id) external payable {\r\n        //require(paintings[_id - 1].owner != address(0x0));\r\n        require(paintings[_id - 1].list_price > 0);\r\n        require(msg.value >= uint256(paintings[_id - 1].list_price)); // convert to uint256 only after confirm > 0\r\n\r\n        _transfer(paintings[_id - 1].owner, msg.sender, _id); // transfer token\r\n        address payable _owner = payable(paintings[_id - 1].owner);\r\n        _owner.transfer(msg.value); // pay money to seller\r\n        paintings[_id - 1].owner = msg.sender; // change ownership after all done. must be after transfer\r\n        paintings[_id - 1].list_price = 0;\r\n    }\r\n\r\n    function safeTransferFrom(\r\n        address from,\r\n        address to,\r\n        uint256 tokenId,\r\n        bytes memory _data\r\n    ) public override {\r\n        require(\r\n            _isApprovedOrOwner(_msgSender(), tokenId),\r\n            \"ERC721: transfer caller is not owner nor approved\"\r\n        );\r\n\r\n        // Update ownership\r\n        paintings[tokenId - 1].owner = to;\r\n        _safeTransfer(from, to, tokenId, _data);\r\n    }\r\n\r\n    // Public View Functions\r\n    function getPaintings() public view returns (Paint[] memory) {\r\n        return paintings;\r\n    }\r\n\r\n    function getPainting(uint256 _id) public view returns (Paint memory) {\r\n        return paintings[_id - 1];\r\n    }\r\n\r\n    /* withdraw money\r\n    function withdraw() public payable{\r\n        payable(msg.sender).transfer(address(this).balance);\r\n    }*/\r\n}\r\n",
  "sourcePath": "C:\\Users\\GTUser\\Desktop\\Metaverse-main\\gra-art\\src\\contracts\\Painting.sol",
  "compiler": {
    "name": "solc",
    "version": "0.8.9+commit.e5eed63a.Emscripten.clang"
  },
  "schemaVersion": "3.4.16",
  "updatedAt": "2023-11-22T06:04:10.259Z",
  "networkType": "ethereum",
  "devdoc": {
    "kind": "dev",
    "methods": {
      "approve(address,uint256)": {
        "details": "See {IERC721-approve}."
      },
      "balanceOf(address)": {
        "details": "See {IERC721-balanceOf}."
      },
      "getApproved(uint256)": {
        "details": "See {IERC721-getApproved}."
      },
      "isApprovedForAll(address,address)": {
        "details": "See {IERC721-isApprovedForAll}."
      },
      "name()": {
        "details": "See {IERC721Metadata-name}."
      },
      "ownerOf(uint256)": {
        "details": "See {IERC721-ownerOf}."
      },
      "royaltyInfo(uint256,uint256)": {
        "details": "Returns how much royalty is owed and to whom, based on a sale price that may be denominated in any unit of exchange. The royalty amount is denominated and should be payed in that same unit of exchange."
      },
      "safeTransferFrom(address,address,uint256)": {
        "details": "See {IERC721-safeTransferFrom}."
      },
      "safeTransferFrom(address,address,uint256,bytes)": {
        "details": "See {IERC721-safeTransferFrom}."
      },
      "setApprovalForAll(address,bool)": {
        "details": "See {IERC721-setApprovalForAll}."
      },
      "supportsInterface(bytes4)": {
        "details": "See {IERC165-supportsInterface}."
      },
      "symbol()": {
        "details": "See {IERC721Metadata-symbol}."
      },
      "tokenURI(uint256)": {
        "details": "See {IERC721Metadata-tokenURI}."
      },
      "transferFrom(address,address,uint256)": {
        "details": "See {IERC721-transferFrom}."
      }
    },
    "version": 1
  },
  "userdoc": {
    "kind": "user",
    "methods": {},
    "version": 1
  }
}