{
  "contractName": "VIPNFT",
  "abi": [
    {
      "inputs": [],
      "stateMutability": "nonpayable",
      "type": "constructor"
    },
    {
      "anonymous": false,
      "inputs": [
        {
          "indexed": true,
          "internalType": "address",
          "name": "account",
          "type": "address"
        },
        {
          "indexed": true,
          "internalType": "address",
          "name": "operator",
          "type": "address"
        },
        {
          "indexed": false,
          "internalType": "bool",
          "name": "approved",
          "type": "bool"
        }
      ],
      "name": "ApprovalForAll",
      "type": "event"
    },
    {
      "anonymous": false,
      "inputs": [
        {
          "indexed": true,
          "internalType": "address",
          "name": "operator",
          "type": "address"
        },
        {
          "indexed": true,
          "internalType": "address",
          "name": "from",
          "type": "address"
        },
        {
          "indexed": true,
          "internalType": "address",
          "name": "to",
          "type": "address"
        },
        {
          "indexed": false,
          "internalType": "uint256[]",
          "name": "ids",
          "type": "uint256[]"
        },
        {
          "indexed": false,
          "internalType": "uint256[]",
          "name": "values",
          "type": "uint256[]"
        }
      ],
      "name": "TransferBatch",
      "type": "event"
    },
    {
      "anonymous": false,
      "inputs": [
        {
          "indexed": true,
          "internalType": "address",
          "name": "operator",
          "type": "address"
        },
        {
          "indexed": true,
          "internalType": "address",
          "name": "from",
          "type": "address"
        },
        {
          "indexed": true,
          "internalType": "address",
          "name": "to",
          "type": "address"
        },
        {
          "indexed": false,
          "internalType": "uint256",
          "name": "id",
          "type": "uint256"
        },
        {
          "indexed": false,
          "internalType": "uint256",
          "name": "value",
          "type": "uint256"
        }
      ],
      "name": "TransferSingle",
      "type": "event"
    },
    {
      "anonymous": false,
      "inputs": [
        {
          "indexed": false,
          "internalType": "string",
          "name": "value",
          "type": "string"
        },
        {
          "indexed": true,
          "internalType": "uint256",
          "name": "id",
          "type": "uint256"
        }
      ],
      "name": "URI",
      "type": "event"
    },
    {
      "inputs": [],
      "name": "MAX_SUPPLY",
      "outputs": [
        {
          "internalType": "uint256",
          "name": "",
          "type": "uint256"
        }
      ],
      "stateMutability": "view",
      "type": "function",
      "constant": true
    },
    {
      "inputs": [
        {
          "internalType": "address",
          "name": "account",
          "type": "address"
        },
        {
          "internalType": "uint256",
          "name": "id",
          "type": "uint256"
        }
      ],
      "name": "balanceOf",
      "outputs": [
        {
          "internalType": "uint256",
          "name": "",
          "type": "uint256"
        }
      ],
      "stateMutability": "view",
      "type": "function",
      "constant": true
    },
    {
      "inputs": [
        {
          "internalType": "address[]",
          "name": "accounts",
          "type": "address[]"
        },
        {
          "internalType": "uint256[]",
          "name": "ids",
          "type": "uint256[]"
        }
      ],
      "name": "balanceOfBatch",
      "outputs": [
        {
          "internalType": "uint256[]",
          "name": "",
          "type": "uint256[]"
        }
      ],
      "stateMutability": "view",
      "type": "function",
      "constant": true
    },
    {
      "inputs": [
        {
          "internalType": "address",
          "name": "account",
          "type": "address"
        },
        {
          "internalType": "address",
          "name": "operator",
          "type": "address"
        }
      ],
      "name": "isApprovedForAll",
      "outputs": [
        {
          "internalType": "bool",
          "name": "",
          "type": "bool"
        }
      ],
      "stateMutability": "view",
      "type": "function",
      "constant": true
    },
    {
      "inputs": [],
      "name": "minted",
      "outputs": [
        {
          "internalType": "uint256",
          "name": "",
          "type": "uint256"
        }
      ],
      "stateMutability": "view",
      "type": "function",
      "constant": true
    },
    {
      "inputs": [
        {
          "internalType": "address",
          "name": "from",
          "type": "address"
        },
        {
          "internalType": "address",
          "name": "to",
          "type": "address"
        },
        {
          "internalType": "uint256[]",
          "name": "ids",
          "type": "uint256[]"
        },
        {
          "internalType": "uint256[]",
          "name": "amounts",
          "type": "uint256[]"
        },
        {
          "internalType": "bytes",
          "name": "data",
          "type": "bytes"
        }
      ],
      "name": "safeBatchTransferFrom",
      "outputs": [],
      "stateMutability": "nonpayable",
      "type": "function"
    },
    {
      "inputs": [
        {
          "internalType": "address",
          "name": "from",
          "type": "address"
        },
        {
          "internalType": "address",
          "name": "to",
          "type": "address"
        },
        {
          "internalType": "uint256",
          "name": "id",
          "type": "uint256"
        },
        {
          "internalType": "uint256",
          "name": "amount",
          "type": "uint256"
        },
        {
          "internalType": "bytes",
          "name": "data",
          "type": "bytes"
        }
      ],
      "name": "safeTransferFrom",
      "outputs": [],
      "stateMutability": "nonpayable",
      "type": "function"
    },
    {
      "inputs": [
        {
          "internalType": "address",
          "name": "operator",
          "type": "address"
        },
        {
          "internalType": "bool",
          "name": "approved",
          "type": "bool"
        }
      ],
      "name": "setApprovalForAll",
      "outputs": [],
      "stateMutability": "nonpayable",
      "type": "function"
    },
    {
      "inputs": [
        {
          "internalType": "bytes4",
          "name": "interfaceId",
          "type": "bytes4"
        }
      ],
      "name": "supportsInterface",
      "outputs": [
        {
          "internalType": "bool",
          "name": "",
          "type": "bool"
        }
      ],
      "stateMutability": "view",
      "type": "function",
      "constant": true
    },
    {
      "inputs": [
        {
          "internalType": "uint256",
          "name": "",
          "type": "uint256"
        }
      ],
      "name": "uri",
      "outputs": [
        {
          "internalType": "string",
          "name": "",
          "type": "string"
        }
      ],
      "stateMutability": "view",
      "type": "function",
      "constant": true
    },
    {
      "inputs": [
        {
          "internalType": "address",
          "name": "buyer",
          "type": "address"
        }
      ],
      "name": "mint",
      "outputs": [],
      "stateMutability": "payable",
      "type": "function",
      "payable": true
    }
  ],
  "bytecode": "0x6080604052601460035560006004553480156200001b57600080fd5b506040518060800160405280604d815260200162003848604d91396200004781620000e260201b60201c565b506200006d733a3593b8e169236289cf8699876a8af393b02230620000fe60201b60201c565b620000927373382d70c64b527a7652eb21c48bfc1ed2b6e0b6620000fe60201b60201c565b620000b77321586e20921f2d6c068830c9460c728c9a3411a2620000fe60201b60201c565b620000dc73caae7ee609621f5b64d7553fdee4696b2a4eb56f620000fe60201b60201c565b62000e50565b8060029080519060200190620000fa9291906200060b565b5050565b6003546004541062000147576040517f08c379a00000000000000000000000000000000000000000000000000000000081526004016200013e906200071c565b60405180910390fd5b600460008154809291906200015c9062000777565b91905055506200018581600180604051806020016040528060008152506200018860201b60201c565b50565b600073ffffffffffffffffffffffffffffffffffffffff168473ffffffffffffffffffffffffffffffffffffffff161415620001fb576040517f08c379a0000000000000000000000000000000000000000000000000000000008152600401620001f2906200083b565b60405180910390fd5b60006200020d6200034d60201b60201c565b9050620002468160008762000228886200035560201b60201c565b62000239886200035560201b60201c565b87620003d660201b60201c565b8260008086815260200190815260200160002060008773ffffffffffffffffffffffffffffffffffffffff1673ffffffffffffffffffffffffffffffffffffffff1681526020019081526020016000206000828254620002a791906200085d565b925050819055508473ffffffffffffffffffffffffffffffffffffffff16600073ffffffffffffffffffffffffffffffffffffffff168273ffffffffffffffffffffffffffffffffffffffff167fc3d58168c5ae7397731d063d5bbf3d657854427343f4c083240f7aacaa2d0f62878760405162000327929190620008cb565b60405180910390a46200034681600087878787620003de60201b60201c565b5050505050565b600033905090565b60606000600167ffffffffffffffff811115620003775762000376620008f8565b5b604051908082528060200260200182016040528015620003a65781602001602082028036833780820191505090505b5090508281600081518110620003c157620003c062000927565b5b60200260200101818152505080915050919050565b505050505050565b6200040a8473ffffffffffffffffffffffffffffffffffffffff16620005e860201b6200088b1760201c565b15620005e0578373ffffffffffffffffffffffffffffffffffffffff1663f23a6e6187878686866040518663ffffffff1660e01b81526004016200045395949392919062000a3f565b602060405180830381600087803b1580156200046e57600080fd5b505af1925050508015620004a257506040513d601f19601f820116820180604052508101906200049f919062000b0f565b60015b6200055457620004b162000b4e565b806308c379a01415620005155750620004c962000ba9565b80620004d6575062000517565b806040517f08c379a00000000000000000000000000000000000000000000000000000000081526004016200050c919062000c97565b60405180910390fd5b505b6040517f08c379a00000000000000000000000000000000000000000000000000000000081526004016200054b9062000d31565b60405180910390fd5b63f23a6e6160e01b7bffffffffffffffffffffffffffffffffffffffffffffffffffffffff1916817bffffffffffffffffffffffffffffffffffffffffffffffffffffffff191614620005de576040517f08c379a0000000000000000000000000000000000000000000000000000000008152600401620005d59062000dc9565b60405180910390fd5b505b505050505050565b6000808273ffffffffffffffffffffffffffffffffffffffff163b119050919050565b828054620006199062000e1a565b90600052602060002090601f0160209004810192826200063d576000855562000689565b82601f106200065857805160ff191683800117855562000689565b8280016001018555821562000689579182015b82811115620006885782518255916020019190600101906200066b565b5b5090506200069891906200069c565b5090565b5b80821115620006b75760008160009055506001016200069d565b5090565b600082825260208201905092915050565b7f6e6f7420656e6f75676820737570706c79206c65667400000000000000000000600082015250565b600062000704601683620006bb565b91506200071182620006cc565b602082019050919050565b600060208201905081810360008301526200073781620006f5565b9050919050565b7f4e487b7100000000000000000000000000000000000000000000000000000000600052601160045260246000fd5b6000819050919050565b600062000784826200076d565b91507fffffffffffffffffffffffffffffffffffffffffffffffffffffffffffffffff821415620007ba57620007b96200073e565b5b600182019050919050565b7f455243313135353a206d696e7420746f20746865207a65726f2061646472657360008201527f7300000000000000000000000000000000000000000000000000000000000000602082015250565b600062000823602183620006bb565b91506200083082620007c5565b604082019050919050565b60006020820190508181036000830152620008568162000814565b9050919050565b60006200086a826200076d565b915062000877836200076d565b9250827fffffffffffffffffffffffffffffffffffffffffffffffffffffffffffffffff03821115620008af57620008ae6200073e565b5b828201905092915050565b620008c5816200076d565b82525050565b6000604082019050620008e26000830185620008ba565b620008f16020830184620008ba565b9392505050565b7f4e487b7100000000000000000000000000000000000000000000000000000000600052604160045260246000fd5b7f4e487b7100000000000000000000000000000000000000000000000000000000600052603260045260246000fd5b600073ffffffffffffffffffffffffffffffffffffffff82169050919050565b6000620009838262000956565b9050919050565b620009958162000976565b82525050565b600081519050919050565b600082825260208201905092915050565b60005b83811015620009d7578082015181840152602081019050620009ba565b83811115620009e7576000848401525b50505050565b6000601f19601f8301169050919050565b600062000a0b826200099b565b62000a178185620009a6565b935062000a29818560208601620009b7565b62000a3481620009ed565b840191505092915050565b600060a08201905062000a5660008301886200098a565b62000a6560208301876200098a565b62000a746040830186620008ba565b62000a836060830185620008ba565b818103608083015262000a978184620009fe565b90509695505050505050565b6000604051905090565b600080fd5b60007fffffffff0000000000000000000000000000000000000000000000000000000082169050919050565b62000ae98162000ab2565b811462000af557600080fd5b50565b60008151905062000b098162000ade565b92915050565b60006020828403121562000b285762000b2762000aad565b5b600062000b388482850162000af8565b91505092915050565b60008160e01c9050919050565b600060033d111562000b705760046000803e62000b6d60005162000b41565b90505b90565b62000b7e82620009ed565b810181811067ffffffffffffffff8211171562000ba05762000b9f620008f8565b5b80604052505050565b600060443d101562000bbb5762000c48565b62000bc562000aa3565b60043d036004823e80513d602482011167ffffffffffffffff8211171562000bef57505062000c48565b808201805167ffffffffffffffff81111562000c0f575050505062000c48565b80602083010160043d03850181111562000c2e57505050505062000c48565b62000c3f8260200185018662000b73565b82955050505050505b90565b600081519050919050565b600062000c638262000c4b565b62000c6f8185620006bb565b935062000c81818560208601620009b7565b62000c8c81620009ed565b840191505092915050565b6000602082019050818103600083015262000cb3818462000c56565b905092915050565b7f455243313135353a207472616e7366657220746f206e6f6e204552433131353560008201527f526563656976657220696d706c656d656e746572000000000000000000000000602082015250565b600062000d19603483620006bb565b915062000d268262000cbb565b604082019050919050565b6000602082019050818103600083015262000d4c8162000d0a565b9050919050565b7f455243313135353a204552433131353552656365697665722072656a6563746560008201527f6420746f6b656e73000000000000000000000000000000000000000000000000602082015250565b600062000db1602883620006bb565b915062000dbe8262000d53565b604082019050919050565b6000602082019050818103600083015262000de48162000da2565b9050919050565b7f4e487b7100000000000000000000000000000000000000000000000000000000600052602260045260246000fd5b6000600282049050600182168062000e3357607f821691505b6020821081141562000e4a5762000e4962000deb565b5b50919050565b6129e88062000e606000396000f3fe60806040526004361061009b5760003560e01c80634e1273f4116100645780634e1273f4146101ab5780634f02c420146101e85780636a62784214610213578063a22cb4651461022f578063e985e9c514610258578063f242432a146102955761009b565b8062fdd58e146100a057806301ffc9a7146100dd5780630e89341c1461011a5780632eb2c2d61461015757806332cb6b0c14610180575b600080fd5b3480156100ac57600080fd5b506100c760048036038101906100c291906116b1565b6102be565b6040516100d49190611700565b60405180910390f35b3480156100e957600080fd5b5061010460048036038101906100ff9190611773565b610387565b60405161011191906117bb565b60405180910390f35b34801561012657600080fd5b50610141600480360381019061013c91906117d6565b610469565b60405161014e919061189c565b60405180910390f35b34801561016357600080fd5b5061017e60048036038101906101799190611abb565b6104fd565b005b34801561018c57600080fd5b5061019561059e565b6040516101a29190611700565b60405180910390f35b3480156101b757600080fd5b506101d260048036038101906101cd9190611c4d565b6105a4565b6040516101df9190611d83565b60405180910390f35b3480156101f457600080fd5b506101fd6106bd565b60405161020a9190611700565b60405180910390f35b61022d60048036038101906102289190611da5565b6106c3565b005b34801561023b57600080fd5b5061025660048036038101906102519190611dfe565b610740565b005b34801561026457600080fd5b5061027f600480360381019061027a9190611e3e565b610756565b60405161028c91906117bb565b60405180910390f35b3480156102a157600080fd5b506102bc60048036038101906102b79190611e7e565b6107ea565b005b60008073ffffffffffffffffffffffffffffffffffffffff168373ffffffffffffffffffffffffffffffffffffffff16141561032f576040517f08c379a000000000000000000000000000000000000000000000000000000000815260040161032690611f87565b60405180910390fd5b60008083815260200190815260200160002060008473ffffffffffffffffffffffffffffffffffffffff1673ffffffffffffffffffffffffffffffffffffffff16815260200190815260200160002054905092915050565b60007fd9b67a26000000000000000000000000000000000000000000000000000000007bffffffffffffffffffffffffffffffffffffffffffffffffffffffff1916827bffffffffffffffffffffffffffffffffffffffffffffffffffffffff1916148061045257507f0e89341c000000000000000000000000000000000000000000000000000000007bffffffffffffffffffffffffffffffffffffffffffffffffffffffff1916827bffffffffffffffffffffffffffffffffffffffffffffffffffffffff1916145b806104625750610461826108ae565b5b9050919050565b60606002805461047890611fd6565b80601f01602080910402602001604051908101604052809291908181526020018280546104a490611fd6565b80156104f15780601f106104c6576101008083540402835291602001916104f1565b820191906000526020600020905b8154815290600101906020018083116104d457829003601f168201915b50505050509050919050565b610505610918565b73ffffffffffffffffffffffffffffffffffffffff168573ffffffffffffffffffffffffffffffffffffffff16148061054b575061054a85610545610918565b610756565b5b61058a576040517f08c379a00000000000000000000000000000000000000000000000000000000081526004016105819061207a565b60405180910390fd5b6105978585858585610920565b5050505050565b60035481565b606081518351146105ea576040517f08c379a00000000000000000000000000000000000000000000000000000000081526004016105e19061210c565b60405180910390fd5b6000835167ffffffffffffffff811115610607576106066118c3565b5b6040519080825280602002602001820160405280156106355781602001602082028036833780820191505090505b50905060005b84518110156106b25761068285828151811061065a5761065961212c565b5b60200260200101518583815181106106755761067461212c565b5b60200260200101516102be565b8282815181106106955761069461212c565b5b602002602001018181525050806106ab9061218a565b905061063b565b508091505092915050565b60045481565b60035460045410610709576040517f08c379a00000000000000000000000000000000000000000000000000000000081526004016107009061221f565b60405180910390fd5b6004600081548092919061071c9061218a565b919050555061073d8160018060405180602001604052806000815250610c34565b50565b61075261074b610918565b8383610dca565b5050565b6000600160008473ffffffffffffffffffffffffffffffffffffffff1673ffffffffffffffffffffffffffffffffffffffff16815260200190815260200160002060008373ffffffffffffffffffffffffffffffffffffffff1673ffffffffffffffffffffffffffffffffffffffff16815260200190815260200160002060009054906101000a900460ff16905092915050565b6107f2610918565b73ffffffffffffffffffffffffffffffffffffffff168573ffffffffffffffffffffffffffffffffffffffff161480610838575061083785610832610918565b610756565b5b610877576040517f08c379a000000000000000000000000000000000000000000000000000000000815260040161086e906122b1565b60405180910390fd5b6108848585858585610f37565b5050505050565b6000808273ffffffffffffffffffffffffffffffffffffffff163b119050919050565b60007f01ffc9a7000000000000000000000000000000000000000000000000000000007bffffffffffffffffffffffffffffffffffffffffffffffffffffffff1916827bffffffffffffffffffffffffffffffffffffffffffffffffffffffff1916149050919050565b600033905090565b8151835114610964576040517f08c379a000000000000000000000000000000000000000000000000000000000815260040161095b90612343565b60405180910390fd5b600073ffffffffffffffffffffffffffffffffffffffff168473ffffffffffffffffffffffffffffffffffffffff1614156109d4576040517f08c379a00000000000000000000000000000000000000000000000000000000081526004016109cb906123d5565b60405180910390fd5b60006109de610918565b90506109ee8187878787876111b9565b60005b8451811015610b9f576000858281518110610a0f57610a0e61212c565b5b602002602001015190506000858381518110610a2e57610a2d61212c565b5b60200260200101519050600080600084815260200190815260200160002060008b73ffffffffffffffffffffffffffffffffffffffff1673ffffffffffffffffffffffffffffffffffffffff16815260200190815260200160002054905081811015610acf576040517f08c379a0000000000000000000000000000000000000000000000000000000008152600401610ac690612467565b60405180910390fd5b81810360008085815260200190815260200160002060008c73ffffffffffffffffffffffffffffffffffffffff1673ffffffffffffffffffffffffffffffffffffffff168152602001908152602001600020819055508160008085815260200190815260200160002060008b73ffffffffffffffffffffffffffffffffffffffff1673ffffffffffffffffffffffffffffffffffffffff1681526020019081526020016000206000828254610b849190612487565b9250508190555050505080610b989061218a565b90506109f1565b508473ffffffffffffffffffffffffffffffffffffffff168673ffffffffffffffffffffffffffffffffffffffff168273ffffffffffffffffffffffffffffffffffffffff167f4a39dc06d4c0dbc64b70af90fd698a233a518aa5d07e595d983b8c0526c8f7fb8787604051610c169291906124dd565b60405180910390a4610c2c8187878787876111c1565b505050505050565b600073ffffffffffffffffffffffffffffffffffffffff168473ffffffffffffffffffffffffffffffffffffffff161415610ca4576040517f08c379a0000000000000000000000000000000000000000000000000000000008152600401610c9b90612586565b60405180910390fd5b6000610cae610918565b9050610ccf81600087610cc0886113a8565b610cc9886113a8565b876111b9565b8260008086815260200190815260200160002060008773ffffffffffffffffffffffffffffffffffffffff1673ffffffffffffffffffffffffffffffffffffffff1681526020019081526020016000206000828254610d2e9190612487565b925050819055508473ffffffffffffffffffffffffffffffffffffffff16600073ffffffffffffffffffffffffffffffffffffffff168273ffffffffffffffffffffffffffffffffffffffff167fc3d58168c5ae7397731d063d5bbf3d657854427343f4c083240f7aacaa2d0f628787604051610dac9291906125a6565b60405180910390a4610dc381600087878787611422565b5050505050565b8173ffffffffffffffffffffffffffffffffffffffff168373ffffffffffffffffffffffffffffffffffffffff161415610e39576040517f08c379a0000000000000000000000000000000000000000000000000000000008152600401610e3090612641565b60405180910390fd5b80600160008573ffffffffffffffffffffffffffffffffffffffff1673ffffffffffffffffffffffffffffffffffffffff16815260200190815260200160002060008473ffffffffffffffffffffffffffffffffffffffff1673ffffffffffffffffffffffffffffffffffffffff16815260200190815260200160002060006101000a81548160ff0219169083151502179055508173ffffffffffffffffffffffffffffffffffffffff168373ffffffffffffffffffffffffffffffffffffffff167f17307eab39ab6107e8899845ad3d59bd9653f200f220920489ca2b5937696c3183604051610f2a91906117bb565b60405180910390a3505050565b600073ffffffffffffffffffffffffffffffffffffffff168473ffffffffffffffffffffffffffffffffffffffff161415610fa7576040517f08c379a0000000000000000000000000000000000000000000000000000000008152600401610f9e906123d5565b60405180910390fd5b6000610fb1610918565b9050610fd1818787610fc2886113a8565b610fcb886113a8565b876111b9565b600080600086815260200190815260200160002060008873ffffffffffffffffffffffffffffffffffffffff1673ffffffffffffffffffffffffffffffffffffffff16815260200190815260200160002054905083811015611068576040517f08c379a000000000000000000000000000000000000000000000000000000000815260040161105f90612467565b60405180910390fd5b83810360008087815260200190815260200160002060008973ffffffffffffffffffffffffffffffffffffffff1673ffffffffffffffffffffffffffffffffffffffff168152602001908152602001600020819055508360008087815260200190815260200160002060008873ffffffffffffffffffffffffffffffffffffffff1673ffffffffffffffffffffffffffffffffffffffff168152602001908152602001600020600082825461111d9190612487565b925050819055508573ffffffffffffffffffffffffffffffffffffffff168773ffffffffffffffffffffffffffffffffffffffff168373ffffffffffffffffffffffffffffffffffffffff167fc3d58168c5ae7397731d063d5bbf3d657854427343f4c083240f7aacaa2d0f62888860405161119a9291906125a6565b60405180910390a46111b0828888888888611422565b50505050505050565b505050505050565b6111e08473ffffffffffffffffffffffffffffffffffffffff1661088b565b156113a0578373ffffffffffffffffffffffffffffffffffffffff1663bc197c8187878686866040518663ffffffff1660e01b81526004016112269594939291906126c5565b602060405180830381600087803b15801561124057600080fd5b505af192505050801561127157506040513d601f19601f8201168201806040525081019061126e9190612742565b60015b6113175761127d61277c565b806308c379a014156112da575061129261279e565b8061129d57506112dc565b806040517f08c379a00000000000000000000000000000000000000000000000000000000081526004016112d1919061189c565b60405180910390fd5b505b6040517f08c379a000000000000000000000000000000000000000000000000000000000815260040161130e906128a6565b60405180910390fd5b63bc197c8160e01b7bffffffffffffffffffffffffffffffffffffffffffffffffffffffff1916817bffffffffffffffffffffffffffffffffffffffffffffffffffffffff19161461139e576040517f08c379a000000000000000000000000000000000000000000000000000000000815260040161139590612938565b60405180910390fd5b505b505050505050565b60606000600167ffffffffffffffff8111156113c7576113c66118c3565b5b6040519080825280602002602001820160405280156113f55781602001602082028036833780820191505090505b509050828160008151811061140d5761140c61212c565b5b60200260200101818152505080915050919050565b6114418473ffffffffffffffffffffffffffffffffffffffff1661088b565b15611601578373ffffffffffffffffffffffffffffffffffffffff1663f23a6e6187878686866040518663ffffffff1660e01b8152600401611487959493929190612958565b602060405180830381600087803b1580156114a157600080fd5b505af19250505080156114d257506040513d601f19601f820116820180604052508101906114cf9190612742565b60015b611578576114de61277c565b806308c379a0141561153b57506114f361279e565b806114fe575061153d565b806040517f08c379a0000000000000000000000000000000000000000000000000000000008152600401611532919061189c565b60405180910390fd5b505b6040517f08c379a000000000000000000000000000000000000000000000000000000000815260040161156f906128a6565b60405180910390fd5b63f23a6e6160e01b7bffffffffffffffffffffffffffffffffffffffffffffffffffffffff1916817bffffffffffffffffffffffffffffffffffffffffffffffffffffffff1916146115ff576040517f08c379a00000000000000000000000000000000000000000000000000000000081526004016115f690612938565b60405180910390fd5b505b505050505050565b6000604051905090565b600080fd5b600080fd5b600073ffffffffffffffffffffffffffffffffffffffff82169050919050565b60006116488261161d565b9050919050565b6116588161163d565b811461166357600080fd5b50565b6000813590506116758161164f565b92915050565b6000819050919050565b61168e8161167b565b811461169957600080fd5b50565b6000813590506116ab81611685565b92915050565b600080604083850312156116c8576116c7611613565b5b60006116d685828601611666565b92505060206116e78582860161169c565b9150509250929050565b6116fa8161167b565b82525050565b600060208201905061171560008301846116f1565b92915050565b60007fffffffff0000000000000000000000000000000000000000000000000000000082169050919050565b6117508161171b565b811461175b57600080fd5b50565b60008135905061176d81611747565b92915050565b60006020828403121561178957611788611613565b5b60006117978482850161175e565b91505092915050565b60008115159050919050565b6117b5816117a0565b82525050565b60006020820190506117d060008301846117ac565b92915050565b6000602082840312156117ec576117eb611613565b5b60006117fa8482850161169c565b91505092915050565b600081519050919050565b600082825260208201905092915050565b60005b8381101561183d578082015181840152602081019050611822565b8381111561184c576000848401525b50505050565b6000601f19601f8301169050919050565b600061186e82611803565b611878818561180e565b935061188881856020860161181f565b61189181611852565b840191505092915050565b600060208201905081810360008301526118b68184611863565b905092915050565b600080fd5b7f4e487b7100000000000000000000000000000000000000000000000000000000600052604160045260246000fd5b6118fb82611852565b810181811067ffffffffffffffff8211171561191a576119196118c3565b5b80604052505050565b600061192d611609565b905061193982826118f2565b919050565b600067ffffffffffffffff821115611959576119586118c3565b5b602082029050602081019050919050565b600080fd5b600061198261197d8461193e565b611923565b905080838252602082019050602084028301858111156119a5576119a461196a565b5b835b818110156119ce57806119ba888261169c565b8452602084019350506020810190506119a7565b5050509392505050565b600082601f8301126119ed576119ec6118be565b5b81356119fd84826020860161196f565b91505092915050565b600080fd5b600067ffffffffffffffff821115611a2657611a256118c3565b5b611a2f82611852565b9050602081019050919050565b82818337600083830152505050565b6000611a5e611a5984611a0b565b611923565b905082815260208101848484011115611a7a57611a79611a06565b5b611a85848285611a3c565b509392505050565b600082601f830112611aa257611aa16118be565b5b8135611ab2848260208601611a4b565b91505092915050565b600080600080600060a08688031215611ad757611ad6611613565b5b6000611ae588828901611666565b9550506020611af688828901611666565b945050604086013567ffffffffffffffff811115611b1757611b16611618565b5b611b23888289016119d8565b935050606086013567ffffffffffffffff811115611b4457611b43611618565b5b611b50888289016119d8565b925050608086013567ffffffffffffffff811115611b7157611b70611618565b5b611b7d88828901611a8d565b9150509295509295909350565b600067ffffffffffffffff821115611ba557611ba46118c3565b5b602082029050602081019050919050565b6000611bc9611bc484611b8a565b611923565b90508083825260208201905060208402830185811115611bec57611beb61196a565b5b835b81811015611c155780611c018882611666565b845260208401935050602081019050611bee565b5050509392505050565b600082601f830112611c3457611c336118be565b5b8135611c44848260208601611bb6565b91505092915050565b60008060408385031215611c6457611c63611613565b5b600083013567ffffffffffffffff811115611c8257611c81611618565b5b611c8e85828601611c1f565b925050602083013567ffffffffffffffff811115611caf57611cae611618565b5b611cbb858286016119d8565b9150509250929050565b600081519050919050565b600082825260208201905092915050565b6000819050602082019050919050565b611cfa8161167b565b82525050565b6000611d0c8383611cf1565b60208301905092915050565b6000602082019050919050565b6000611d3082611cc5565b611d3a8185611cd0565b9350611d4583611ce1565b8060005b83811015611d76578151611d5d8882611d00565b9750611d6883611d18565b925050600181019050611d49565b5085935050505092915050565b60006020820190508181036000830152611d9d8184611d25565b905092915050565b600060208284031215611dbb57611dba611613565b5b6000611dc984828501611666565b91505092915050565b611ddb816117a0565b8114611de657600080fd5b50565b600081359050611df881611dd2565b92915050565b60008060408385031215611e1557611e14611613565b5b6000611e2385828601611666565b9250506020611e3485828601611de9565b9150509250929050565b60008060408385031215611e5557611e54611613565b5b6000611e6385828601611666565b9250506020611e7485828601611666565b9150509250929050565b600080600080600060a08688031215611e9a57611e99611613565b5b6000611ea888828901611666565b9550506020611eb988828901611666565b9450506040611eca8882890161169c565b9350506060611edb8882890161169c565b925050608086013567ffffffffffffffff811115611efc57611efb611618565b5b611f0888828901611a8d565b9150509295509295909350565b7f455243313135353a2062616c616e636520717565727920666f7220746865207a60008201527f65726f2061646472657373000000000000000000000000000000000000000000602082015250565b6000611f71602b8361180e565b9150611f7c82611f15565b604082019050919050565b60006020820190508181036000830152611fa081611f64565b9050919050565b7f4e487b7100000000000000000000000000000000000000000000000000000000600052602260045260246000fd5b60006002820490506001821680611fee57607f821691505b6020821081141561200257612001611fa7565b5b50919050565b7f455243313135353a207472616e736665722063616c6c6572206973206e6f742060008201527f6f776e6572206e6f7220617070726f7665640000000000000000000000000000602082015250565b600061206460328361180e565b915061206f82612008565b604082019050919050565b6000602082019050818103600083015261209381612057565b9050919050565b7f455243313135353a206163636f756e747320616e6420696473206c656e67746860008201527f206d69736d617463680000000000000000000000000000000000000000000000602082015250565b60006120f660298361180e565b91506121018261209a565b604082019050919050565b60006020820190508181036000830152612125816120e9565b9050919050565b7f4e487b7100000000000000000000000000000000000000000000000000000000600052603260045260246000fd5b7f4e487b7100000000000000000000000000000000000000000000000000000000600052601160045260246000fd5b60006121958261167b565b91507fffffffffffffffffffffffffffffffffffffffffffffffffffffffffffffffff8214156121c8576121c761215b565b5b600182019050919050565b7f6e6f7420656e6f75676820737570706c79206c65667400000000000000000000600082015250565b600061220960168361180e565b9150612214826121d3565b602082019050919050565b60006020820190508181036000830152612238816121fc565b9050919050565b7f455243313135353a2063616c6c6572206973206e6f74206f776e6572206e6f7260008201527f20617070726f7665640000000000000000000000000000000000000000000000602082015250565b600061229b60298361180e565b91506122a68261223f565b604082019050919050565b600060208201905081810360008301526122ca8161228e565b9050919050565b7f455243313135353a2069647320616e6420616d6f756e7473206c656e6774682060008201527f6d69736d61746368000000000000000000000000000000000000000000000000602082015250565b600061232d60288361180e565b9150612338826122d1565b604082019050919050565b6000602082019050818103600083015261235c81612320565b9050919050565b7f455243313135353a207472616e7366657220746f20746865207a65726f20616460008201527f6472657373000000000000000000000000000000000000000000000000000000602082015250565b60006123bf60258361180e565b91506123ca82612363565b604082019050919050565b600060208201905081810360008301526123ee816123b2565b9050919050565b7f455243313135353a20696e73756666696369656e742062616c616e636520666f60008201527f72207472616e7366657200000000000000000000000000000000000000000000602082015250565b6000612451602a8361180e565b915061245c826123f5565b604082019050919050565b6000602082019050818103600083015261248081612444565b9050919050565b60006124928261167b565b915061249d8361167b565b9250827fffffffffffffffffffffffffffffffffffffffffffffffffffffffffffffffff038211156124d2576124d161215b565b5b828201905092915050565b600060408201905081810360008301526124f78185611d25565b9050818103602083015261250b8184611d25565b90509392505050565b7f455243313135353a206d696e7420746f20746865207a65726f2061646472657360008201527f7300000000000000000000000000000000000000000000000000000000000000602082015250565b600061257060218361180e565b915061257b82612514565b604082019050919050565b6000602082019050818103600083015261259f81612563565b9050919050565b60006040820190506125bb60008301856116f1565b6125c860208301846116f1565b9392505050565b7f455243313135353a2073657474696e6720617070726f76616c2073746174757360008201527f20666f722073656c660000000000000000000000000000000000000000000000602082015250565b600061262b60298361180e565b9150612636826125cf565b604082019050919050565b6000602082019050818103600083015261265a8161261e565b9050919050565b61266a8161163d565b82525050565b600081519050919050565b600082825260208201905092915050565b600061269782612670565b6126a1818561267b565b93506126b181856020860161181f565b6126ba81611852565b840191505092915050565b600060a0820190506126da6000830188612661565b6126e76020830187612661565b81810360408301526126f98186611d25565b9050818103606083015261270d8185611d25565b90508181036080830152612721818461268c565b90509695505050505050565b60008151905061273c81611747565b92915050565b60006020828403121561275857612757611613565b5b60006127668482850161272d565b91505092915050565b60008160e01c9050919050565b600060033d111561279b5760046000803e61279860005161276f565b90505b90565b600060443d10156127ae57612831565b6127b6611609565b60043d036004823e80513d602482011167ffffffffffffffff821117156127de575050612831565b808201805167ffffffffffffffff8111156127fc5750505050612831565b80602083010160043d038501811115612819575050505050612831565b612828826020018501866118f2565b82955050505050505b90565b7f455243313135353a207472616e7366657220746f206e6f6e204552433131353560008201527f526563656976657220696d706c656d656e746572000000000000000000000000602082015250565b600061289060348361180e565b915061289b82612834565b604082019050919050565b600060208201905081810360008301526128bf81612883565b9050919050565b7f455243313135353a204552433131353552656365697665722072656a6563746560008201527f6420746f6b656e73000000000000000000000000000000000000000000000000602082015250565b600061292260288361180e565b915061292d826128c6565b604082019050919050565b6000602082019050818103600083015261295181612915565b9050919050565b600060a08201905061296d6000830188612661565b61297a6020830187612661565b61298760408301866116f1565b61299460608301856116f1565b81810360808301526129a6818461268c565b9050969550505050505056fea2646970667358221220bd1faf859630e611d87957c9fe74332e2d1dd15e9112b94af49e81d9bf5c45c464736f6c6343000809003368747470733a2f2f7261772e67697468756275736572636f6e74656e742e636f6d2f63726167746c61622f6772612d6172742f6d61696e2f7372632f6d657461646174615f5649502f7b69647d",
  "immutableReferences": {},
  "source": "// SPDX-License-Identifier: MIT\r\npragma solidity ^0.8.0;\r\n\r\nimport \"@openzeppelin/contracts/token/ERC1155/ERC1155.sol\";\r\n\r\ncontract VIPNFT is ERC1155 {\r\n    uint256 public MAX_SUPPLY = 20;\r\n    uint256 public minted = 0;\r\n\r\n    constructor()\r\n        ERC1155(\r\n            \"https://raw.githubusercontent.com/cragtlab/gra-art/main/src/metadata_VIP/{id}\"\r\n        )\r\n    {\r\n        \r\n        mint(address(0x3A3593B8e169236289Cf8699876A8Af393B02230));\r\n        mint(address(0x73382d70c64b527a7652Eb21C48bfc1eD2B6E0b6));\r\n        mint(address(0x21586e20921f2d6C068830C9460c728c9a3411a2));\r\n        mint(address(0xCAAE7Ee609621f5B64d7553fdee4696B2a4Eb56F));\r\n    }\r\n\r\n    function mint(address buyer) public payable {\r\n        //require(id <= 1, \"Token doesn't exist\");\r\n        //require(id > 0, \"Token doesn't exist\");\r\n        //require(msg.value >= (amount * mintRate), \"Not enough ether sent\");\r\n        require(minted < MAX_SUPPLY, \"not enough supply left\"); // fyi ERC1155 by default no limit and minting not allowed\r\n\r\n        minted++;\r\n        _mint(buyer, 1, 1, \"\"); // id 1, amount to mint is 1\r\n    }\r\n}\r\n",
  "sourcePath": "C:\\Users\\user\\Downloads\\gra-art\\gra-art\\src\\contracts\\VIPNFT.sol",
  "compiler": {
    "name": "solc",
    "version": "0.8.9+commit.e5eed63a.Emscripten.clang"
  },
  "schemaVersion": "3.4.16",
  "updatedAt": "2023-10-25T03:21:21.404Z",
  "networkType": "ethereum",
  "devdoc": {
    "kind": "dev",
    "methods": {
      "balanceOf(address,uint256)": {
        "details": "See {IERC1155-balanceOf}. Requirements: - `account` cannot be the zero address."
      },
      "balanceOfBatch(address[],uint256[])": {
        "details": "See {IERC1155-balanceOfBatch}. Requirements: - `accounts` and `ids` must have the same length."
      },
      "isApprovedForAll(address,address)": {
        "details": "See {IERC1155-isApprovedForAll}."
      },
      "safeBatchTransferFrom(address,address,uint256[],uint256[],bytes)": {
        "details": "See {IERC1155-safeBatchTransferFrom}."
      },
      "safeTransferFrom(address,address,uint256,uint256,bytes)": {
        "details": "See {IERC1155-safeTransferFrom}."
      },
      "setApprovalForAll(address,bool)": {
        "details": "See {IERC1155-setApprovalForAll}."
      },
      "supportsInterface(bytes4)": {
        "details": "See {IERC165-supportsInterface}."
      },
      "uri(uint256)": {
        "details": "See {IERC1155MetadataURI-uri}. This implementation returns the same URI for *all* token types. It relies on the token type ID substitution mechanism https://eips.ethereum.org/EIPS/eip-1155#metadata[defined in the EIP]. Clients calling this function must replace the `\\{id\\}` substring with the actual token type ID."
      }
    },
    "version": 1
  },
  "userdoc": {
    "kind": "user",
    "methods": {},
    "version": 1
  }
}